:1000000003C100002EC100002CC100002AC1000065
:1000100028C1000026C1000024C1000022C1000048
:1000200020C100001EC100001CC100001AC1000058
:1000300018C1000016C1000014C1000012C1000068
:1000400010C100000C945B0B0CC100000AC1000041
:1000500008C1000006C1000004C100000C94880B18
:1000600000C100000C941F0F0C946310FAC0000034
:10007000F8C00000F6C00000F4C00000F2C00000AC
:100080000C942E0BEEC00000ECC00000EAC0000093
:100090000C945F0F0C94A210E4C00000E2C00000BA
:1000A000E0C00000DEC000000C94010BDAC00000CC
:1000B000D8C00000D6C00000D4C000000C94D40A00
:1000C000D0C00000CEC00000CCC000000C949F0F38
:1000D0000C94E110C6C000000C94DF0F0C942011AA
:1000E000C0C0000000002100240027002A002D00CD
:1000F0003000330001010000040107010A01000083
:100100002200250028002B002E00310034000201BF
:100110000000050108010B0100002000230026005B
:1001200029002C002F00320000010000030106010D
:10013000090105050505070508080808020202026D
:100140000A0A080804040404010101010101010173
:100150000303030303030303040707070C0C0C0C3E
:100160000C0C0C0C02020202060606060606060627
:100170000B0B0B0B0B0B0B0B0102102020080810B4
:100180002040102040800201020108040201010207
:1001900004081020408080402010080402018004E0
:1001A000020180402010080402010804020101023B
:1001B0000408102040800102040810204080000044
:1001C000090A02080B0C0D070603040100000000D9
:1001D000000000000000000000000000000000001F
:1001E0000000000000000000000011100F000000DF
:1001F00000000000000000000000000000000000FF
:100200000000000032018F1211241FBECFEFD1E297
:10021000DEBFCDBF00E00CBF16E0A0E0B2E0EAE335
:10022000F2E300E00BBF02C007900D92A231B107CC
:10023000D9F71BBE19E0A2E1B6E001C01D92AB37B1
:10024000B107E1F712E0C8E0D2E004C02297FE0156
:100250000E941719C430D107C9F70E94C5130C9426
:100260001B19CECE82E196E06ED78DE090E09093A0
:100270002C0680932B068CE090E090932E068093C2
:100280002D068BE090E09093300680932F0683E05C
:1002900090E090933206809331068FEF9FEF90931A
:1002A00034068093330608958091230690912406A6
:1002B0008530910509F446C0863091059CF4823062
:1002C000910589F18330910534F4009711F101977C
:1002D00009F05DC023C08330910551F1049709F006
:1002E00056C02BC088309105E1F1893091053CF46E
:1002F0008630910561F1079709F049C02DC08A3019
:100300009105C9F18A3091058CF10B9709F03FC036
:1003100038C083EF98E060E072E031C083EF98E08E
:1003200067E072E02CC083EF98E061E172E027C0E3
:1003300083EF98E06AE172E022C083EF98E062E226
:1003400072E01DC083EF98E06BE272E018C083EFAB
:1003500098E061E372E013C083EF98E06BE372E032
:100360000EC083EF98E063E472E009C083EF98E089
:1003700068E472E004C083EF98E06DE472E00C94EE
:100380003A1583EF98E062E572E00C943A1508950F
:1003900082E196E06AE570E02CD710921E0610927A
:1003A0001D060895CF93DF9387E090E09093240695
:1003B0008093230683EF98E040E052EC61E070E028
:1003C0000E945F1186E061E00E949D0D80912B06E6
:1003D00061E00E949D0D80912D0661E00E949D0DBF
:1003E00080912F0661E00E949D0D8091310661E0B1
:1003F0000E949D0D82E196E066E070E00E940F0A87
:100400008091230690912406069741F582E196E0BB
:1004100064EB70E0EED683EF98E06BE672E00E944A
:100420000F1668EB7BE080E090E00E94D00B83EF3A
:1004300098E06DE872E00E940F1682E196E060E0BD
:1004400070E0D7D668EB7BE080E090E00E94D00BB4
:1004500085E090E0909324068093230683EF98E054
:100460006CE972E00E940F1610921E0610921D0693
:1004700083EF98E063EB72E00E940F16C0E0D0E0DB
:1004800082E196E06AE570E0B4D661E070E080E079
:1004900090E00E94D00B21968BE0C83BD80781F7F3
:1004A0008091E6059091E7058739910534F086E95A
:1004B00090E09093E7058093E6056ADF80912F0630
:1004C00068EC70E00E94BF0C8091310668EC70E02F
:1004D0000E94BF0C80912B0660E00E94500E80911C
:1004E0002D0660E00E94500EDF91CF910895682F95
:1004F00080912D060C94500ECF93DF93EC019093D6
:100500002206809321068F3F910539F034F08FEF5A
:1005100090E090932206809321068091210690918D
:10052000220681509F4F34F481E09FEF9093220682
:1005300080932106609121067091220677FF03C007
:10054000709561957F4F809131060E94BF0C80E0CD
:100550001C161D060CF481E0CADFDF91CF910895CF
:10056000682F80912B060C94500ECF93DF93EC01F3
:100570009093200680931F068F3F910539F034F049
:100580008FEF90E09093200680931F0680911F06C6
:100590009091200681509F4F34F481E09FEF90931B
:1005A000200680931F0660911F067091200677FF3A
:1005B00003C0709561957F4F80912F060E94BF0CFC
:1005C00080E01C161D060CF481E0CADFDF91CF919C
:1005D0000895CF93DF9383EF98E06EEC72E00E9472
:1005E0000F1683EF98E06DED72E00E943A15C0E0BF
:1005F000D0E0CE01BADFCE017FDF6FE070E080E0B7
:1006000090E00E94D00B2596CF3FD10591F78FEF58
:1006100090E0ABDF8FEF90E06FDFDF91CF91089537
:1006200080E090E0A2DF80E090E066DF68EC70E0C0
:1006300080E090E00C94D00BCF92DF92EF92FF928B
:100640000F931F938C0183EFC82E88E0D82EC6012C
:1006500064EE72E00E943A15C601B8014AE050E02B
:100660000E940B15C60169E173E00E943A1580E013
:1006700090E07BDF80E090E03FDF81E09FEF75DF7F
:1006800081E09FEF39DFC80162E070E00E94B1189D
:100690007B010027F7FC0095102FC801B7010E94CD
:1006A000D00B8FEF90E028DFC801B7010E94D00B7C
:1006B00080E090E05ADF80E090E01EDFC60163E258
:1006C00073E00E940F1664E670E080E090E00E9404
:1006D000D00B1F910F91FF90EF90DF90CF90089576
:1006E0004F925F926F927F928F929F92AF92BF9242
:1006F000CF92DF92EF92FF920F931F93CF93DF93EE
:1007000083EF98E067E473E00E940F16C0911F0624
:10071000D09120061C161D063CF051E0452E512CB0
:1007200041E0642E712C06C044244A94542C662463
:100730006A94762C83EF98E06CE573E00E943A159A
:1007400083EF98E0B3014AE050E00E940B1583EF7D
:1007500098E064E773E00E943A1583EF98E0B201F5
:100760004AE050E00E940B1583EF98E06AE873E0DE
:100770000E943A1583EF98E0BE014AE050E00E94E3
:100780000B1583EF98E06CE973E00E943A1583EF54
:1007900098E0BE014AE050E00E940B1583EF98E01C
:1007A0000E94FC137E01D7FF04C0F094E194F1088D
:1007B000F3944301880C991C880C991C860C971C97
:1007C0005201AA0CBB1CAA0CBB1CA40CB51CCC244B
:1007D000DD2400E010E0C0E0D0E0C801C6DECE01BC
:1007E0008BDE83EF98E06FEA73E00E943A1583EFA7
:1007F00098E0B8014AE050E00E940B1583EF98E0C2
:100800006CE973E00E943A1583EF98E0BE014AE07C
:1008100050E00E940B1583EF98E00E94FC136FE0FC
:1008200070E080E090E0BCD785E090E0C80ED91E73
:10083000080D191DCA0DDB1D9FEFC916D10469F6FD
:100840006E9CC0016F9C900D7E9C900D11248DDEDE
:100850004E9CC0014F9C900D5E9C900D11244CDE6F
:10086000DF91CF911F910F91FF90EF90DF90CF908C
:10087000BF90AF909F908F907F906F905F904F90C0
:100880000895CF92DF92EF92FF920F931F9373EF31
:10089000E72E78E0F72E60911D0670911E06C701C5
:1008A0004AE050E00E941D1500911D0610911E06A1
:1008B00081E090E00827192769EDC62E63E0D62E67
:1008C000C701B6010E943A1560911D0670911E067F
:1008D000C7014AE050E00E941D1510931E060093C8
:1008E0001D06C701B6010E943A1560911D06709160
:1008F0001E06C7014AE050E00E941D151F910F918E
:10090000FF90EF90DF90CF90089587E30C948B0CCD
:1009100086E30C948B0C0F931F9303EF18E0C80130
:100920006CEE73E00E943A156091250670912606E0
:10093000C8014AE050E00E940B15C80166EF73E061
:100940000E943A15E5DFBC01C8014AE050E00E9470
:10095000BD14C8016EEF73E00E943A15D6DFBC01EA
:10096000C8014AE050E00E94BD14C8010E94FC1377
:100970001F910F91089588E3CEC74F925F926F92B7
:100980007F928F929F92AF92BF92CF92DF92EF921F
:10099000FF920F931F93CF93DF93EC01219700D029
:1009A0000F92DE01AA0FBB1FFD01E95EF94F6081C6
:1009B0007181882777FD8095982F2E01440C551C56
:1009C000440C551CF201EE0FFF1FE551FA4F208138
:1009D0003181442737FD4095542FFE0113E0EE0F7F
:1009E000FF1F1A95E1F7E751FA4FE680F7800027DD
:1009F000F7FC0095102FEAEDF5E04E0E5F1EF201B8
:100A0000A080B180CC24B7FCC094DC2CAA0FBB1F03
:100A1000A452BA4F6D907C90882477FC8094982CD7
:100A2000EDB7FEB761827282838294820E942016A3
:100A3000F20140815181CB010F900F900F900F90E8
:100A4000641775070CF4CA01CC0FDD1FCC0FDD1F36
:100A5000C452DA4FA881B9819C01A817B9070CF4D8
:100A60009D01C901DF91CF911F910F91FF90EF90F0
:100A7000DF90CF90BF90AF909F908F907F906F90BE
:100A80005F904F9008958091D8059091D905019776
:100A900009F024C183EF98E066E074E00E943A1503
:100AA000609125067091260683EF98E04AE050E0B9
:100AB0000E940B1583EF98E06AE074E00E943A15FB
:100AC000609127067091280683EF98E04AE050E095
:100AD0000E940B1583EF98E060E174E00E943A15E4
:100AE00017DFBC0183EF98E04AE050E00E94BD149C
:100AF00083EF98E066E174E00E943A1506DFBC01DE
:100B000083EF98E04AE050E00E94BD1483EF98E044
:100B10006CE174E00E943A1560911F067091200606
:100B200083EF98E04AE050E00E940B1583EF98E0D5
:100B300068E274E00E943A156091210670912206E5
:100B400083EF98E04AE050E00E940B1583EF98E0B5
:100B500064E374E00E943A1560911D0670911E06D0
:100B600083EF98E04AE050E00E940B1583EF98E095
:100B70006EE374E00E943A156091290670912A068E
:100B800083EF98E04AE050E00E940B1583EF98E075
:100B900069E474E00E943A156091290670912A0672
:100BA000882777FD8095982F0E946B1720E030E012
:100BB0004CEA51E40E941F1820E030E040E85AE37C
:100BC0000E941F18AB01BC0183EF98E022E030E0E7
:100BD0000E940D1683EF98E06CE474E00E943A15D1
:100BE00083EF98E06FE474E00E943A155DDB83EFD9
:100BF00098E068E574E00E943A15609115067091DE
:100C0000160683EF98E04AE050E00E940B1583EF50
:100C100098E061E674E00E943A15609129067091AF
:100C20002A06882777FD8095982F0E946B1720E071
:100C300030E849E054E40E941B1818162CF483EFA6
:100C400098E06BE674E004C083EF98E06EE674E031
:100C50000E943A1583EF98E063E774E00E943A152A
:100C600081E090E08ADEBC0183EF98E04AE050E04A
:100C70000E940B1583EF98E06AE774E00E943A1532
:100C8000609117067091180683EF98E04AE050E0F3
:100C90000E940B1583EF98E06EE774E00E943A150E
:100CA00082E090E06ADEBC0183EF98E04AE050E029
:100CB0000E940B1583EF98E06AE774E00E943A15F2
:100CC0006091190670911A0683EF98E04AE050E0AF
:100CD0000E940B1583EF98E00C94FC130895EF929B
:100CE000FF920F931F9303EF18E0C8010E94FC13BB
:100CF00045E8E42E44E0F42EC801B7010E940F1627
:100D0000C80162EB74E00E940F16C801B7010E948F
:100D10000F16C80160EC74E00E940F16C8016DED5B
:100D200072E00E943A15AFDE80E090E01EDC80E0C9
:100D300090E0E2DB68EE73E080E090E031D51F9157
:100D40000F91FF90EF900895CF93DF9381E090E0B3
:100D500014DEEC018FEFCC3ED8073CF4CE0181507D
:100D60009F4F03DC8FEF90E00AC0C531D10544F0FE
:100D70008FEF90E0FADB8FEF90E08C1B9D0BBCDBDC
:100D80006396A79730F48FEF90E0EFDB8FEF90E062
:100D9000B3DBDF91CF910895FC0153E0EE0FFF1F0D
:100DA0005A95E1F7EF51FA4F808161E028EA31E688
:100DB00040E050E0A7D7CB0108950F931F93CF9346
:100DC000DF93D9DD90932A068093290681E090E095
:100DD000E3DF909318068093170682E090E0DCDF53
:100DE00090931A068093190682E090E0C6DD409742
:100DF00054F08091230690912406892B21F01092C3
:100E000024061092230682E090E0B7DD815F9F4FB9
:100E100064F48091230690912406892B31F489E0B3
:100E200090E090932406809323068091230690916E
:100E300024068930910509F4A8C08A3091055CF434
:100E40008530910509F46DC08730910509F467C0BC
:100E5000892B69F0A1C08B30910509F47EC08B30DD
:100E600091050CF46BC00C9709F096C022C06CDFA2
:100E70008091150690911606892B09F08DC048DDEA
:100E8000079720F442DD079708F486C08091270673
:100E9000909128060196909328068093270605973F
:100EA0000CF47AC010922806109227068CE090E08D
:100EB0006FC06EDA83EF98E065ED74E00E940F1664
:100EC00083EF98E067EF74E00E943A1583EF98E0B3
:100ED00060E174E00E943A151BDDBC0183EF98E0ED
:100EE0004AE050E00E94BD1483EF98E066E174E0B0
:100EF0000E943A150ADDBC0183EF98E04AE050E019
:100F00000E94BD1483EF98E00E94FC138CED95E0E5
:100F100093DB5FDB10922406109223063DC0DFDED8
:100F200035C0C0E0D0E0F7DC64EF71E080E090E035
:100F300037D42196CA30D105B1F72EC000911F06D3
:100F40001091200680E090E010DB68EE73E080E016
:100F500090E026D4C80109DB0EC000912106109153
:100F6000220680E090E0C8DA68EE73E080E090E06E
:100F700017D4C801C1DA109224061092230664E641
:100F800070E080E090E00CD407C04ADB88E090E09D
:100F9000909324068093230683EF98E00E94E51146
:100FA000892B09F4B3C083EF98E00E941612082F32
:100FB00083EF98E06CEF74E00E940F1683EF98E0E7
:100FC0006AE075E00E943A1583EF98E0602F0E9476
:100FD0001C14033799F48091230690912406892BE1
:100FE00009F4A8C083EF98E069E175E00E940F164C
:100FF0001092240610922306ECDA88C0043679F4A5
:101000008091230690912406892B09F07FC083EFFD
:1010100098E06CE275E00E940F1662DB77C00C3638
:1010200081F48091230690912406892B09F06EC0EB
:1010300083EF98E060E475E00E940F168AE090E08C
:1010400061C0023781F48091230690912406892B98
:1010500009F05CC083EF98E061E575E00E940F162F
:101060008BE090E04FC0033699F480912306909175
:101070002406892B09F04AC083EF98E063E675E007
:101080000E940F16FEDB10922406109223063EC02B
:10109000043499F483EF98E065E775E00E940F1639
:1010A000809115069091160621E030E08227932763
:1010B000909316068093150629C0003799F483EFA4
:1010C00098E06DE875E00E940F168091D805909128
:1010D000D90521E030E0822793279093D9058093AA
:1010E000D80514C0023691F480912306909124060D
:1010F000892B61F483EF98E06EEA75E00E940F1689
:101100008CE090E09093240680932306BCDC8091D1
:101110002506909126060196909326068093250633
:1011200064E670E080E090E03BD3DF91CF911F91C7
:101130000F91089583EF98E067EB75E00E940F161A
:1011400089E090E0DFCFFC0180913506803390F498
:1011500080838F5F80933506815090E0FC01EE0F15
:10116000FF1FE80FF91FEA5CF94F88EB9BE09283C1
:10117000818308958FEF80830895FC0120812033BF
:10118000B8F58181992787FD909548E850E0481B84
:10119000590B440F551F440F551F6417750784F0F2
:1011A0008281992787FD909548E552E0481B590BAD
:1011B000440F551F440F551F641775070CF4AB01FE
:1011C00042505040CA01AA2797FDA095BA2F880F18
:1011D000991FAA1FBB1F4FB7F89430E0F901EE0F1B
:1011E000FF1FE20FF31FEA5CF94F928381834FBF29
:1011F0000895AF92BF92CF92DF92EF92FF920F933A
:101200001F93CF93DF93EC019B0182E0603278075C
:101210000CF048C077FF03C020E030E005C0653B1C
:10122000710514F024EB30E000D00F92B90188274B
:1012300077FD8095982F2981332727FD3095E8E8A1
:10124000AE2EB12CA21AB30AAA0CBB1CAA0CBB1C52
:10125000CC24B7FCC094DC2CEA81FF27E7FDF09595
:1012600028E532E02E1B3F0B220F331F220F331FC6
:10127000442737FD4095542FEDB7FEB721833283C5
:101280004383548320E030E040E050E004EBE02E64
:10129000F12C012D112D0E9420169B010F900F9013
:1012A0000F900F90CE01B90168DFDF91CF911F91B0
:1012B0000F91FF90EF90DF90CF90BF90AF90089587
:1012C000CF92DF92EF92FF921F93CF93DF93EC01C7
:1012D000162F7A0169018881803308F092C0862F29
:1012E00061E02BD4888190E0FC01EE0FFF1FE80F36
:1012F000F91FEA5CF94F1F738081807C812B80830A
:1013000080E292E08E199F0964E070E00E94B118BB
:10131000698380E699E08C199D0964E070E00E9481
:10132000B1186A83A8818A2F6CE00E94A518682FE3
:1013300070E0AB01440F551F460F571F440F551F58
:10134000440F551F20E030E0C901840F951FFC01B8
:10135000EE0FFF1FE80FF91FEA5CF94F808186FD51
:1013600044C02F5F3F4F2C30310571F753C01092AE
:10137000800082E0809381001092850010928400AA
:10138000B19A80916F00826080936F002EC06230AE
:10139000710569F41092900082E0809391001092A0
:1013A00095001092940088BB809371001EC063303A
:1013B000710569F41092A00082E08093A100109260
:1013C000A5001092A40089BB809372000EC0672B09
:1013D00061F41092200182E0809321011092250196
:1013E000109224018ABB809373008A2F90E0FC0145
:1013F000EE0FFF1FE80FF91FEA5CF94F8081806450
:1014000080838881DF91CF911F91FF90EF90DF90D3
:10141000CF9008956130710509F0B9CFA8CF40E2AF
:1014200052E020E639E04CCFEF92FF920F931F93EA
:10143000CF93DF938B017A01EC01DC01AA53B94F02
:101440008C9187FF04C0FB011182108236C0AE016F
:10145000440F551F4C0F5D1F440F551F440F551F60
:101460002C91332727FD3095240F351F80913506A9
:1014700090E0281739070CF58C91992787FD9095F6
:10148000840F951FFC01EE0FFF1FE80FF91FEA5CA8
:10149000F94F808186FF11C08C91992787FD909527
:1014A000840F951FFC01EE0FFF1FE80FF91FEA5C88
:1014B000F94F80818F7360E0F3D3DE01AA53B94FF7
:1014C0008C918F5F8C93AE01440F551F4C0F5D1FA5
:1014D000440F551F440F551F2C91332727FD30957E
:1014E000240F351F8091350690E0281739070CF03E
:1014F0004CC08C918C300CF048C0F80120813181B7
:101500008C91992787FD9095840F951FFC01EE0F14
:10151000FF1FE80FF91FEA5CF94F81819281280FC4
:10152000391FF701318320838C91992787FD90958E
:10153000840F951FFC01EE0FFF1FE80FF91FEA5CF7
:10154000F94F808186FF29C08C91992787FD90955E
:10155000840F951FFC01EE0FFF1FE80FF91FEA5CD7
:10156000F94F80818F7361E09BD317C080E49CE9C1
:1015700004C0F801808191810496F70191838083F2
:10158000CA53D94F8FEF888308C0F80180819181B9
:10159000049680549C4950F3ECCFDF91CF911F917A
:1015A0000F91FF90EF9008951F920F920FB60F9238
:1015B0000BB60F9211242F933F934F935F936F932A
:1015C0007F938F939F93AF93BF93EF93FF9380E0AD
:1015D00090E064E271E048E251E026DFFF91EF9194
:1015E000BF91AF919F918F917F916F915F914F913B
:1015F0003F912F910F900BBE0F900FBE0F901F9039
:1016000018951F920F920FB60F920BB60F921124DE
:101610002F933F934F935F936F937F938F939F93FA
:10162000AF93BF93EF93FF9383E090E064EA70E0A1
:1016300048EA50E0F9DEFF91EF91BF91AF919F91A1
:101640008F917F916F915F914F913F912F910F906B
:101650000BBE0F900FBE0F901F9018951F920F9208
:101660000FB60F920BB60F9211242F933F934F9307
:101670005F936F937F938F939F93AF93BF93EF93FA
:10168000FF9382E090E064E970E048E950E0CCDE4E
:10169000FF91EF91BF91AF919F918F917F916F914A
:1016A0005F914F913F912F910F900BBE0F900FBE06
:1016B0000F901F9018951F920F920FB60F920BB6B6
:1016C0000F9211242F933F934F935F936F937F93C8
:1016D0008F939F93AF93BF93EF93FF9381E090E03D
:1016E00064E870E048E850E09FDEFF91EF91BF9121
:1016F000AF919F918F917F916F915F914F913F91AA
:101700002F910F900BBE0F900FBE0F901F9018954A
:101710001F920F920FB60F9211242F933F938F9326
:101720009F93AF93BF938091CE069091CF06A091E7
:10173000D006B091D1063091D2060196A11DB11DFF
:10174000232F2D5F2D3720F02D570196A11DB11DA0
:101750002093D2068093CE069093CF06A093D00616
:10176000B093D1068091CA069091CB06A091CC0689
:10177000B091CD060196A11DB11D8093CA0690932C
:10178000CB06A093CC06B093CD06BF91AF919F91AD
:101790008F913F912F910F900FBE0F901F90189532
:1017A0009B01AC017FB7F8948091CA069091CB065B
:1017B000A091CC06B091CD0666B5A89B05C06F3F41
:1017C00019F00196A11DB11D7FBFBA2FA92F982F27
:1017D0008827860F911DA11DB11D62E0880F991FFA
:1017E000AA1FBB1F6A95D1F7BC012DC0FFB7F894A3
:1017F0008091CA069091CB06A091CC06B091CD06FF
:10180000E6B5A89B05C0EF3F19F00196A11DB11DDB
:10181000FFBFBA2FA92F982F88278E0F911DA11DCA
:10182000B11DE2E0880F991FAA1FBB1FEA95D1F7EF
:10183000861B970B885E9340C8F221503040404091
:10184000504068517C4F211531054105510571F615
:101850000895789484B5826084BD84B5816084BD28
:1018600085B5826085BD85B5816085BDEEE6F0E019
:10187000808181608083E1E8F0E010828081826075
:101880008083808181608083E0E8F0E080818160F6
:101890008083E1EBF0E0808184608083E0EBF0E026
:1018A000808181608083E1E9F0E0808182608083D3
:1018B000808181608083E0E9F0E0808181608083C5
:1018C000E1EAF0E0808182608083808181608083B2
:1018D000E0EAF0E0808181608083E1E2F1E08081F4
:1018E00082608083808181608083E0E2F1E080819A
:1018F00081608083EAE7F0E080818460808380817A
:101900008260808380818160808380818068808321
:101910001092C1000895382F863308F03653209175
:101920007B00832F86958695869590E081709070D8
:1019300043E0880F991F4A95E1F7277F282B2093D2
:101940007B0037708091E8058295880F880F807C36
:10195000832B80937C0080917A00806480937A004E
:1019600080917A0086FDFCCF20917800409179002B
:10197000942F80E030E0282B392BC90108951F9364
:10198000CF93DF93182FEB0161E0D7D0209709F4B4
:10199000CAC0CF3FD10509F4C9C0E12FF0E0E2543D
:1019A000FE4F8491893009F466C08A30B0F48430E7
:1019B000F1F1853040F4823059F1833070F5813097
:1019C00009F0AEC020C0873009F443C0883008F069
:1019D00048C0863009F0A4C034C08D3009F478C006
:1019E0008E3038F48B3009F45AC08C3008F066C061
:1019F0004CC0803109F480C0813109F487C08F3038
:101A000009F08EC06FC084B5806884BDC7BD91C029
:101A100084B5806284BDC8BD8CC080918000806820
:101A200080938000D0938900C093880082C0809109
:101A30008000806280938000D0938B00C0938A00E6
:101A400078C08091B00080688093B000C093B300EC
:101A500070C08091B00080628093B000C093B400E9
:101A600068C080919000806880939000D093990026
:101A7000C09398005EC08091900080628093900037
:101A8000D0939B00C0939A0054C0809190008860CE
:101A900080939000D0939D00C0939C004AC0809199
:101AA000A00080688093A0008091A0008F7B80932D
:101AB000A000D093A900C093A8003BC08091A000D3
:101AC00080628093A000D093AB00C093AA0031C085
:101AD0008091A00088608093A000D093AD00C09357
:101AE000AC0027C080912001806880932001D093B2
:101AF0002901C09328011DC080912001806280933C
:101B00002001D0932B01C0932A0113C080912001A2
:101B1000886080932001D0932D01C0932C0109C0CF
:101B2000C038D1051CF4812F60E002C0812F61E034
:101B3000B7D0DF91CF911F910895CF93DF93482FB6
:101B400050E0CA0188589E4FFC0134914E5C5E4FB4
:101B5000FA018491882369F190E0880F991FFC01B4
:101B6000EC51FF4FA591B491FC01E250FF4FC5919C
:101B7000D491662351F42FB7F8948C91932F9095BC
:101B800089238C93888189230BC0623061F42FB73D
:101B9000F8948C91932F909589238C938881832B33
:101BA00088832FBF06C09FB7F8948C91832B8C93AA
:101BB0009FBFDF91CF910895893009F449C08A30E1
:101BC000A0F4843051F1853040F4823079F18330D3
:101BD00000F5813009F063C026C0873079F1883084
:101BE00098F5863009F05BC025C08D3009F442C0FD
:101BF0008E3028F48B30B1F18C30C0F52DC080319F
:101C000009F442C0813109F445C08F3009F047C062
:101C100037C0809180008F7703C0809180008F7DD6
:101C200080938000089584B58F7702C084B58F7D3E
:101C300084BD08958091B0008F7703C08091B0007B
:101C40008F7D8093B0000895809190008F7707C0BA
:101C5000809190008F7D03C080919000877F80935A
:101C6000900008958091A0008F7707C08091A00018
:101C70008F7D03C08091A000877F8093A00008958E
:101C8000809120018F7703C0809120018F7D809308
:101C90002001089580912001877F8093200108957D
:101CA000FF920F931F93F62E482F50E0CA018254E3
:101CB0009E4FFC012491CA0188589E4FFC0114914B
:101CC0004E5C5E4FFA0104910023C1F0222311F013
:101CD000822F72DFE02FF0E0EE0FFF1FE250FF4F88
:101CE000A591B4919FB7F894FF2021F48C911095A1
:101CF000812302C08C91812B8C939FBF1F910F91E8
:101D0000FF9008958F929F92AF92BF92CF92DF92F1
:101D1000EF92FF920F931F93CF93DF93A82FB0E022
:101D2000CD0188589E4FFC018490AE5CBE4FFD01F2
:101D30008491662311F4992401C0982C6FEFA62E8C
:101D40006FEFB62E6FEFC62E6FE0D62EA222B32213
:101D5000C422D522682F70E0660F771F685E7E4F21
:101D6000EE24FF248701FB01A591B4910BC0EA1476
:101D7000FB040C051D0509F44EC00894E11CF11C80
:101D8000011D111D8C918821891589F30CC0EA145D
:101D9000FB040C051D0509F43EC00894E11CF11C70
:101DA000011D111D03C0FB01A591B4918C918821E7
:101DB000891569F720E030E040E050E0FB01C59173
:101DC000D4910FC0DA01C9018E0D9F1DA01FB11F54
:101DD0008A159B05AC05BD05F1F02F5F3F4F4F4FB6
:101DE0005F4F88818821891569F3CA01B90125E10E
:101DF00030E040E050E00E9486189B01AC01205F7B
:101E00003F4F4F4F5F4F84E0569547953795279545
:101E10008A95D1F704C020E030E040E050E0B901FD
:101E2000CA01DF91CF911F910F91FF90EF90DF904A
:101E3000CF90BF90AF909F908F90089508951F927C
:101E40000F920FB60F920BB60F9211242F933F9360
:101E50004F938F939F93EF93FF938091C00082FDE8
:101E60001DC04091C60020911307309114072F5FC9
:101E70003F4F2F73307080911507909116072817E8
:101E8000390771F0E0911307F0911407ED52F94F03
:101E90004083309314072093130702C08091C6003B
:101EA000FF91EF919F918F914F913F912F910F90C3
:101EB0000BBE0F900FBE0F901F90189508951F92A4
:101EC0000F920FB60F920BB60F9211242F933F93E0
:101ED0004F938F939F93EF93FF938091C80082FD60
:101EE0001DC04091CE0020919B0730919C072F5F31
:101EF0003F4F2F73307080919D0790919E07281758
:101F0000390771F0E0919B07F0919C07E55AF84F73
:101F1000408330939C0720939B0702C08091CE00A2
:101F2000FF91EF919F918F914F913F912F910F9042
:101F30000BBE0F900FBE0F901F90189508951F9223
:101F40000F920FB60F920BB60F9211242F933F935F
:101F50004F938F939F93EF93FF938091D00082FDD7
:101F60001DC04091D60020912308309124082F5F96
:101F70003F4F2F73307080912508909126082817C5
:101F8000390771F0E0912308F0912408ED51F84FE2
:101F90004083309324082093230802C08091D60008
:101FA000FF91EF919F918F914F913F912F910F90C2
:101FB0000BBE0F900FBE0F901F90189508951F92A3
:101FC0000F920FB60F920BB60F9211242F933F93DF
:101FD0004F938F939F93EF93FF938091300182FDF6
:101FE0001DC0409136012091AB083091AC082F5FA5
:101FF0003F4F2F7330708091AD089091AE08281735
:10200000390771F0E091AB08F091AC08E559F74F52
:1020100040833093AC082093AB0802C08091360116
:10202000FF91EF919F918F914F913F912F910F9041
:102030000BBE0F900FBE0F901F901895E091FF08F8
:10204000F0910009E05CFF4F8191919120813181F5
:10205000821B930B8F739070892B09F0EFDEE09158
:102060002109F0912209E05CFF4F8191919120813B
:102070003181821B930B8F739070892B09F01EDFC7
:10208000E0914309F0914409E05CFF4F8191919107
:1020900020813181821B930B8F739070892B09F003
:1020A0004DDFE0916509F0916609E05CFF4F819199
:1020B000919120813181821B930B8F739070892BBA
:1020C00009F07CCF08951F920F920FB60F920BB6B6
:1020D0000F9211242F933F938F939F93EF93FF932E
:1020E00020915707309158078091590790915A07CE
:1020F0002817390731F48091C1008F7D8093C1008A
:1021000014C0E0915907F0915A07E95EF84F208119
:102110008091590790915A0701968F739070909310
:102120005A07809359072093C600FF91EF919F9122
:102130008F913F912F910F900BBE0F900FBE0F907C
:102140001F9018951F920F920FB60F920BB60F9219
:1021500011242F933F938F939F93EF93FF9320919D
:10216000DF073091E0078091E1079091E20728179F
:10217000390731F48091C9008F7D8093C90014C064
:10218000E091E107F091E207E156F84F208180915C
:10219000E1079091E20701968F7390709093E207A8
:1021A0008093E1072093CE00FF91EF919F918F9153
:1021B0003F912F910F900BBE0F900FBE0F901F906D
:1021C00018951F920F920FB60F920BB60F92112413
:1021D0002F933F938F939F93EF93FF9320916708E3
:1021E000309168088091690890916A08281739072A
:1021F00031F48091D1008F7D8093D10014C0E091A3
:102200006908F0916A08E95DF74F208180916908BB
:1022100090916A0801968F73907090936A088093EA
:1022200069082093D600FF91EF919F918F913F9184
:102230002F910F900BBE0F900FBE0F901F9018950F
:102240001F920F920FB60F920BB60F9211242F937D
:102250003F938F939F93EF93FF932091EF083091DB
:10226000F0088091F1089091F2082817390731F4AD
:10227000809131018F7D8093310114C0E091F1088C
:10228000F091F208E155F74F20818091F10890918B
:10229000F20801968F7390709093F2088093F10882
:1022A00020933601FF91EF919F918F913F912F9154
:1022B0000F900BBE0F900FBE0F901F901895AF920E
:1022C000BF92DF92EF92FF920F931F93CF93DF9312
:1022D000EC017A018B01DD24403081EE580780E06B
:1022E000680780E0780711F0DD24D39491E0A92EEF
:1022F000B12CEC89FD89DD2069F0C50108A002C080
:10230000880F991F0A94E2F7808360E079E08DE3FB
:1023100090E005C0108260E874E88EE190E0A801CA
:10232000970132D721503040404050405695479554
:102330003795279580E12030380720F0DD2011F017
:10234000DD24D7CFE889F9893083EA89FB892083A6
:1023500019A2EE89FF89408121E030E0C9010C8C8F
:1023600002C0880F991F0A94E2F7482B4083EE8938
:10237000FF894081C9010D8C02C0880F991F0A9402
:10238000E2F7482B4083EE89FF894081C9010E8C1A
:1023900002C0880F991F0A94E2F7482B4083EE8908
:1023A000FF8980810F8C02C0220F331F0A94E2F74D
:1023B000209528232083DF91CF911F910F91FF90CB
:1023C000EF90DF90BF90AF900895DC011C96ED91E7
:1023D000FC911D97E05CFF4F2191319180819181AB
:1023E000281B390B2F733070C9010895DC011C962E
:1023F000ED91FC911D97E05CFF4F20813181E0540D
:10240000F040DF01AE5BBF4F8D919C911197281773
:10241000390719F42FEF3FEF07C08D919C91E80F1A
:10242000F91F8081282F30E0C9010895DC011C9636
:10243000ED91FC911D97E05CFF4F20813181E054CC
:10244000F040DF01AE5BBF4F8D919C911197281733
:10245000390719F42FEF3FEF10C08D919C91119720
:10246000E80FF91F20818D919C91119701968F7330
:10247000907011969C938E9330E0C9010895DC0111
:1024800091968C919197882339F05496ED91FC9117
:102490005597808186FFF9CF91961C920895CF932E
:1024A000DF93EC01EE85FF85E05CFF4F20813181F9
:1024B000E054F0402F5F3F4F2F733070DF01AE5B71
:1024C000BF4F8D919C91119728173907D1F3E05C8C
:1024D000FF4F80819181E054F040E80FF91F608345
:1024E000EE85FF85E05CFF4F31832083EE89FF8915
:1024F000208181E090E00F8C02C0880F991F0A9420
:10250000E2F7282B208381E089A3EC89FD89808173
:102510008064808381E090E0DF91CF9108951F93E4
:102520001092F6081092F50828EE33E040E050E0F3
:102530002093F7083093F8084093F9085093FA086D
:1025400065E076E07093F4086093F30883ED96E01D
:10255000909300098093FF0887E197E09093020928
:102560008093010985EC90E090930409809303091E
:1025700084EC90E0909306098093050980EC90E04C
:10258000909308098093070981EC90E090930A09E1
:102590008093090982EC90E090930C0980930B09D9
:1025A00086EC90E090930E0980930D0914E010934F
:1025B0000F09B3E0B0931009A7E0A0931109F5E06B
:1025C000F0931209E1E0E0931309109218091092B8
:1025D00017092093190930931A0940931B09509346
:1025E0001C0970931609609315098BE597E0909389
:1025F0002209809321098FE997E090932409809321
:1026000023098DEC90E090932609809325098CECAA
:1026100090E0909328098093270988EC90E09093AC
:102620002A098093290989EC90E090932C098093E2
:102630002B098AEC90E090932E0980932D098EEC63
:1026400090E09093300980932F0910933109B09353
:102650003209A0933309F0933409E09335091092BD
:102660003A091092390920933B0930933C09409371
:102670003D0950933E09709338096093370983EE02
:1026800097E0909344098093430987E298E0909300
:1026900046098093450985ED90E090934809809321
:1026A000470984ED90E090934A098093490980EDB1
:1026B00090E090934C0980934B0981ED90E09093CA
:1026C0004E0980934D0982ED90E0909350098093DC
:1026D0004F0986ED90E09093520980935109109331
:1026E0005309B0935409A0935509F0935609E09308
:1026F000570910925C0910925B0920935D09309391
:102700005E0940935F095093600970935A09609382
:1027100059098BE698E090936609809365098FEAE2
:1027200098E0909368098093670985E391E090931E
:102730006A098093690984E391E090936C0980931E
:102740006B0980E391E090936E0980936D0981E3BA
:1027500091E09093700980936F0982E391E09093E8
:1027600072098093710986E391E0909374098093D4
:10277000730910937509B0937609A0937709F093C4
:102780007809E09379091F910895CF93DF9361D879
:102790000E94D201CEE1D0E10E94DD062097E1F354
:1027A0004DDCFACFCF92DF92EF92FF920F931F93FF
:1027B000CF93DF937C016B018A01C0E0D0E00FC0B2
:1027C000D6016D916D01D701ED91FC910190F081E1
:1027D000E02DC7011995C80FD91F015010400115F0
:1027E000110571F7CE01DF91CF911F910F91FF90ED
:1027F000EF90DF90CF900895EF92FF920F931F9389
:102800008C01DC01ED91FC910190F081E02D6DE0F7
:1028100019957C01D801ED91FC910190F081E02D9A
:10282000C8016AE019959C012E0D3F1DC9011F9139
:102830000F91FF90EF900895EF92FF920F931F93E7
:102840007C01DC01ED91FC910190F081E02D199566
:102850008C01C701D1DF080F191FC8011F910F910B
:10286000FF90EF900895CF93DF93EC016115710510
:1028700019F420E030E00FC0DB010D900020E9F7F3
:102880001197A61BB70BE881F9810280F381E02D37
:10289000AD0119959C01C901DF91CF9108954F9227
:1028A0005F927F928F929F92AF92BF92CF92DF9270
:1028B000EF92FF920F931F93DF93CF93CDB7DEB7C5
:1028C000A1970FB6F894DEBF0FBECDBF2C01742EBA
:1028D000CB01223008F42AE019A231E2C32ED12C18
:1028E000CC0EDD1E822E9924AA24BB24672D752FC1
:1028F000A501940149D479018A01C801B701A50154
:10290000940104D4472D461B0894C108D1084A30CD
:1029100014F4405D01C0495CF6014083E114F10408
:102920000105110521F07E2C5F2DC801DFCFC2010A
:10293000B60199DFA1960FB6F894DEBF0FBECDBFEA
:10294000CF91DF911F910F91FF90EF90DF90CF908B
:10295000BF90AF909F908F907F905F904F90089521
:10296000DC012115310541F4ED91FC910190F081DC
:10297000E02D642F1995089592CFEF92FF920F9357
:102980001F939A017B0100E010E0B801A701E8DF86
:102990001F910F91FF90EF900895CF92DF92EF92E9
:1029A000FF920F931F93CF93DF93EC016A017B019A
:1029B0002115310541F4E881F9810190F081E02D84
:1029C000642F19951DC02A303105C9F477FF16C050
:1029D000E881F9810190F081E02D6DE219958C017B
:1029E00044275527BA014C195D096E097F09CE01AC
:1029F0002AE055DF9801280F391F03C02AE04FDF76
:102A00009C01C901DF91CF911F910F91FF90EF9031
:102A1000DF90CF900895EF92FF920F931F937B0169
:102A20009A010027F7FC0095102FB801A701B5DF28
:102A30001F910F91FF90EF900895CF92DF92EF9248
:102A4000FF920F931F936C017B019A010027F7FC03
:102A50000095102FB801A701A0DF8C01C601CCDEC4
:102A6000080F191FC8011F910F91FF90EF90DF9081
:102A7000CF900895F8CE08957F928F929F92AF9253
:102A8000BF92CF92DF92EF92FF920F931F93CF935B
:102A9000DF934C017A018B01722ECB01BA01A801A0
:102AA000970130D3882321F0C4016AEC75E01FC080
:102AB000C0E0D0E057016801E894D7F8C601B5013D
:102AC0002FEF3FEF4FE75FE71DD3882349F4C6019F
:102AD000B5012FEF3FEF4FE75FE75ED1181614F017
:102AE000C1E0D0E0219731F0C4016EEC75E0BBDEAF
:102AF000EC0184C0C801B7012FEF3FEF4FE75FE45F
:102B00009AD218164CF0C801B7012FEF3FEF4FE7EC
:102B10005FEC42D1882324F4C40162ED75E0E7CF75
:102B2000C801B70120E030E040E050E035D187FD3A
:102B300003C0C0E0D0E00EC0D401ED91FC91019043
:102B4000F081E02DC4016DE21995EC0117FB1095A1
:102B500017F9109520E030E040E05FE3DD240AC083
:102B6000CA01B90120E030E040E251E419D19B01F3
:102B7000AC01D394D714A0F3C801B701A9D05B016D
:102B80006C017BD17B018C01C401B801A7012AE053
:102B900030E0E6DEC80FD91F772031F0C40166EDC2
:102BA00075E061DEC80FD91FC801B70192D19B0142
:102BB000AC01C601B5018BD01FC020E030E040E27F
:102BC00051E43DD27B018C0153D15B016C01CC24DB
:102BD000B7FCC094DC2CC401B601A5012AE030E0AA
:102BE000DCDEC80FD91FC601B50175D19B01AC0150
:102BF000C801B7016CD07A947720F9F6CE01DF9145
:102C0000CF911F910F91FF90EF90DF90CF90BF90E9
:102C1000AF909F908F907F9008952ECF0895EF9260
:102C2000FF920F931F937C011EDE8C01C701E4DD30
:102C3000080F191FC8011F910F91FF90EF90089581
:102C40002F923F924F925F926F927F928F929F92BC
:102C5000AF92BF92CF92DF92EF92FF920F931F93AA
:102C6000DF93CF93CDB7DEB73B014C0119012A01A9
:102C70006E897F89888D998D6A197B098C099D09D8
:102C8000621A730A840A950AA40193013FD2E218DA
:102C9000F30804091509A801970198D22A0D3B1DD4
:102CA0004C1D5D1DB901CA01CF91DF911F910F919C
:102CB000FF90EF90DF90CF90BF90AF909F908F905C
:102CC0007F906F905F904F903F902F900895505855
:102CD000BB27AA270ED075C166D130F06BD120F08A
:102CE00031F49F3F11F41EF45BC10EF4E095E7FB55
:102CF00051C1E92F77D180F3BA17620773078407B0
:102D0000950718F071F49EF58FC10EF4E0950B2E27
:102D1000BA2FA02D0B01B90190010C01CA01A0012D
:102D20001124FF27591B99F0593F50F4503E68F188
:102D30001A16F040A22F232F342F4427585FF3CFC9
:102D4000469537952795A795F0405395C9F77EF49A
:102D50001F16BA0B620B730B840BBAF09150A1F0E3
:102D6000FF0FBB1F661F771F881FC2F70EC0BA0F69
:102D7000621F731F841F48F4879577956795B795F1
:102D8000F7959E3F08F0B3CF9395880F08F09927E9
:102D9000EE0F979587950895D9D008F481E00895AE
:102DA0000CD00FC107D140F0FED030F021F45F3FCE
:102DB00019F0F0C0511139C1F3C014D198F399231F
:102DC000C9F35523B1F3951B550BBB27AA276217EF
:102DD0007307840738F09F5F5F4F220F331F441F34
:102DE000AA1FA9F333D00E2E3AF0E0E830D091506C
:102DF0005040E695001CCAF729D0FE2F27D0660F59
:102E0000771F881FBB1F261737074807AB07B0E897
:102E100009F0BB0B802DBF01FF2793585F4F2AF0AD
:102E20009E3F510568F0B6C000C15F3FECF3983E8D
:102E3000DCF3869577956795B795F7959F5FC9F70A
:102E4000880F911D9695879597F90895E1E0660F93
:102E5000771F881FBB1F621773078407BA0720F00C
:102E6000621B730B840BBA0BEE1F88F7E095089575
:102E700004D06894B111D9C00895BCD088F09F5790
:102E800090F0B92F9927B751A0F0D1F0660F771FB6
:102E9000881F991F1AF0BA95C9F712C0B13081F096
:102EA000C3D0B1E00895C0C0672F782F8827B85FDE
:102EB00039F0B93FCCF3869577956795B395D9F7F7
:102EC0003EF490958095709561957F4F8F4F9F4F01
:102ED0000895E89409C097FB3EF49095809570950D
:102EE00061957F4F8F4F9F4F9923A9F0F92F96E956
:102EF000BB279395F695879577956795B795F111CB
:102F0000F8CFFAF4BB0F11F460FF1BC06F5F7F4F67
:102F10008F4F9F4F16C0882311F096E911C0772379
:102F200021F09EE8872F762F05C0662371F096E882
:102F3000862F70E060E02AF09A95660F771F881F51
:102F4000DAF7880F9695879597F90895990F0008F5
:102F5000550FAA0BE0E8FEEF16161706E807F9076B
:102F6000C0F012161306E407F50798F0621B730B06
:102F7000840B950B39F40A2661F0232B242B252B87
:102F800021F408950A2609F4A140A6958FEF811D2A
:102F9000811D089597F99F6780E870E060E00895CB
:102FA0009FEF80EC089500240A9416161706180661
:102FB0000906089500240A9412161306140605063D
:102FC0000895092E0394000C11F4882352F0BB0FCE
:102FD00040F4BF2B11F460FF04C06F5F7F4F8F4F31
:102FE0009F4F089557FD9058440F551F59F05F3F6C
:102FF00071F04795880F97FB991F61F09F3F79F01B
:1030000087950895121613061406551FF2CF46959C
:10301000F1DF08C0161617061806991FF1CF86951E
:103020007105610508940895E894BB276627772702
:10303000CB0197F908958ADF08F48FEF08950BD03C
:10304000C0CFB1DF28F0B6DF18F0952309F0A2CF8A
:10305000A7CF1124EACFC6DFA0F3959FD1F3950F38
:1030600050E0551F629FF001729FBB27F00DB11D0C
:10307000639FAA27F00DB11DAA1F649F6627B00D9C
:10308000A11D661F829F2227B00DA11D621F739F85
:10309000B00DA11D621F839FA00D611D221F749F93
:1030A0003327A00D611D231F849F600D211D822FDA
:1030B000762F6A2F11249F5750408AF0E1F0882321
:1030C0004AF0EE0FFF1FBB1F661F771F881F91502E
:1030D0005040A9F79E3F510570F05CCFA6CF5F3FEF
:1030E000ECF3983EDCF3869577956795B795F79561
:1030F000E7959F5FC1F7FE2B880F911D96958795E9
:1031000097F9089523DF880B990B0895629FD001EA
:10311000739FF001829FE00DF11D649FE00DF11D92
:10312000929FF00D839FF00D749FF00D659FF00D41
:103130009927729FB00DE11DF91F639FB00DE11D2E
:10314000F91FBD01CF0111240895991B79E004C036
:10315000991F961708F0961B881F7A95C9F78095D6
:10316000089597FB092E07260AD077FD04D049D091
:1031700006D000201AF4709561957F4F0895F6F7F8
:10318000909581959F4F0895A1E21A2EAA1BBB1B13
:10319000FD010DC0AA1FBB1FEE1FFF1FA217B30723
:1031A000E407F50720F0A21BB30BE40BF50B661F39
:1031B000771F881F991F1A9469F7609570958095FD
:1031C00090959B01AC01BD01CF01089597FB092E9D
:1031D00005260ED057FD04D0D7DF0AD0001C38F4E6
:1031E00050954095309521953F4F4F4F5F4F089533
:1031F000F6F790958095709561957F4F8F4F9F4F13
:103200000895AA1BBB1B51E107C0AA1FBB1FA6172D
:10321000B70710F0A61BB70B881F991F5A95A9F77F
:1032200080959095BC01CD010895EE0FFF1F05908C
:0A323000F491E02D1994F894FFCFFB
:10323A004D4F57494E47004C41554E4348494E471A
:10324A0000545241434B494E4700444F434B494E69
:10325A0047004348415247494E4700444542554773
:10326A0000434F4E46494755524500535441525424
:10327A0055500049444C450053544F50004C454664
:10328A0054005249474854005374617274696E6716
:10329A00206375747465722E2E2E00436F6E6669F4
:1032AA00677572696E673A2046756C6C207468722D
:1032BA006F746C65202B2064656C617900436F6EB6
:1032CA006669677572696E673A203000536574746F
:1032DA00696E67206375747465725F73746174656F
:1032EA003D3000436F6E6669677572696E673A2092
:1032FA0033207365636F6E6473206C6F77002020D0
:10330A002D20536C6F772073746172740020202013
:10331A00202D200020202D204261636B696E6720DA
:10332A007570207769746820747769737420286FC0
:10333A006E6520776865656C20726564756365647F
:10334A00207370656564292000207365636F6E645D
:10335A00732E0020202D20446F6E65206261636BFE
:10336A00696E672075700020202D204261636B69A9
:10337A006E6720757020002A207265766572736503
:10338A00446972656374696F6E28290020202D20B4
:10339A006E65775F6C656674446972656374696F9C
:1033AA006E3A2000206E65775F72696768744469B7
:1033BA0072656374696F6E3A2000206C6566744D9D
:1033CA006F746F7253706565643A20002072696782
:1033DA0068744D6F746F7253706565643A2000208B
:1033EA00202D206C6566744D6F746F72537065651D
:1033FA00643A20006661756C74004572726F7220BF
:10340A006E756D6265723A200020202D20637574F6
:10341A007465725F73746174653A2000436F756EE8
:10342A007465723A2000204C4D6F743A2000205285
:10343A004D6F743A2000233A20002042433A20007C
:10344A00204C433A20002052433A2000204C4D6F32
:10345A00746F7253703A200020524D6F746F72531A
:10346A00703A2000204375747465723A2000204235
:10347A006174746572793A20002028005629002068
:10348A0053746174653A20002044656275673A2076
:10349A0000204368617267653A20004F4B004E4F27
:1034AA004B2100205243313A2000202F2000205285
:1034BA0043323A20003D3D3D3D3D3D3D3D3D3D3D94
:1034CA003D3D3D3D3D3D3D3D3D3D3D3D3D3D3D3D22
:1034DA003D3D3D3D3D3D3D3D3D3D3D3D3D3D3D3D12
:1034EA003D002A205374617274696E6720757000FA
:1034FA0020202D2053746F7070696E6720656E6787
:10350A00696E6573002A204D6F746F72206375723D
:10351A0072656E74207468726573686F6C64207269
:10352A006561636865640020202D2000436175672A
:10353A0068742073657269616C0020202D205265C1
:10354A006365697665643A200020202D20537461F2
:10355A007274696E6720726F626F740020202D206A
:10356A00526576657273696E6720726F626F740056
:10357A0020202D205475726E696E67206C65667402
:10358A000020202D205475726E696E67207269675B
:10359A0068740020202D20546F67676C652063755E
:1035AA00747465720020202D20546F67676C696EF1
:1035BA006720646562756720666C61670020202D4C
:1035CA0020546F67676C696E67207072696E742029
:1035DA00737461747573206F75747075740020202C
:1035EA002D2042756D700020202D2053746F70704D
:1035FA00696E6720726F626F74006E616E00696E29
:10360A0066006F7666002E00010000FE0002E7FFEA
:10361A001900E7FF190096000107004803B40520C6
:10362A000804005A05A406EE07FFFF0000E803EEAF
:10363A0007000000004F12D213E5111612F6113FCF
:02364A0012006C
:00000001FF
