:1000000003C100002EC100002CC100002AC1000065
:1000100028C1000026C1000024C1000022C1000048
:1000200020C100001EC100001CC100001AC1000058
:1000300018C1000016C1000014C1000012C1000068
:1000400010C100000C94690A0CC100000AC1000034
:1000500008C1000006C1000004C100000C94960A0B
:1000600000C100000C942D0E0C94710FFAC000001A
:10007000F8C00000F6C00000F4C00000F2C00000AC
:100080000C943C0AEEC00000ECC00000EAC0000086
:100090000C946D0E0C94B00FE4C00000E2C00000A0
:1000A000E0C00000DEC000000C940F0ADAC00000BF
:1000B000D8C00000D6C00000D4C000000C94E209F3
:1000C000D0C00000CEC00000CCC000000C94AD0E2B
:1000D0000C94EF0FC6C000000C94ED0E0C942E1083
:1000E000C0C0000000002100240027002A002D00CD
:1000F0003000330001010000040107010A01000083
:100100002200250028002B002E00310034000201BF
:100110000000050108010B0100002000230026005B
:1001200029002C002F00320000010000030106010D
:10013000090105050505070508080808020202026D
:100140000A0A080804040404010101010101010173
:100150000303030303030303040707070C0C0C0C3E
:100160000C0C0C0C02020202060606060606060627
:100170000B0B0B0B0B0B0B0B0102102020080810B4
:100180002040102040800201020108040201010207
:1001900004081020408080402010080402018004E0
:1001A000020180402010080402010804020101023B
:1001B0000408102040800102040810204080000044
:1001C000090A02080B0C0D070603040100000000D9
:1001D000000000000000000000000000000000001F
:1001E0000000000000000000000011100F000000DF
:1001F00000000000000000000000000000000000FF
:100200000000000032019D1111241FBECFEFD1E28A
:10021000DEBFCDBF00E00CBF15E0A0E0B2E0E6E538
:10022000F0E300E00BBF02C007900D92AA3FB107B8
:10023000D9F71BBE19E0AAEFB5E001C01D92A136A7
:10024000B107E1F712E0C8E0D2E004C02297FE0156
:100250000E942518C430D107C9F70E94D3120C940C
:100260002918CECE8AEF95E07CD68DE090E0909371
:100270001206809311068CE090E090931406809310
:1002800013068BE090E0909316068093150683E0AA
:1002900090E090931806809317068FEF9FEF90934E
:1002A0001A0680931906089580910B0690910C060A
:1002B0008530910509F446C0863091059CF4823062
:1002C000910589F18330910534F4009711F101977C
:1002D00009F05DC023C08330910551F1049709F006
:1002E00056C02BC088309105E1F1893091053CF46E
:1002F0008630910561F1079709F049C02DC08A3019
:100300009105C9F18A3091058CF10B9709F03FC036
:1003100038C089ED98E060E072E031C089ED98E086
:1003200067E072E02CC089ED98E061E172E027C0DF
:1003300089ED98E06AE172E022C089ED98E062E21E
:1003400072E01DC089ED98E06BE272E018C089EDA3
:1003500098E061E372E013C089ED98E06BE372E02E
:100360000EC089ED98E063E472E009C089ED98E081
:1003700068E472E004C089ED98E06DE472E00C94EA
:10038000481489ED98E062E572E00C9448140895F1
:100390008AEF95E06AE570E03AD610920606109270
:1003A00005060895CF93DF9387E090E090930C06C5
:1003B00080930B0689ED98E040E052EC61E070E03C
:1003C0000E946D1086E061E00E94AB0C80911106E6
:1003D00061E00E94AB0C8091130661E00E94AB0CBF
:1003E0008091150661E00E94AB0C8091170661E0D8
:1003F0000E94AB0C8AEF95E066E070E01ED780911A
:100400000B0690910C06069741F58AEF95E064EB98
:1004100070E0FDD589ED98E06BE672E00E941D1555
:1004200068EB7BE080E090E00E94DE0A89ED98E0D6
:100430006DE872E00E941D158AEF95E060E070E0C3
:10044000E6D568EB7BE080E090E00E94DE0A85E084
:1004500090E090930C0680930B0689ED98E06CE990
:1004600072E00E941D15109206061092050689ED95
:1004700098E063EB72E00E941D15C0E0D0E08AEFC7
:1004800095E06AE570E0C3D561E070E080E090E05F
:100490000E94DE0A21968BE0C83BD80781F7809145
:1004A000CF059091D0058739910534F086E990E029
:1004B0009093D0058093CF056BDF8091150668EC93
:1004C00070E00E94CD0B8091170668EC70E00E94EE
:1004D000CD0B8091110660E00E945E0D80911306A5
:1004E00060E00E945E0DDF91CF910895682F8091AA
:1004F00013060C945E0DCF93DF93EC0190930A06E4
:1005000080930906BC0197FF04C066277727681B04
:10051000790B809117060E94CD0B80E01C161D06FA
:100520000CF481E0E3DFDF91CF910895682F809193
:1005300011060C945E0DCF93DF93EC0190930806A7
:1005400080930706BC0197FF04C066277727681BC6
:10055000790B809115060E94CD0B80E01C161D06BC
:100560000CF481E0E3DFDF91CF910895CF93DF9327
:1005700089ED98E06EEC72E00E941D1589ED98E01F
:100580006DED72E00E944814C0E0D0E0CE01D3DFF0
:10059000CE01B1DF6FE070E080E090E00E94DE0A03
:1005A0002596CF3FD10591F78FEF90E0C4DF8FEF15
:1005B00090E0A1DFDF91CF91089580E090E0BBDF74
:1005C00080E090E098DF68EC70E080E090E0F6C7B3
:1005D000CF92DF92EF92FF920F931F938C0189EDE0
:1005E000C82E88E0D82EC60164EE72E00E9448143E
:1005F000C601B8014AE050E00E941914C60169E141
:1006000073E00E94481480E090E095DF80E090E085
:1006100072DF81E09FEF8FDF81E09FEF6CDFC80129
:1006200062E070E00E94BF177B010027F7FC009595
:10063000102FC801B701C2D78FEF90E05CDFC8016F
:10064000B701BCD780E090E076DF80E090E053DF38
:10065000C60163E273E00E941D1564E670E080E06D
:1006600090E0ACD71F910F91FF90EF90DF90CF906B
:1006700008954F925F926F927F928F929F92AF9266
:10068000BF92CF92DF92EF92FF920F931F93CF937F
:10069000DF9389ED98E067E473E00E941D15C09137
:1006A0000706D09108061C161D063CF051E0452EA9
:1006B000512C41E0642E712C06C044244A94542CE1
:1006C00066246A94762C89ED98E06CE573E00E94CC
:1006D000481489ED98E0B3014AE050E00E941914F3
:1006E00089ED98E064E773E00E94481489ED98E092
:1006F000B2014AE050E00E94191489ED98E06AE8DE
:1007000073E00E94481489ED98E0BE014AE050E091
:100710000E94191489ED98E06CE973E00E94481476
:1007200089ED98E0BE014AE050E00E94191489ED7D
:1007300098E00E940A137E01D7FF04C0F094E19470
:10074000F108F3944301880C991C880C991C860CC1
:10075000971C5201AA0CBB1CAA0CBB1CA40CB51CF8
:10076000CC24DD2400E010E0C0E0D0E0C801E3DEEE
:10077000CE01C1DE89ED98E06FEA73E00E94481473
:1007800089ED98E0B8014AE050E00E94191489ED23
:1007900098E06CE973E00E94481489ED98E0BE018E
:1007A0004AE050E00E94191489ED98E00E940A1373
:1007B0006FE070E080E090E001D785E090E0C80E47
:1007C000D91E080D191DCA0DDB1D9FEFC916D104D6
:1007D00069F66E9CC0016F9C900D7E9C900D11245B
:1007E000AADE4E9CC0014F9C900D5E9C900D112482
:1007F00082DEDF91CF911F910F91FF90EF90DF90FC
:10080000CF90BF90AF909F908F907F906F905F90B0
:100810004F900895CF92DF92EF92FF920F931F9324
:1008200079EDE72E78E0F72E6091050670910606C7
:10083000C7014AE050E00E942B1400910506109178
:10084000060681E090E00827192769EDC62E63E0CF
:10085000D62EC701B6010E9448146091050670911A
:100860000606C7014AE050E00E942B1410930606CA
:1008700000930506C701B6010E9448146091050661
:1008800070910606C7014AE050E00E942B141F91A8
:100890000F91FF90EF90DF90CF90089587E349C7C5
:1008A00086E347C70F931F9309ED18E0C8016CEE6C
:1008B00073E00E94481460910D0670910E06C80105
:1008C0004AE050E00E941914C80166EF73E00E94EC
:1008D0004814E6DFBC01C8014AE050E00E94CB1397
:1008E000C8016EEF73E00E944814D8DFBC01C80154
:1008F0004AE050E00E94CB13C8010E940A131F91E6
:100900000F91089588E315C7AF92BF92CF92DF92FF
:10091000EF92FF920F931F93DC01119700D00F927B
:10092000FD01EE0FFF1FE150FA4F608171818827B2
:1009300077FD8095982F03E0AA0FBB1F0A95E1F77A
:10094000FD01EC52FA4F20813181442737FD40955B
:10095000542FAE52BA4F1696ED90FC901797002781
:10096000F7FC0095102FFFEFAF2EB12CC12CD12C2E
:10097000EDB7FEB7A182B282C382D482E1E0AE2E8F
:10098000EFEFBE2EEFEFCE2EEFEFDE2E0E942E15F4
:100990000F900F900F900F906F3F710521F01CF09A
:1009A0006FEF70E006C0FFEF61307F0714F461E085
:1009B0007FEFCB011F910F91FF90EF90DF90CF90D1
:1009C000BF90AF9008958091CD059091CE0501978D
:1009D00009F014C189ED98E066E074E00E944814C3
:1009E00060910D0670910E0689ED98E04AE050E0A6
:1009F0000E94191489ED98E06AE074E00E9448149E
:100A00004FDFBC0189ED98E04AE050E00E94CB1333
:100A100089ED98E060E174E00E9448143FDFBC017A
:100A200089ED98E04AE050E00E94CB1389ED98E010
:100A300066E174E00E944814609107067091080610
:100A400089ED98E04AE050E00E94191489ED98E0A1
:100A500062E274E00E9448146091090670910A06EF
:100A600089ED98E04AE050E00E94191489ED98E081
:100A70006EE274E00E9448146091050670910606CB
:100A800089ED98E04AE050E00E94191489ED98E061
:100A900068E374E00E94481460910F06709110069C
:100AA00089ED98E04AE050E00E94191489ED98E041
:100AB00063E474E00E94481460910F067091100680
:100AC000882777FD8095982F0E94791620E030E0E6
:100AD0004CEA51E40E942D1720E030E040E85AE350
:100AE0000E942D17AB01BC0189ED98E022E030E0B7
:100AF0000E941B1589ED98E066E474E00E9448149A
:100B000089ED98E069E474E00E944814CDDB89ED3A
:100B100098E062E574E00E9448146091FD057091D0
:100B2000FE0589ED98E04AE050E00E94191489ED35
:100B300098E06BE574E00E94481460910F06709194
:100B40001006882777FD8095982F0E94791620E05F
:100B500030E849E054E40E94291718162CF489ED76
:100B600098E065E674E004C089ED98E068E674E01A
:100B70000E94481489ED98E06DE674E00E944814E4
:100B800081E090E0C1DEBC0189ED98E04AE050E0F0
:100B90000E94191489ED98E064E774E00E944814FB
:100BA0006091FF057091000689ED98E04AE050E001
:100BB0000E94191489ED98E068E774E00E944814D7
:100BC00082E090E0A1DEBC0189ED98E04AE050E0CF
:100BD0000E94191489ED98E064E774E00E944814BB
:100BE000609101067091020689ED98E04AE050E0BC
:100BF0000E94191489ED98E00C940A130895EF925D
:100C0000FF920F931F9309ED18E0C8010E940A1389
:100C10009FE7E92E94E0F92EC801B7010E941D1547
:100C2000C8016CEA74E00E941D15C801B7010E945A
:100C30001D15C8016AEB74E00E941D15C8016DED19
:100C400072E00E944814BFDE80E090E074DC80E037
:100C500090E051DC68EE73E080E090E0AFD41F914B
:100C60000F91FF90EF900895FC0123E0EE0FFF1F1E
:100C70002A95E1F7E653FA4F808161E028EA31E6F0
:100C800040E050E04DD7CB0108950F931F93CF93D1
:100C9000DF9338DE9093100680930F0681E090E09A
:100CA000E3DF909300068093FF0582E090E0DCDFB5
:100CB000909302068093010680910B0690910C069A
:100CC0008930910509F46FC08A3091054CF4853064
:100CD0009105A9F18730910581F1892B69F06AC0EE
:100CE0008B30910509F447C08B3091050CF434C06A
:100CF0000C9709F05FC011C08091FD059091FE0531
:100D0000892B09F057C0CCDD079720F4C7DD079782
:100D100008F450C08CE090E049C03ADB89ED98E0DF
:100D20006FEC74E00E941D158CED95E051DC1EDC2B
:100D300010920C0610920B063DC061DF35C0C0E07A
:100D4000D0E0B0DD64EF71E080E090E037D4219630
:100D5000CA30D105B1F72EC00091070610910806E0
:100D600080E090E0E8DB68EE73E080E090E026D47D
:100D7000C801E1DB0EC00091090610910A0680E06F
:100D800090E0B9DB68EE73E080E090E017D4C80132
:100D9000B2DB10920C0610920B0664E670E080E065
:100DA00090E00CD407C009DC88E090E090930C063A
:100DB00080930B0689ED98E00E94F310892B09F4CB
:100DC000B3C089ED98E00E942411082F89ED98E0C6
:100DD00061EF74E00E941D1589ED98E06FEF74E0FB
:100DE0000E94481489ED98E0602F0E942A1303376F
:100DF00099F480910B0690910C06892B09F4A8C0F8
:100E000089ED98E06EE075E00E941D1510920C06C9
:100E100010920B06ABDB88C0043679F480910B0688
:100E200090910C06892B09F07FC089ED98E061E272
:100E300075E00E941D151DDC77C00C3681F4809191
:100E40000B0690910C06892B09F06EC089ED98E095
:100E500065E375E00E941D158AE090E061C00237ED
:100E600081F480910B0690910C06892B09F05CC0EF
:100E700089ED98E066E475E00E941D158BE090E036
:100E80004FC0033699F480910B0690910C06892B84
:100E900009F04AC089ED98E068E575E00E941D15EB
:100EA000B9DC10920C0610920B063EC0043499F483
:100EB00089ED98E06AE675E00E941D158091FD05B8
:100EC0009091FE0521E030E0822793279093FE0564
:100ED0008093FD0529C0003799F489ED98E062E818
:100EE00075E00E941D158091CD059091CE0521E001
:100EF00030E0822793279093CE058093CD0514C0D0
:100F0000023691F480910B0690910C06892B61F4C6
:100F100089ED98E063EA75E00E941D158CE090E091
:100F200090930C0680930B064EDD80910D069091F8
:100F30000E06019690930E0680930D0664E670E00F
:100F400080E090E03BD3DF91CF911F910F91089506
:100F500089ED98E06CEA75E00E941D1589E090E04B
:100F6000DFCFFC0180911B06803390F480838F5F7C
:100F700080931B06815090E0FC01EE0FFF1FE80FED
:100F8000F91FE45EF94F88EB9BE09283818308951B
:100F90008FEF80830895FC0120812033B8F5818193
:100FA000992787FD909548E850E0481B590B440F5E
:100FB000551F440F551F6417750784F082819927C8
:100FC00087FD909548E552E0481B590B440F551F8B
:100FD000440F551F641775070CF4AB014250504085
:100FE000CA01AA2797FDA095BA2F880F991FAA1F9B
:100FF000BB1F4FB7F89430E0F901EE0FFF1FE20F6F
:10100000F31FE45EF94F928381834FBF0895AF923F
:10101000BF92CF92DF92EF92FF920F931F93CF93E5
:10102000DF93EC019B0182E0603278070CF048C04E
:1010300077FF03C020E030E005C0653B710514F088
:1010400024EB30E000D00F92B901882777FD80951E
:10105000982F2981332727FD3095E8E8AE2EB12C53
:10106000A21AB30AAA0CBB1CAA0CBB1CCC24B7FC4A
:10107000C094DC2CEA81FF27E7FDF09528E532E0FB
:101080002E1B3F0B220F331F220F331F442737FD28
:101090004095542FEDB7FEB72183328343835483A9
:1010A00020E030E040E050E004EBE02EF12C012D98
:1010B000112D0E942E159B010F900F900F900F90F5
:1010C000CE01B90168DFDF91CF911F910F91FF90A1
:1010D000EF90DF90CF90BF90AF900895CF92DF92C6
:1010E000EF92FF921F93CF93DF93EC01162F7A01BB
:1010F00069018881803308F092C0862F61E02BD48B
:10110000888190E0FC01EE0FFF1FE80FF91FE45EFD
:10111000F94F1F738081807C812B808380E292E075
:101120008E199F0964E070E00E94BF17698380E612
:1011300099E08C199D0964E070E00E94BF176A83F2
:10114000A8818A2F6CE00E94B317682F70E0AB0172
:10115000440F551F460F571F440F551F440F551F6F
:1011600020E030E0C901840F951FFC01EE0FFF1F46
:10117000E80FF91FE45EF94F808186FD44C02F5FC0
:101180003F4F2C30310571F753C01092800082E040
:10119000809381001092850010928400B19A809112
:1011A0006F00826080936F002EC06230710569F419
:1011B0001092900082E0809391001092950010921E
:1011C000940088BB809371001EC06330710569F480
:1011D0001092A00082E08093A1001092A5001092CE
:1011E000A40089BB809372000EC0672B61F410923B
:1011F000200182E0809321011092250110922401A8
:101200008ABB809373008A2F90E0FC01EE0FFF1FD2
:10121000E80FF91FE45EF94F808180648083888144
:10122000DF91CF911F91FF90EF90DF90CF900895C5
:101230006130710509F0B9CFA8CF40E252E020E655
:1012400039E04CCFEF92FF920F931F93CF93DF9330
:101250008B017A01EC01DC01A455B94F8C9187FF19
:1012600004C0FB011182108236C0AE01440F551F2D
:101270004C0F5D1F440F551F440F551F2C913327F2
:1012800027FD3095240F351F80911B0690E028170D
:1012900039070CF58C91992787FD9095840F951F40
:1012A000FC01EE0FFF1FE80FF91FE45EF94F80818C
:1012B00086FF11C08C91992787FD9095840F951F0B
:1012C000FC01EE0FFF1FE80FF91FE45EF94F80816C
:1012D0008F7360E0F3D3DE01A455B94F8C918F5F1B
:1012E0008C93AE01440F551F4C0F5D1F440F551FCB
:1012F000440F551F2C91332727FD3095240F351FA0
:1013000080911B0690E0281739070CF04CC08C9197
:101310008C300CF048C0F801208131818C919927E4
:1013200087FD9095840F951FFC01EE0FFF1FE80FBE
:10133000F91FE45EF94F81819281280F391FF7016F
:10134000318320838C91992787FD9095840F951F79
:10135000FC01EE0FFF1FE80FF91FE45EF94F8081DB
:1013600086FF29C08C91992787FD9095840F951F42
:10137000FC01EE0FFF1FE80FF91FE45EF94F8081BB
:101380008F7361E09BD317C080E49CE904C0F8012F
:10139000808191810496F70191838083C455D94F50
:1013A0008FEF888308C0F801808191810496805472
:1013B0009C4950F3ECCFDF91CF911F910F91FF909B
:1013C000EF9008951F920F920FB60F920BB60F92E7
:1013D00011242F933F934F935F936F937F938F933A
:1013E0009F93AF93BF93EF93FF9380E090E064E20D
:1013F00071E048E251E026DFFF91EF91BF91AF919C
:101400009F918F917F916F915F914F913F912F911C
:101410000F900BBE0F900FBE0F901F9018951F924C
:101420000F920FB60F920BB60F9211242F933F938A
:101430004F935F936F937F938F939F93AF93BF93DC
:10144000EF93FF9383E090E064EA70E048EA50E0B5
:10145000F9DEFF91EF91BF91AF919F918F917F91B5
:101460006F915F914F913F912F910F900BBE0F9015
:101470000FBE0F901F9018951F920F920FB60F92EC
:101480000BB60F9211242F933F934F935F936F935B
:101490007F938F939F93AF93BF93EF93FF9382E0DC
:1014A00090E064E970E048E950E0CCDEFF91EF9114
:1014B000BF91AF919F918F917F916F915F914F916C
:1014C0003F912F910F900BBE0F900FBE0F901F906A
:1014D00018951F920F920FB60F920BB60F92112410
:1014E0002F933F934F935F936F937F938F939F932C
:1014F000AF93BF93EF93FF9381E090E064E870E0D7
:1015000048E850E09FDEFF91EF91BF91AF919F912E
:101510008F917F916F915F914F913F912F910F909C
:101520000BBE0F900FBE0F901F9018951F920F9239
:101530000FB60F9211242F933F938F939F93AF93E6
:10154000BF938091B4069091B506A091B606B09174
:10155000B7063091B8060196A11DB11D232F2D5F4E
:101560002D3720F02D570196A11DB11D2093B806EF
:101570008093B4069093B506A093B606B093B706D1
:101580008091B0069091B106A091B206B091B306D9
:101590000196A11DB11D8093B0069093B106A09352
:1015A000B206B093B306BF91AF919F918F913F91D7
:1015B0002F910F900FBE0F901F9018959B01AC01BB
:1015C0007FB7F8948091B0069091B106A091B206D1
:1015D000B091B30666B5A89B05C06F3F19F00196A0
:1015E000A11DB11D7FBFBA2FA92F982F8827860F65
:1015F000911DA11DB11D62E0880F991FAA1FBB1F7D
:101600006A95D1F7BC012DC0FFB7F8948091B00660
:101610009091B106A091B206B091B306E6B5A89B31
:1016200005C0EF3F19F00196A11DB11DFFBFBA2FF4
:10163000A92F982F88278E0F911DA11DB11DE2E0C3
:10164000880F991FAA1FBB1FEA95D1F7861B970B1E
:10165000885E9340C8F2215030404040504068516D
:101660007C4F211531054105510571F60895789497
:1016700084B5826084BD84B5816084BD85B5826097
:1016800085BD85B5816085BDEEE6F0E08081816035
:101690008083E1E8F0E01082808182608083808135
:1016A00081608083E0E8F0E0808181608083E1EB0D
:1016B000F0E0808184608083E0EBF0E080818160F5
:1016C0008083E1E9F0E080818260808380818160B5
:1016D0008083E0E9F0E0808181608083E1EAF0E0EE
:1016E000808182608083808181608083E0EAF0E095
:1016F000808181608083E1E2F1E08081826080838B
:10170000808181608083E0E2F1E08081816080837C
:10171000EAE7F0E08081846080838081826080835A
:101720008081816080838081806880831092C10085
:101730000895382F863308F0365320917B00832F8D
:1017400086958695869590E08170907043E0880F2D
:10175000991F4A95E1F7277F282B20937B0037704C
:101760008091D1058295880F880F807C832B809390
:101770007C0080917A00806480937A0080917A0066
:1017800086FDFCCF2091780040917900942F80E075
:1017900030E0282B392BC90108951F93CF93DF9395
:1017A000182FEB0161E0D7D0209709F4CAC0CF3FD2
:1017B000D10509F4C9C0E12FF0E0E254FE4F849155
:1017C000893009F466C08A30B0F48430F1F1853094
:1017D00040F4823059F1833070F5813009F0AEC0A9
:1017E00020C0873009F443C0883008F048C08630F4
:1017F00009F0A4C034C08D3009F478C08E3038F4BC
:101800008B3009F45AC08C3008F066C04CC080316F
:1018100009F480C0813109F487C08F3009F08EC08F
:101820006FC084B5806884BDC7BD91C084B5806237
:1018300084BDC8BD8CC0809180008068809380008A
:10184000D0938900C093880082C08091800080621C
:1018500080938000D0938B00C0938A0078C08091E1
:10186000B00080688093B000C093B30070C08091D6
:10187000B00080628093B000C093B40068C08091D3
:101880009000806880939000D0939900C093980056
:101890005EC080919000806280939000D0939B0006
:1018A000C0939A0054C0809190008860809390000B
:1018B000D0939D00C0939C004AC08091A000806896
:1018C0008093A0008091A0008F7B8093A000D09394
:1018D000A900C093A8003BC08091A00080628093C3
:1018E000A000D093AB00C093AA0031C08091A000AB
:1018F00088608093A000D093AD00C093AC0027C057
:1019000080912001806880932001D0932901C093A9
:1019100028011DC080912001806280932001D09316
:101920002B01C0932A0113C080912001886080930D
:101930002001D0932D01C0932C0109C0C038D105DE
:101940001CF4812F60E002C0812F61E0B7D0DF91ED
:10195000CF911F910895CF93DF93482F50E0CA0194
:1019600088589E4FFC0134914E5C5E4FFA01849181
:10197000882369F190E0880F991FFC01EC51FF4F1B
:10198000A591B491FC01E250FF4FC591D49166231B
:1019900051F42FB7F8948C91932F909589238C93C1
:1019A000888189230BC0623061F42FB7F8948C9141
:1019B000932F909589238C938881832B88832FBFC5
:1019C00006C09FB7F8948C91832B8C939FBFDF91B7
:1019D000CF910895893009F449C08A30A0F4843049
:1019E00051F1853040F4823079F1833000F5813057
:1019F00009F063C026C0873079F1883098F58630C9
:101A000009F05BC025C08D3009F442C08E3028F447
:101A10008B30B1F18C30C0F52DC0803109F442C05B
:101A2000813109F445C08F3009F047C037C080913B
:101A300080008F7703C0809180008F7D809380002D
:101A4000089584B58F7702C084B58F7D84BD0895D5
:101A50008091B0008F7703C08091B0008F7D80931C
:101A6000B0000895809190008F7707C0809190001A
:101A70008F7D03C080919000877F809390000895B0
:101A80008091A0008F7707C08091A0008F7D03C058
:101A90008091A000877F8093A0000895809120010D
:101AA0008F7703C0809120018F7D8093200108955E
:101AB00080912001877F809320010895FF920F93EA
:101AC0001F93F62E482F50E0CA0182549E4FFC010E
:101AD0002491CA0188589E4FFC0114914E5C5E4FC0
:101AE000FA0104910023C1F0222311F0822F72DF4A
:101AF000E02FF0E0EE0FFF1FE250FF4FA591B491F1
:101B00009FB7F894FF2021F48C911095812302C097
:101B10008C91812B8C939FBF1F910F91FF90089503
:101B20008F929F92AF92BF92CF92DF92EF92FF92ED
:101B30000F931F93CF93DF93A82FB0E0CD01885868
:101B40009E4FFC018490AE5CBE4FFD0184916623E4
:101B500011F4992401C0982C6FEFA62E6FEFB62ECA
:101B60006FEFC62E6FE0D62EA222B322C422D5225A
:101B7000682F70E0660F771F685E7E4FEE24FF24AB
:101B80008701FB01A591B4910BC0EA14FB040C057D
:101B90001D0509F44EC00894E11CF11C011D111D26
:101BA0008C918821891589F30CC0EA14FB040C057B
:101BB0001D0509F43EC00894E11CF11C011D111D16
:101BC00003C0FB01A591B4918C918821891569F717
:101BD00020E030E040E050E0FB01C591D4910FC01F
:101BE000DA01C9018E0D9F1DA01FB11F8A159B052B
:101BF000AC05BD05F1F02F5F3F4F4F4F5F4F888120
:101C00008821891569F3CA01B90125E130E040E076
:101C100050E00E9494179B01AC01205F3F4F4F4F53
:101C20005F4F84E056954795379527958A95D1F76C
:101C300004C020E030E040E050E0B901CA01DF918B
:101C4000CF911F910F91FF90EF90DF90CF90BF90B9
:101C5000AF909F908F90089508951F920F920FB6A6
:101C60000F920BB60F9211242F933F934F938F93A4
:101C70009F93EF93FF938091C00082FD1DC0409120
:101C8000C6002091F9063091FA062F5F3F4F2F735F
:101C900030708091FB069091FC062817390771F08F
:101CA000E091F906F091FA06E754F94F408330933A
:101CB000FA062093F90602C08091C600FF91EF91C9
:101CC0009F918F914F913F912F910F900BBE0F904D
:101CD0000FBE0F901F90189508951F920F920FB688
:101CE0000F920BB60F9211242F933F934F938F9324
:101CF0009F93EF93FF938091C80082FD1DC0409198
:101D0000CE0020918107309182072F5F3F4F2F73C4
:101D1000307080918307909184072817390771F0FC
:101D2000E0918107F0918207EF5BF84F4083309399
:101D300082072093810702C08091CE00FF91EF912E
:101D40009F918F914F913F912F910F900BBE0F90CC
:101D50000FBE0F901F90189508951F920F920FB607
:101D60000F920BB60F9211242F933F934F938F93A3
:101D70009F93EF93FF938091D00082FD1DC040910F
:101D8000D6002091090830910A082F5F3F4F2F732A
:101D9000307080910B0890910C082817390771F06A
:101DA000E0910908F0910A08E753F84F4083309317
:101DB0000A082093090802C08091D600FF91EF9194
:101DC0009F918F914F913F912F910F900BBE0F904C
:101DD0000FBE0F901F90189508951F920F920FB687
:101DE0000F920BB60F9211242F933F934F938F9323
:101DF0009F93EF93FF938091300182FD1DC040912E
:101E0000360120919108309192082F5F3F4F2F7338
:101E1000307080919308909194082817390771F0D9
:101E2000E0919108F0919208EF5AF74F4083309378
:101E300092082093910802C080913601FF91EF91A2
:101E40009F918F914F913F912F910F900BBE0F90CB
:101E50000FBE0F901F901895E091E508F091E608ED
:101E6000E05CFF4F8191919120813181821B930B26
:101E70008F739070892B09F0EFDEE0910709F091E4
:101E80000809E05CFF4F8191919120813181821B93
:101E9000930B8F739070892B09F01EDFE091290955
:101EA000F0912A09E05CFF4F81919191208131816D
:101EB000821B930B8F739070892B09F04DDFE0919B
:101EC0004B09F0914C09E05CFF4F81919191208189
:101ED0003181821B930B8F739070892B09F07CCF1B
:101EE00008951F920F920FB60F920BB60F92112406
:101EF0002F933F938F939F93EF93FF9320913D07F1
:101F000030913E0780913F0790914007281739078D
:101F100031F48091C1008F7D8093C10014C0E091A5
:101F20003F07F0914007E350F94F208180913F0730
:101F30009091400701968F73907090934007809323
:101F40003F072093C600FF91EF919F918F913F91A2
:101F50002F910F900BBE0F900FBE0F901F901895F2
:101F60001F920F920FB60F920BB60F9211242F9360
:101F70003F938F939F93EF93FF932091C5073091E9
:101F8000C6078091C7079091C8072817390731F411
:101F90008091C9008F7D8093C90014C0E091C7076C
:101FA000F091C807EB57F84F20818091C7079091B7
:101FB000C80701968F7390709093C8078093C707E6
:101FC0002093CE00FF91EF919F918F913F912F91A0
:101FD0000F900BBE0F900FBE0F901F9018951F9281
:101FE0000F920FB60F920BB60F9211242F933F93BF
:101FF0008F939F93EF93FF9320914D0830914E085C
:1020000080914F08909150082817390731F480913A
:10201000D1008F7D8093D10014C0E0914F08F091E2
:102020005008E35FF74F208180914F08909150084E
:1020300001968F7390709093500880934F0820936F
:10204000D600FF91EF919F918F913F912F910F902B
:102050000BBE0F900FBE0F901F9018951F920F92FE
:102060000FB60F920BB60F9211242F933F938F93BD
:102070009F93EF93FF932091D5083091D6088091DC
:10208000D7089091D8082817390731F48091310189
:102090008F7D8093310114C0E091D708F091D8086A
:1020A000EB56F74F20818091D7089091D808019680
:1020B0008F7390709093D8088093D708209336013F
:1020C000FF91EF919F918F913F912F910F900BBEB8
:1020D0000F900FBE0F901F901895AF92BF92DF9296
:1020E000EF92FF920F931F93CF93DF93EC017A014E
:1020F0008B01DD24403081EE580780E0680780E0E6
:10210000780711F0DD24D39491E0A92EB12CEC894D
:10211000FD89DD2069F0C50108A002C0880F991F64
:102120000A94E2F7808360E079E08DE390E005C0F7
:10213000108260E874E88EE190E0A801970132D740
:10214000215030404040504056954795379527954F
:1021500080E12030380720F0DD2011F0DD24D7CFDA
:10216000E889F9893083EA89FB89208319A2EE89FD
:10217000FF89408121E030E0C9010C8C02C0880F4A
:10218000991F0A94E2F7482B4083EE89FF8940812A
:10219000C9010D8C02C0880F991F0A94E2F7482BE1
:1021A0004083EE89FF894081C9010E8C02C0880FEF
:1021B000991F0A94E2F7482B4083EE89FF898081BA
:1021C0000F8C02C0220F331F0A94E2F720952823B8
:1021D0002083DF91CF911F910F91FF90EF90DF90BF
:1021E000BF90AF900895DC011C96ED91FC911D9776
:1021F000E05CFF4F2191319180819181281B390B47
:102200002F733070C9010895DC011C96ED91FC918B
:102210001D97E05CFF4F20813181E054F040DF01E9
:10222000AE5BBF4F8D919C9111972817390719F418
:102230002FEF3FEF07C08D919C91E80FF91F808130
:10224000282F30E0C9010895DC011C96ED91FC9126
:102250001D97E05CFF4F20813181E054F040DF01A9
:10226000AE5BBF4F8D919C9111972817390719F4D8
:102270002FEF3FEF10C08D919C911197E80FF91F40
:1022800020818D919C91119701968F73907011967A
:102290009C938E9330E0C9010895DC0191968C9156
:1022A0009197882339F05496ED91FC915597808150
:1022B00086FFF9CF91961C920895CF93DF93EC019E
:1022C000EE85FF85E05CFF4F20813181E054F040D6
:1022D0002F5F3F4F2F733070DF01AE5BBF4F8D918B
:1022E0009C91119728173907D1F3E05CFF4F80814B
:1022F0009181E054F040E80FF91F6083EE85FF857F
:10230000E05CFF4F31832083EE89FF89208181E0EB
:1023100090E00F8C02C0880F991F0A94E2F7282BD7
:10232000208381E089A3EC89FD898081806480839A
:1023300081E090E0DF91CF9108951F931092DC0827
:102340001092DB0828EE33E040E050E02093DD08F7
:102350003093DE084093DF085093E0086EEE75E09E
:102360007093DA086093D90889EB96E09093E608B9
:102370008093E5088DEF96E09093E8088093E70856
:1023800085EC90E09093EA088093E90884EC90E073
:102390009093EC088093EB0880EC90E09093EE082B
:1023A0008093ED0881EC90E09093F0088093EF0823
:1023B00082EC90E09093F2088093F10886EC90E034
:1023C0009093F4088093F30814E01093F508B3E0B9
:1023D000B093F608A7E0A093F708F5E0F093F808AB
:1023E000E1E0E093F9081092FE081092FD082093B6
:1023F000FF0830930009409301095093020970933C
:10240000FC086093FB0881E497E0909308098093AF
:10241000070985E897E090930A09809309098DECF4
:1024200090E090930C0980930B098CEC90E09093D2
:102430000E0980930D0988EC90E090931009809329
:102440000F0989EC90E090931209809311098AECAE
:1024500090E090931409809313098EEC90E0909390
:1024600016098093150910931709B0931809A093C2
:102470001909F0931A09E0931B0910922009109290
:102480001F09209321093093220940932309509377
:10249000240970931E0960931D0989EC97E09093BD
:1024A0002A09809329098DE098E090932C09809364
:1024B0002B0985ED90E090932E0980932D0984EDF2
:1024C00090E09093300980932F0980ED90E09093F5
:1024D00032098093310981ED90E090933409809323
:1024E000330982ED90E0909336098093350986EDAB
:1024F00090E0909338098093370910933909B0938D
:102500003A09A0933B09F0933C09E0933D091092EE
:1025100042091092410920934309309344094093A2
:102520004509509346097093400960933F0981E53E
:1025300098E090934C0980934B0985E998E090933B
:102540004E0980934D0985E391E090935009809363
:102550004F0984E391E0909352098093510980E3FD
:1025600091E0909354098093530981E391E0909313
:1025700056098093550982E391E09093580980931E
:10258000570986E391E090935A0980935909109373
:102590005B09B0935C09A0935D09F0935E09E09339
:1025A0005F091F910895CF93DF9361D80E94D201F4
:1025B000CCE2DFE00E9445062097E1F34DDCFACF44
:1025C000CF92DF92EF92FF920F931F93CF93DF93FF
:1025D0007C016B018A01C0E0D0E00FC0D6016D9193
:1025E0006D01D701ED91FC910190F081E02DC701C3
:1025F0001995C80FD91F015010400115110571F729
:10260000CE01DF91CF911F910F91FF90EF90DF905E
:10261000CF900895EF92FF920F931F938C01DC01EE
:10262000ED91FC910190F081E02D6DE019957C0118
:10263000D801ED91FC910190F081E02DC8016AE094
:1026400019959C012E0D3F1DC9011F910F91FF90FF
:10265000EF900895EF92FF920F931F937C01DC019E
:10266000ED91FC910190F081E02D19958C01C7014D
:10267000D1DF080F191FC8011F910F91FF90EF9034
:102680000895CF93DF93EC016115710519F420E0F3
:1026900030E00FC0DB010D900020E9F71197A61B79
:1026A000B70BE881F9810280F381E02DAD01199526
:1026B0009C01C901DF91CF9108954F925F927F9263
:1026C0008F929F92AF92BF92CF92DF92EF92FF9242
:1026D0000F931F93DF93CF93CDB7DEB7A1970FB6BC
:1026E000F894DEBF0FBECDBF2C01742ECB0122307B
:1026F00008F42AE019A231E2C32ED12CCC0EDD1E43
:10270000822E9924AA24BB24672D752FA50194013C
:1027100049D479018A01C801B701A501940104D403
:10272000472D461B0894C108D1084A3014F4405D77
:1027300001C0495CF6014083E114F1040105110573
:1027400021F07E2C5F2DC801DFCFC201B60199DFD9
:10275000A1960FB6F894DEBF0FBECDBFCF91DF912B
:102760001F910F91FF90EF90DF90CF90BF90AF90AF
:102770009F908F907F905F904F900895DC0121157E
:10278000310541F4ED91FC910190F081E02D642F31
:102790001995089592CFEF92FF920F931F939A018C
:1027A0007B0100E010E0B801A701E8DF1F910F9165
:1027B000FF90EF900895CF92DF92EF92FF920F93E8
:1027C0001F93CF93DF93EC016A017B012115310543
:1027D00041F4E881F9810190F081E02D642F199591
:1027E0001DC02A303105C9F477FF16C0E881F98190
:1027F0000190F081E02D6DE219958C014427552759
:10280000BA014C195D096E097F09CE012AE055DF36
:102810009801280F391F03C02AE04FDF9C01C9012E
:10282000DF91CF911F910F91FF90EF90DF90CF90AC
:102830000895EF92FF920F931F937B019A01002757
:10284000F7FC0095102FB801A701B5DF1F910F917C
:10285000FF90EF900895CF92DF92EF92FF920F9347
:102860001F936C017B019A010027F7FC0095102F44
:10287000B801A701A0DF8C01C601CCDE080F191F2B
:10288000C8011F910F91FF90EF90DF90CF900895B6
:10289000F8CE08957F928F929F92AF92BF92CF927F
:1028A000DF92EF92FF920F931F93CF93DF934C0130
:1028B0007A018B01722ECB01BA01A801970130D3A6
:1028C000882321F0C4016FEB75E01FC0C0E0D0E0A9
:1028D00057016801E894D7F8C601B5012FEF3FEF23
:1028E0004FE75FE71DD3882349F4C601B5012FEFF9
:1028F0003FEF4FE75FE75ED1181614F0C1E0D0E07C
:10290000219731F0C40163EC75E0BBDEEC0184C0BB
:10291000C801B7012FEF3FEF4FE75FE49AD21816D7
:102920004CF0C801B7012FEF3FEF4FE75FEC42D10A
:10293000882324F4C40167EC75E0E7CFC801B70130
:1029400020E030E040E050E035D187FD03C0C0E03A
:10295000D0E00EC0D401ED91FC910190F081E02D0A
:10296000C4016DE21995EC0117FB109517F910954C
:1029700020E030E040E05FE3DD240AC0CA01B90195
:1029800020E030E040E251E419D19B01AC01D39446
:10299000D714A0F3C801B701A9D05B016C017BD1AA
:1029A0007B018C01C401B801A7012AE030E0E6DE1A
:1029B000C80FD91F772031F0C4016BEC75E061DEE0
:1029C000C80FD91FC801B70192D19B01AC01C60144
:1029D000B5018BD01FC020E030E040E251E43DD291
:1029E0007B018C0153D15B016C01CC24B7FCC094FA
:1029F000DC2CC401B601A5012AE030E0DCDEC80F02
:102A0000D91FC601B50175D19B01AC01C801B70141
:102A10006CD07A947720F9F6CE01DF91CF911F9197
:102A20000F91FF90EF90DF90CF90BF90AF909F906D
:102A30008F907F9008952ECF0895EF92FF920F937D
:102A40001F937C011EDE8C01C701E4DD080F191FF6
:102A5000C8011F910F91FF90EF9008952F923F9220
:102A60004F925F926F927F928F929F92AF92BF929E
:102A7000CF92DF92EF92FF920F931F93DF93CF934A
:102A8000CDB7DEB73B014C0119012A016E897F8960
:102A9000888D998D6A197B098C099D09621A730AC0
:102AA000840A950AA40193013FD2E218F3080409AD
:102AB0001509A801970198D22A0D3B1D4C1D5D1DDB
:102AC000B901CA01CF91DF911F910F91FF90EF9053
:102AD000DF90CF90BF90AF909F908F907F906F903E
:102AE0005F904F903F902F9008955058BB27AA2792
:102AF0000ED075C166D130F06BD120F031F49F3F1C
:102B000011F41EF45BC10EF4E095E7FB51C1E92F0F
:102B100077D180F3BA17620773078407950718F017
:102B200071F49EF58FC10EF4E0950B2EBA2FA02DF7
:102B30000B01B90190010C01CA01A0011124FF276A
:102B4000591B99F0593F50F4503E68F11A16F04065
:102B5000A22F232F342F4427585FF3CF4695379564
:102B60002795A795F0405395C9F77EF41F16BA0B29
:102B7000620B730B840BBAF09150A1F0FF0FBB1FD7
:102B8000661F771F881FC2F70EC0BA0F621F731F20
:102B9000841F48F4879577956795B795F7959E3F7D
:102BA00008F0B3CF9395880F08F09927EE0F97950B
:102BB00087950895D9D008F481E008950CD00FC10D
:102BC00007D140F0FED030F021F45F3F19F0F0C0A3
:102BD000511139C1F3C014D198F39923C9F3552386
:102BE000B1F3951B550BBB27AA2762177307840700
:102BF00038F09F5F5F4F220F331F441FAA1FA9F3B6
:102C000033D00E2E3AF0E0E830D091505040E695A7
:102C1000001CCAF729D0FE2F27D0660F771F881F08
:102C2000BB1F261737074807AB07B0E809F0BB0BF7
:102C3000802DBF01FF2793585F4F2AF09E3F51051B
:102C400068F0B6C000C15F3FECF3983EDCF38695B8
:102C500077956795B795F7959F5FC9F7880F911D91
:102C60009695879597F90895E1E0660F771F881F7D
:102C7000BB1F621773078407BA0720F0621B730B30
:102C8000840BBA0BEE1F88F7E095089504D0689482
:102C9000B111D9C00895BCD088F09F5790F0B92FDA
:102CA0009927B751A0F0D1F0660F771F881F991FA1
:102CB0001AF0BA95C9F712C0B13081F0C3D0B1E0B3
:102CC0000895C0C0672F782F8827B85F39F0B93FC3
:102CD000CCF3869577956795B395D9F73EF49095A3
:102CE0008095709561957F4F8F4F9F4F0895E89421
:102CF00009C097FB3EF490958095709561957F4F44
:102D00008F4F9F4F9923A9F0F92F96E9BB279395F1
:102D1000F695879577956795B795F111F8CFFAF401
:102D2000BB0F11F460FF1BC06F5F7F4F8F4F9F4F32
:102D300016C0882311F096E911C0772321F09EE890
:102D4000872F762F05C0662371F096E8862F70E0F6
:102D500060E02AF09A95660F771F881FDAF7880FD0
:102D60009695879597F90895990F0008550FAA0B26
:102D7000E0E8FEEF16161706E807F907C0F012168E
:102D80001306E407F50798F0621B730B840B950B91
:102D900039F40A2661F0232B242B252B21F40895E6
:102DA0000A2609F4A140A6958FEF811D811D089583
:102DB00097F99F6780E870E060E008959FEF80ECEE
:102DC000089500240A941616170618060906089591
:102DD00000240A9412161306140605060895092EF7
:102DE0000394000C11F4882352F0BB0F40F4BF2B66
:102DF00011F460FF04C06F5F7F4F8F4F9F4F0895A6
:102E000057FD9058440F551F59F05F3F71F047959B
:102E1000880F97FB991F61F09F3F79F08795089580
:102E2000121613061406551FF2CF4695F1DF08C09F
:102E3000161617061806991FF1CF869571056105BC
:102E400008940895E894BB2766277727CB0197F964
:102E500008958ADF08F48FEF08950BD0C0CFB1DF5B
:102E600028F0B6DF18F0952309F0A2CFA7CF1124E0
:102E7000EACFC6DFA0F3959FD1F3950F50E0551F21
:102E8000629FF001729FBB27F00DB11D639FAA27BF
:102E9000F00DB11DAA1F649F6627B00DA11D661F0E
:102EA000829F2227B00DA11D621F739FB00DA11D2F
:102EB000621F839FA00D611D221F749F3327A00DE9
:102EC000611D231F849F600D211D822F762F6A2F85
:102ED00011249F5750408AF0E1F088234AF0EE0F0A
:102EE000FF1FBB1F661F771F881F91505040A9F717
:102EF0009E3F510570F05CCFA6CF5F3FECF3983E4C
:102F0000DCF3869577956795B795F795E7959F5F7D
:102F1000C1F7FE2B880F911D9695879597F9089517
:102F200023DF880B990B0895629FD001739FF001F6
:102F3000829FE00DF11D649FE00DF11D929FF00D49
:102F4000839FF00D749FF00D659FF00D9927729F80
:102F5000B00DE11DF91F639FB00DE11DF91FBD010B
:102F6000CF0111240895991B79E004C0991F961789
:102F700008F0961B881F7A95C9F78095089597FBEE
:102F8000092E07260AD077FD04D049D006D00020AC
:102F90001AF4709561957F4F0895F6F79095819595
:102FA0009F4F0895A1E21A2EAA1BBB1BFD010DC065
:102FB000AA1FBB1FEE1FFF1FA217B307E407F507E9
:102FC00020F0A21BB30BE40BF50B661F771F881FC5
:102FD000991F1A9469F760957095809590959B015B
:102FE000AC01BD01CF01089597FB092E05260ED037
:102FF00057FD04D0D7DF0AD0001C38F45095409517
:10300000309521953F4F4F4F5F4F0895F6F79095BC
:103010008095709561957F4F8F4F9F4F0895AA1BA4
:10302000BB1B51E107C0AA1FBB1FA617B70710F0B3
:10303000A61BB70B881F991F5A95A9F780959095E5
:10304000BC01CD010895EE0FFF1F0590F491E02D16
:063050001994F894FFCF73
:103056004D4F57494E47004C41554E4348494E4700
:1030660000545241434B494E4700444F434B494E4F
:1030760047004348415247494E4700444542554759
:1030860000434F4E4649475552450053544152540A
:1030960055500049444C450053544F50004C45464A
:1030A60054005249474854005374617274696E67FC
:1030B600206375747465722E2E2E00436F6E6669DA
:1030C600677572696E673A2046756C6C2074687213
:1030D6006F746C65202B2064656C617900436F6E9C
:1030E6006669677572696E673A2030005365747455
:1030F600696E67206375747465725F737461746555
:103106003D3000436F6E6669677572696E673A2077
:1031160033207365636F6E6473206C6F77002020B5
:103126002D20536C6F7720737461727400202020F9
:10313600202D200020202D204261636B696E6720C0
:103146007570207769746820747769737420286FA6
:103156006E6520776865656C207265647563656465
:10316600207370656564292000207365636F6E6443
:10317600732E0020202D20446F6E65206261636BE4
:10318600696E672075700020202D204261636B698F
:103196006E6720757020002A2072657665727365E9
:1031A600446972656374696F6E28290020202D209A
:1031B6006E65775F6C656674446972656374696F82
:1031C6006E3A2000206E65775F726967687444699D
:1031D60072656374696F6E3A2000206C6566744D83
:1031E6006F746F7253706565643A20002072696768
:1031F60068744D6F746F7253706565643A20002071
:10320600202D206C6566744D6F746F725370656502
:10321600643A20006661756C74004572726F7220A4
:103226006E756D6265723A200020202D20637574DC
:103236007465725F73746174653A2000436F756ECE
:103246007465723A2000204C4D6F743A200020526B
:103256004D6F743A2000233A2000204C433A200058
:103266002052433A2000204C4D6F746F7253703ACF
:10327600200020524D6F746F7253703A2000204325
:1032860075747465723A20002042617474657279AF
:103296003A20002028005629002053746174653AAC
:1032A60020002044656275673A20002043686172F9
:1032B60067653A20004F4B004E4F4B21002052438A
:1032C600313A2000202F2000205243323A20003D80
:1032D6003D3D3D3D3D3D3D3D3D3D3D3D3D3D3D3D18
:1032E6003D3D3D3D3D3D3D3D3D3D3D3D3D3D3D3D08
:1032F6003D3D3D3D3D3D3D3D3D3D3D002A20537418
:10330600617274696E672075700020202D205374D9
:103316006F7070696E6720656E67696E6573002AE7
:10332600204D6F746F722063757272656E742074AF
:1033360068726573686F6C64207265616368656442
:10334600004361756768742073657269616C00205B
:10335600202D2052656365697665643A2000202039
:103366002D205374617274696E6720726F626F7478
:103376000020202D20526576657273696E67207273
:103386006F626F740020202D205475726E696E670F
:10339600206C6566740020202D205475726E696E4F
:1033A600672072696768740020202D20546F676754
:1033B6006C65206375747465720020202D20546F2F
:1033C60067676C696E6720646562756720666C6105
:1033D600670020202D20546F67676C696E67207028
:1033E60072696E7420737461747573206F7574706E
:1033F60075740020202D2042756D700020202D2030
:1034060053746F7070696E6720726F626F74006EAE
:10341600616E00696E66006F7666002E000100968A
:10342600000107004803B405200804005A05A40655
:10343600EE07FFFF0000E803EE07000000005D1145
:0A344600E012F310241104114D11DF
:00000001FF
