:1000000003C100002EC100002CC100002AC1000065
:1000100028C1000026C1000024C1000022C1000048
:1000200020C100001EC100001CC100001AC1000058
:1000300018C1000016C1000014C1000012C1000068
:1000400010C100000C94DB0A0CC100000AC10000C2
:1000500008C1000006C1000004C100000C94080B98
:1000600000C100000C949F0E0C94E30FFAC0000036
:10007000F8C00000F6C00000F4C00000F2C00000AC
:100080000C94AE0AEEC00000ECC00000EAC0000014
:100090000C94DF0E0C942210E4C00000E2C00000BB
:1000A000E0C00000DEC000000C94810ADAC000004D
:1000B000D8C00000D6C00000D4C000000C94540A80
:1000C000D0C00000CEC00000CCC000000C941F0FB8
:1000D0000C946110C6C000000C945F0F0C94A0102B
:1000E000C0C0000000002100240027002A002D00CD
:1000F0003000330001010000040107010A01000083
:100100002200250028002B002E00310034000201BF
:100110000000050108010B0100002000230026005B
:1001200029002C002F00320000010000030106010D
:10013000090105050505070508080808020202026D
:100140000A0A080804040404010101010101010173
:100150000303030303030303040707070C0C0C0C3E
:100160000C0C0C0C02020202060606060606060627
:100170000B0B0B0B0B0B0B0B0102102020080810B4
:100180002040102040800201020108040201010207
:1001900004081020408080402010080402018004E0
:1001A000020180402010080402010804020101023B
:1001B0000408102040800102040810204080000044
:1001C000090A02080B0C0D070603040100000000D9
:1001D000000000000000000000000000000000001F
:1001E0000000000000000000000011100F000000DF
:1001F00000000000000000000000000000000000FF
:100200000000000032010F1211241FBECFEFD1E217
:10021000DEBFCDBF00E00CBF16E0A0E0B2E0EAE335
:10022000F1E300E00BBF02C007900D92A630B107CA
:10023000D9F71BBE19E0A6E0B6E001C01D92AD36AD
:10024000B107E1F712E0C8E0D2E004C02297FE0156
:100250000E949718C430D107C9F70E9445130C9427
:100260009B18CECE86E096E0EED68DE090E090939F
:100270001E0680931D068CE090E0909320068093EC
:100280001F068BE090E0909322068093210683E086
:1002900090E090932406809323068FEF9FEF909336
:1002A00026068093250608958091170690911806DA
:1002B0008530910509F446C0863091059CF4823062
:1002C000910589F18330910534F4009711F101977C
:1002D00009F05DC023C08330910551F1049709F006
:1002E00056C02BC088309105E1F1893091053CF46E
:1002F0008630910561F1079709F049C02DC08A3019
:100300009105C9F18A3091058CF10B9709F03FC036
:1003100038C085EE98E060E072E031C085EE98E08C
:1003200067E072E02CC085EE98E061E172E027C0E2
:1003300085EE98E06AE172E022C085EE98E062E224
:1003400072E01DC085EE98E06BE272E018C085EEA9
:1003500098E061E372E013C085EE98E06BE372E031
:100360000EC085EE98E063E472E009C085EE98E087
:1003700068E472E004C085EE98E06DE472E00C94ED
:10038000BA1485EE98E062E572E00C94BA14089510
:1003900086E096E06AE570E0ACD610921206109204
:1003A00011060895CF93DF9387E090E090931806AD
:1003B0008093170685EE98E040E052EC61E070E033
:1003C0000E94DF1086E061E00E941D0D80911D06F5
:1003D00061E00E941D0D80911F0661E00E941D0DCD
:1003E0008091210661E00E941D0D8091230661E04D
:1003F0000E941D0D86E096E066E070E090D7809147
:10040000170690911806069741F586E096E064EB92
:1004100070E06FD685EE98E06BE672E00E948F1573
:1004200068EB7BE080E090E00E94500B85EE98E066
:100430006DE872E00E948F1586E096E060E070E063
:1004400058D668EB7BE080E090E00E94500B85E09E
:1004500090E0909318068093170685EE98E06CE97B
:1004600072E00E948F15109212061092110685EE0E
:1004700098E063EB72E00E948F15C0E0D0E086E068
:1004800096E06AE570E035D661E070E080E090E0EB
:100490000E94500B21968BE0C83BD80781F78091D2
:1004A000DB059091DC058739910534F086E990E011
:1004B0009093DC058093DB056BDF8091210668EC6F
:1004C00070E00E943F0C8091230668EC70E00E946F
:1004D0003F0C80911D0660E00E94D00D80911F06A8
:1004E00060E00E94D00DDF91CF910895682F809138
:1004F0001F060C94D00DCF93DF93EC01909316065A
:10050000809315068F3F910539F034F08FEF90E01E
:100510009093160680931506809115069091160605
:1005200081509F4F34F481E09FEF909316068093A3
:100530001506BE01D7FF04C0662777276C1B7D0B0D
:10054000809123060E943F0C80E01C161D060CF4CF
:1005500081E0CCDFDF91CF910895682F80911D0657
:100560000C94D00DCF93DF93EC01909314068093FD
:1005700013068F3F910539F034F08FEF90E09093A0
:1005800014068093130680911306909114068150EF
:100590009F4F34F481E09FEF9093140680931306ED
:1005A000BE01D7FF04C0662777276C1B7D0B8091A7
:1005B00021060E943F0C80E01C161D060CF481E011
:1005C000CCDFDF91CF910895CF93DF9385EE98E054
:1005D0006EEC72E00E948F1585EE98E06DED72E092
:1005E0000E94BA14C0E0D0E0CE01BCDFCE0183DFB0
:1005F0006FE070E080E090E00E94500B2596CF3FC6
:10060000D10591F78FEF90E0ADDF8FEF90E073DFD2
:10061000DF91CF91089580E090E0A4DF80E090E04A
:100620006ADF68EC70E080E090E00C94500BCF92B1
:10063000DF92EF92FF920F931F938C0185EEC82EED
:1006400088E0D82EC60164EE72E00E94BA14C6019A
:10065000B8014AE050E00E948B14C60169E173E0E2
:100660000E94BA1480E090E07DDF80E090E043DFFC
:1006700081E09FEF77DF81E09FEF3DDFC80162E01F
:1006800070E00E9431187B010027F7FC0095102FC5
:10069000C801B7010E94500B8FEF90E02CDFC8011A
:1006A000B701FED780E090E05DDF80E090E023DFDF
:1006B000C60163E273E00E948F1564E670E080E09B
:1006C00090E0EED71F910F91FF90EF90DF90CF90C9
:1006D00008954F925F926F927F928F929F92AF9206
:1006E000BF92CF92DF92EF92FF920F931F93CF931F
:1006F000DF9385EE98E067E473E00E948F15C09168
:100700001306D09114061C161D063CF051E0452E30
:10071000512C41E0642E712C06C044244A94542C80
:1007200066246A94762C85EE98E06CE573E00E946E
:10073000BA1485EE98E0B3014AE050E00E948B14B1
:1007400085EE98E064E773E00E94BA1485EE98E0C5
:10075000B2014AE050E00E948B1485EE98E06AE80E
:1007600073E00E94BA1485EE98E0BE014AE050E0C2
:100770000E948B1485EE98E06CE973E00E94BA1435
:1007800085EE98E0BE014AE050E00E948B1485EEB1
:1007900098E00E947C137E01D7FF04C0F094E1949E
:1007A000F108F3944301880C991C880C991C860C61
:1007B000971C5201AA0CBB1CAA0CBB1CA40CB51C98
:1007C000CC24DD2400E010E0C0E0D0E0C801CADEA7
:1007D000CE0191DE85EE98E06FEA73E00E94BA14D4
:1007E00085EE98E0B8014AE050E00E948B1485EE57
:1007F00098E06CE973E00E94BA1485EE98E0BE01BF
:100800004AE050E00E948B1485EE98E00E947C1331
:100810006FE070E080E090E043D785E090E0C80EA4
:10082000D91E080D191DCA0DDB1D9FEFC916D10475
:1008300069F66E9CC0016F9C900D7E9C900D1124FA
:1008400091DE4E9CC0014F9C900D5E9C900D11243A
:1008500052DEDF91CF911F910F91FF90EF90DF90CB
:10086000CF90BF90AF909F908F907F906F905F9050
:100870004F900895CF92DF92EF92FF920F931F93C4
:1008800075EEE72E78E0F72E609111067091120652
:10089000C7014AE050E00E949D140091110610919A
:1008A000120681E090E00827192769EDC62E63E063
:1008B000D62EC701B6010E94BA146091110670913C
:1008C0001206C7014AE050E00E949D1410931206E0
:1008D00000931106C701B6010E94BA146091110677
:1008E00070911206C7014AE050E00E949D141F91CA
:1008F0000F91FF90EF90DF90CF90089587E38BC723
:1009000086E389C70F931F9305EE18E0C8016CEECC
:1009100073E00E94BA146091190670911A06C8011A
:100920004AE050E00E948B14C80166EF73E00E9419
:10093000BA14E6DFBC01C8014AE050E00E943D1451
:10094000C8016EEF73E00E94BA14D8DFBC01C80181
:100950004AE050E00E943D14C8010E947C131F91A0
:100960000F91089588E357C74F925F926F927F92DD
:100970008F929F92AF92BF92CF92DF92EF92FF92AF
:100980000F931F93CF93DF93EC01219700D00F9229
:10099000DE01AA0FBB1FFD01E55FF94F6081718188
:1009A000882777FD8095982F2E01440C551C440C08
:1009B000551CF201EE0FFF1FE052FA4F20813181EA
:1009C000442737FD4095542FFE0113E0EE0FFF1F23
:1009D0001A95E1F7E252FA4FE680F7800027F7FC1C
:1009E0000095102FEFECF5E04E0E5F1EF201A08097
:1009F000B180CC24B7FCC094DC2CAA0FBB1FAF5233
:100A0000BA4F6D907C90882477FC8094982CEDB739
:100A1000FEB761827282838294820E94A015F201E5
:100A200040815181CB010F900F900F900F90641770
:100A300075070CF4CA01CC0FDD1FCC0FDD1FCF52A0
:100A4000DA4FA881B9819C01A817B9070CF49D0160
:100A5000C901DF91CF911F910F91FF90EF90DF902F
:100A6000CF90BF90AF909F908F907F906F905F904E
:100A70004F9008958091CD059091CE05019709F092
:100A800014C185EE98E066E074E00E94BA146091AB
:100A9000190670911A0685EE98E04AE050E00E942F
:100AA0008B1485EE98E06AE074E00E94BA1428DFA7
:100AB000BC0185EE98E04AE050E00E943D1485EECE
:100AC00098E060E174E00E94BA1418DFBC0185EE82
:100AD00098E04AE050E00E943D1485EE98E066E11F
:100AE00074E00E94BA14609113067091140685EEAA
:100AF00098E04AE050E00E948B1485EE98E062E2B4
:100B000074E00E94BA14609115067091160685EE85
:100B100098E04AE050E00E948B1485EE98E06EE287
:100B200074E00E94BA14609111067091120685EE6D
:100B300098E04AE050E00E948B1485EE98E068E36C
:100B400074E00E94BA1460911B0670911C0685EE39
:100B500098E04AE050E00E948B1485EE98E063E450
:100B600074E00E94BA1460911B0670911C068827DD
:100B700077FD8095982F0E94EB1620E030E04CEA3C
:100B800051E40E949F1720E030E040E85AE30E94C1
:100B90009F17AB01BC0185EE98E022E030E00E9497
:100BA0008D1585EE98E066E474E00E94BA1485EE37
:100BB00098E069E474E00E94BA1476DB85EE98E070
:100BC00062E574E00E94BA146091090670910A0609
:100BD00085EE98E04AE050E00E948B1485EE98E0A4
:100BE0006BE574E00E94BA1460911B0670911C06BC
:100BF000882777FD8095982F0E94EB1620E030E83B
:100C000049E054E40E949B1718162CF485EE98E0F6
:100C100065E674E004C085EE98E068E674E00E9442
:100C2000BA1485EE98E06DE674E00E94BA1481E093
:100C300090E09ADEBC0185EE98E04AE050E00E9428
:100C40008B1485EE98E064E774E00E94BA1460911A
:100C50000B0670910C0685EE98E04AE050E00E9489
:100C60008B1485EE98E068E774E00E94BA1482E085
:100C700090E07ADEBC0185EE98E04AE050E00E9408
:100C80008B1485EE98E064E774E00E94BA146091DA
:100C90000D0670910E0685EE98E04AE050E00E9445
:100CA0008B1485EE98E00C947C130895EF92FF92DC
:100CB0000F931F9305EE18E0C8010E947C134FE7C5
:100CC000E42E44E0F42EC801B7010E948F15C8013C
:100CD0006CEA74E00E948F15C801B7010E948F155D
:100CE000C8016AEB74E00E948F15C8016DED72E0D7
:100CF0000E94BA14BFDE80E090E034DC80E090E037
:100D0000FADB68EE73E080E090E0CAD41F910F91A7
:100D1000FF90EF900895CF93DF9381E090E024DE81
:100D2000EC018FEFCC3ED8073CF4CE0181509F4FB1
:100D300019DC8FEF90E00AC0C531D10544F08FEF88
:100D400090E010DC8FEF90E08C1B9D0BD4DBDF91EB
:100D5000CF910895FC0153E0EE0FFF1F5A95E1F784
:100D6000EA52FA4F808161E028EA31E640E050E043
:100D700049D7CB0108950F931F93CF93DF93F2DDF3
:100D800090931C0680931B0681E090E0E3DF909334
:100D90000C0680930B0682E090E0DCDF90930E0659
:100DA00080930D0680911706909118068930910561
:100DB00009F46BC08A3091054CF48530910589F1B6
:100DC0008730910561F1892B61F066C08B30910508
:100DD00009F443C08B3091058CF10C9709F05CC08D
:100DE0000EC099DF8091090690910A06892B09F0BF
:100DF00053C086DD079708F04FC080DD4DC0C8DACC
:100E000085EE98E06FEC74E00E948F158CED95E014
:100E10000EDCDADB10921806109217063DC046DF92
:100E200035C0C0E0D0E06EDD64EF71E080E090E0BE
:100E300037D42196CA30D105B1F72EC000911306E0
:100E40001091140680E090E08DDB68EE73E080E0A6
:100E500090E026D4C80186DB0EC0009115061091E3
:100E6000160680E090E047DB68EE73E080E090E0FB
:100E700017D4C80140DB109218061092170664E6DA
:100E800070E080E090E00CD407C0C5DB88E090E023
:100E9000909318068093170685EE98E00E946511DE
:100EA000892B09F4B3C085EE98E00E949611082FB3
:100EB00085EE98E061EF74E00E948F1585EE98E072
:100EC0006FEF74E00E94BA1485EE98E0602F0E94E4
:100ED0009C13033799F48091170690911806892B7B
:100EE00009F4A8C085EE98E06EE075E00E948F15C9
:100EF000109218061092170667DB88C0043679F442
:100F00008091170690911806892B09F07FC085EE15
:100F100098E061E275E00E948F15DBDB77C00C364C
:100F200081F48091170690911806892B09F06EC004
:100F300085EE98E065E375E00E948F158AE090E009
:100F400061C0023781F48091170690911806892BB1
:100F500009F05CC085EE98E066E475E00E948F15AC
:100F60008BE090E04FC0033699F480911706909182
:100F70001806892B09F04AC085EE98E068E575E00F
:100F80000E948F1577DC10921806109217063EC04B
:100F9000043499F485EE98E06AE675E00E948F15B6
:100FA0008091090690910A0621E030E0822793277C
:100FB00090930A068093090629C0003799F485EEBC
:100FC00098E062E875E00E948F158091CD059091C0
:100FD000CE0521E030E0822793279093CE058093C1
:100FE000CD0514C0023691F4809117069091180631
:100FF000892B61F485EE98E063EA75E00E948F1515
:101000008CE090E0909318068093170633DD809172
:10101000190690911A06019690931A068093190664
:1010200064E670E080E090E03BD3DF91CF911F91C8
:101030000F91089585EE98E06CEA75E00E948F1597
:1010400089E090E0DFCFFC0180912706803390F4A7
:1010500080838F5F80932706815090E0FC01EE0F24
:10106000FF1FE80FF91FE85DF94F88EB9BE09283C3
:10107000818308958FEF80830895FC0120812033C0
:10108000B8F58181992787FD909548E850E0481B85
:10109000590B440F551F440F551F6417750784F0F3
:1010A0008281992787FD909548E552E0481B590BAE
:1010B000440F551F440F551F641775070CF4AB01FF
:1010C00042505040CA01AA2797FDA095BA2F880F19
:1010D000991FAA1FBB1F4FB7F89430E0F901EE0F1C
:1010E000FF1FE20FF31FE85DF94F928381834FBF2B
:1010F0000895AF92BF92CF92DF92EF92FF920F933B
:101100001F93CF93DF93EC019B0182E0603278075D
:101110000CF048C077FF03C020E030E005C0653B1D
:10112000710514F024EB30E000D00F92B90188274C
:1011300077FD8095982F2981332727FD3095E8E8A2
:10114000AE2EB12CA21AB30AAA0CBB1CAA0CBB1C53
:10115000CC24B7FCC094DC2CEA81FF27E7FDF09596
:1011600028E532E02E1B3F0B220F331F220F331FC7
:10117000442737FD4095542FEDB7FEB721833283C6
:101180004383548320E030E040E050E004EBE02E65
:10119000F12C012D112D0E94A0159B010F900F9095
:1011A0000F900F90CE01B90168DFDF91CF911F91B1
:1011B0000F91FF90EF90DF90CF90BF90AF90089588
:1011C000CF92DF92EF92FF921F93CF93DF93EC01C8
:1011D000162F7A0169018881803308F092C0862F2A
:1011E00061E02BD4888190E0FC01EE0FFF1FE80F37
:1011F000F91FE85DF94F1F738081807C812B80830C
:1012000080E292E08E199F0964E070E00E9431183C
:10121000698380E699E08C199D0964E070E00E9482
:1012200031186A83A8818A2F6CE00E942518682FE4
:1012300070E0AB01440F551F460F571F440F551F59
:10124000440F551F20E030E0C901840F951FFC01B9
:10125000EE0FFF1FE80FF91FE85DF94F808186FD53
:1012600044C02F5F3F4F2C30310571F753C01092AF
:10127000800082E0809381001092850010928400AB
:10128000B19A80916F00826080936F002EC06230AF
:10129000710569F41092900082E0809391001092A1
:1012A00095001092940088BB809371001EC063303B
:1012B000710569F41092A00082E08093A100109261
:1012C000A5001092A40089BB809372000EC0672B0A
:1012D00061F41092200182E0809321011092250197
:1012E000109224018ABB809373008A2F90E0FC0146
:1012F000EE0FFF1FE80FF91FE85DF94F8081806452
:1013000080838881DF91CF911F91FF90EF90DF90D4
:10131000CF9008956130710509F0B9CFA8CF40E2B0
:1013200052E020E639E04CCFEF92FF920F931F93EB
:10133000CF93DF938B017A01EC01DC01A854B94F04
:101340008C9187FF04C0FB011182108236C0AE0170
:10135000440F551F4C0F5D1F440F551F440F551F61
:101360002C91332727FD3095240F351F80912706B8
:1013700090E0281739070CF58C91992787FD9095F7
:10138000840F951FFC01EE0FFF1FE80FF91FE85DAA
:10139000F94F808186FF11C08C91992787FD909528
:1013A000840F951FFC01EE0FFF1FE80FF91FE85D8A
:1013B000F94F80818F7360E0F3D3DE01A854B94FF9
:1013C0008C918F5F8C93AE01440F551F4C0F5D1FA6
:1013D000440F551F440F551F2C91332727FD30957F
:1013E000240F351F8091270690E0281739070CF04D
:1013F0004CC08C918C300CF048C0F80120813181B8
:101400008C91992787FD9095840F951FFC01EE0F15
:10141000FF1FE80FF91FE85DF94F81819281280FC6
:10142000391FF701318320838C91992787FD90958F
:10143000840F951FFC01EE0FFF1FE80FF91FE85DF9
:10144000F94F808186FF29C08C91992787FD90955F
:10145000840F951FFC01EE0FFF1FE80FF91FE85DD9
:10146000F94F80818F7361E09BD317C080E49CE9C2
:1014700004C0F801808191810496F70191838083F3
:10148000C854D94F8FEF888308C0F80180819181BB
:10149000049680549C4950F3ECCFDF91CF911F917B
:1014A0000F91FF90EF9008951F920F920FB60F9239
:1014B0000BB60F9211242F933F934F935F936F932B
:1014C0007F938F939F93AF93BF93EF93FF9380E0AE
:1014D00090E064E271E048E251E026DFFF91EF9195
:1014E000BF91AF919F918F917F916F915F914F913C
:1014F0003F912F910F900BBE0F900FBE0F901F903A
:1015000018951F920F920FB60F920BB60F921124DF
:101510002F933F934F935F936F937F938F939F93FB
:10152000AF93BF93EF93FF9383E090E064EA70E0A2
:1015300048EA50E0F9DEFF91EF91BF91AF919F91A2
:101540008F917F916F915F914F913F912F910F906C
:101550000BBE0F900FBE0F901F9018951F920F9209
:101560000FB60F920BB60F9211242F933F934F9308
:101570005F936F937F938F939F93AF93BF93EF93FB
:10158000FF9382E090E064E970E048E950E0CCDE4F
:10159000FF91EF91BF91AF919F918F917F916F914B
:1015A0005F914F913F912F910F900BBE0F900FBE07
:1015B0000F901F9018951F920F920FB60F920BB6B7
:1015C0000F9211242F933F934F935F936F937F93C9
:1015D0008F939F93AF93BF93EF93FF9381E090E03E
:1015E00064E870E048E850E09FDEFF91EF91BF9122
:1015F000AF919F918F917F916F915F914F913F91AB
:101600002F910F900BBE0F900FBE0F901F9018954B
:101610001F920F920FB60F9211242F933F938F9327
:101620009F93AF93BF938091C0069091C106A09104
:10163000C206B091C3063091C4060196A11DB11D2A
:10164000232F2D5F2D3720F02D570196A11DB11DA1
:101650002093C4068093C0069093C106A093C2064F
:10166000B093C3068091BC069091BD06A091BE06C2
:10167000B091BF060196A11DB11D8093BC06909349
:10168000BD06A093BE06B093BF06BF91AF919F91D8
:101690008F913F912F910F900FBE0F901F90189533
:1016A0009B01AC017FB7F8948091BC069091BD0678
:1016B000A091BE06B091BF0666B5A89B05C06F3F5E
:1016C00019F00196A11DB11D7FBFBA2FA92F982F28
:1016D0008827860F911DA11DB11D62E0880F991FFB
:1016E000AA1FBB1F6A95D1F7BC012DC0FFB7F894A4
:1016F0008091BC069091BD06A091BE06B091BF0638
:10170000E6B5A89B05C0EF3F19F00196A11DB11DDC
:10171000FFBFBA2FA92F982F88278E0F911DA11DCB
:10172000B11DE2E0880F991FAA1FBB1FEA95D1F7F0
:10173000861B970B885E9340C8F221503040404092
:10174000504068517C4F211531054105510571F616
:101750000895789484B5826084BD84B5816084BD29
:1017600085B5826085BD85B5816085BDEEE6F0E01A
:10177000808181608083E1E8F0E010828081826076
:101780008083808181608083E0E8F0E080818160F7
:101790008083E1EBF0E0808184608083E0EBF0E027
:1017A000808181608083E1E9F0E0808182608083D4
:1017B000808181608083E0E9F0E0808181608083C6
:1017C000E1EAF0E0808182608083808181608083B3
:1017D000E0EAF0E0808181608083E1E2F1E08081F5
:1017E00082608083808181608083E0E2F1E080819B
:1017F00081608083EAE7F0E080818460808380817B
:101800008260808380818160808380818068808322
:101810001092C1000895382F863308F03653209176
:101820007B00832F86958695869590E081709070D9
:1018300043E0880F991F4A95E1F7277F282B2093D3
:101840007B0037708091DD058295880F880F807C42
:10185000832B80937C0080917A00806480937A004F
:1018600080917A0086FDFCCF20917800409179002C
:10187000942F80E030E0282B392BC90108951F9365
:10188000CF93DF93182FEB0161E0D7D0209709F4B5
:10189000CAC0CF3FD10509F4C9C0E12FF0E0E2543E
:1018A000FE4F8491893009F466C08A30B0F48430E8
:1018B000F1F1853040F4823059F1833070F5813098
:1018C00009F0AEC020C0873009F443C0883008F06A
:1018D00048C0863009F0A4C034C08D3009F478C007
:1018E0008E3038F48B3009F45AC08C3008F066C062
:1018F0004CC0803109F480C0813109F487C08F3039
:1019000009F08EC06FC084B5806884BDC7BD91C02A
:1019100084B5806284BDC8BD8CC080918000806821
:1019200080938000D0938900C093880082C080910A
:101930008000806280938000D0938B00C0938A00E7
:1019400078C08091B00080688093B000C093B300ED
:1019500070C08091B00080628093B000C093B400EA
:1019600068C080919000806880939000D093990027
:10197000C09398005EC08091900080628093900038
:10198000D0939B00C0939A0054C0809190008860CF
:1019900080939000D0939D00C0939C004AC080919A
:1019A000A00080688093A0008091A0008F7B80932E
:1019B000A000D093A900C093A8003BC08091A000D4
:1019C00080628093A000D093AB00C093AA0031C086
:1019D0008091A00088608093A000D093AD00C09358
:1019E000AC0027C080912001806880932001D093B3
:1019F0002901C09328011DC080912001806280933D
:101A00002001D0932B01C0932A0113C080912001A3
:101A1000886080932001D0932D01C0932C0109C0D0
:101A2000C038D1051CF4812F60E002C0812F61E035
:101A3000B7D0DF91CF911F910895CF93DF93482FB7
:101A400050E0CA0188589E4FFC0134914E5C5E4FB5
:101A5000FA018491882369F190E0880F991FFC01B5
:101A6000EC51FF4FA591B491FC01E250FF4FC5919D
:101A7000D491662351F42FB7F8948C91932F9095BD
:101A800089238C93888189230BC0623061F42FB73E
:101A9000F8948C91932F909589238C938881832B34
:101AA00088832FBF06C09FB7F8948C91832B8C93AB
:101AB0009FBFDF91CF910895893009F449C08A30E2
:101AC000A0F4843051F1853040F4823079F18330D4
:101AD00000F5813009F063C026C0873079F1883085
:101AE00098F5863009F05BC025C08D3009F442C0FE
:101AF0008E3028F48B30B1F18C30C0F52DC08031A0
:101B000009F442C0813109F445C08F3009F047C063
:101B100037C0809180008F7703C0809180008F7DD7
:101B200080938000089584B58F7702C084B58F7D3F
:101B300084BD08958091B0008F7703C08091B0007C
:101B40008F7D8093B0000895809190008F7707C0BB
:101B5000809190008F7D03C080919000877F80935B
:101B6000900008958091A0008F7707C08091A00019
:101B70008F7D03C08091A000877F8093A00008958F
:101B8000809120018F7703C0809120018F7D809309
:101B90002001089580912001877F8093200108957E
:101BA000FF920F931F93F62E482F50E0CA018254E4
:101BB0009E4FFC012491CA0188589E4FFC0114914C
:101BC0004E5C5E4FFA0104910023C1F0222311F014
:101BD000822F72DFE02FF0E0EE0FFF1FE250FF4F89
:101BE000A591B4919FB7F894FF2021F48C911095A2
:101BF000812302C08C91812B8C939FBF1F910F91E9
:101C0000FF9008958F929F92AF92BF92CF92DF92F2
:101C1000EF92FF920F931F93CF93DF93A82FB0E023
:101C2000CD0188589E4FFC018490AE5CBE4FFD01F3
:101C30008491662311F4992401C0982C6FEFA62E8D
:101C40006FEFB62E6FEFC62E6FE0D62EA222B32214
:101C5000C422D522682F70E0660F771F685E7E4F22
:101C6000EE24FF248701FB01A591B4910BC0EA1477
:101C7000FB040C051D0509F44EC00894E11CF11C81
:101C8000011D111D8C918821891589F30CC0EA145E
:101C9000FB040C051D0509F43EC00894E11CF11C71
:101CA000011D111D03C0FB01A591B4918C918821E8
:101CB000891569F720E030E040E050E0FB01C59174
:101CC000D4910FC0DA01C9018E0D9F1DA01FB11F55
:101CD0008A159B05AC05BD05F1F02F5F3F4F4F4FB7
:101CE0005F4F88818821891569F3CA01B90125E10F
:101CF00030E040E050E00E9406189B01AC01205FFC
:101D00003F4F4F4F5F4F84E0569547953795279546
:101D10008A95D1F704C020E030E040E050E0B901FE
:101D2000CA01DF91CF911F910F91FF90EF90DF904B
:101D3000CF90BF90AF909F908F90089508951F927D
:101D40000F920FB60F920BB60F9211242F933F9361
:101D50004F938F939F93EF93FF938091C00082FDE9
:101D60001DC04091C60020910507309106072F5FE6
:101D70003F4F2F7330708091070790910807281705
:101D8000390771F0E0910507F0910607EB53F94F21
:101D90004083309306072093050702C08091C60058
:101DA000FF91EF919F918F914F913F912F910F90C4
:101DB0000BBE0F900FBE0F901F90189508951F92A5
:101DC0000F920FB60F920BB60F9211242F933F93E1
:101DD0004F938F939F93EF93FF938091C80082FD61
:101DE0001DC04091CE0020918D0730918E072F5F4E
:101DF0003F4F2F73307080918F0790919007281775
:101E0000390771F0E0918D07F0918E07E35BF84F91
:101E1000408330938E0720938D0702C08091CE00BF
:101E2000FF91EF919F918F914F913F912F910F9043
:101E30000BBE0F900FBE0F901F90189508951F9224
:101E40000F920FB60F920BB60F9211242F933F9360
:101E50004F938F939F93EF93FF938091D00082FDD8
:101E60001DC04091D60020911508309116082F5FB3
:101E70003F4F2F73307080911708909118082817E2
:101E8000390771F0E0911508F0911608EB52F84F00
:101E90004083309316082093150802C08091D60025
:101EA000FF91EF919F918F914F913F912F910F90C3
:101EB0000BBE0F900FBE0F901F90189508951F92A4
:101EC0000F920FB60F920BB60F9211242F933F93E0
:101ED0004F938F939F93EF93FF938091300182FDF7
:101EE0001DC04091360120919D0830919E082F5FC2
:101EF0003F4F2F73307080919F089091A008281752
:101F0000390771F0E0919D08F0919E08E35AF74F70
:101F1000408330939E0820939D0802C08091360133
:101F2000FF91EF919F918F914F913F912F910F9042
:101F30000BBE0F900FBE0F901F901895E091F10807
:101F4000F091F208E05CFF4F819191912081318105
:101F5000821B930B8F739070892B09F0EFDEE09159
:101F60001309F0911409E05CFF4F81919191208158
:101F70003181821B930B8F739070892B09F01EDFC8
:101F8000E0913509F0913609E05CFF4F8191919124
:101F900020813181821B930B8F739070892B09F004
:101FA0004DDFE0915709F0915809E05CFF4F8191B6
:101FB000919120813181821B930B8F739070892BBB
:101FC00009F07CCF08951F920F920FB60F920BB6B7
:101FD0000F9211242F933F938F939F93EF93FF932F
:101FE0002091490730914A0780914B0790914C0707
:101FF0002817390731F48091C1008F7D8093C1008B
:1020000014C0E0914B07F0914C07E75FF84F208137
:1020100080914B0790914C0701968F73907090932D
:102020004C0780934B072093C600FF91EF919F913F
:102030008F913F912F910F900BBE0F900FBE0F907D
:102040001F9018951F920F920FB60F920BB60F921A
:1020500011242F933F938F939F93EF93FF9320919E
:10206000D1073091D2078091D3079091D4072817D8
:10207000390731F48091C9008F7D8093C90014C065
:10208000E091D307F091D407EF56F84F208180916B
:10209000D3079091D40701968F7390709093D407D3
:1020A0008093D3072093CE00FF91EF919F918F9162
:1020B0003F912F910F900BBE0F900FBE0F901F906E
:1020C00018951F920F920FB60F920BB60F92112414
:1020D0002F933F938F939F93EF93FF9320915908F2
:1020E00030915A0880915B0890915C082817390755
:1020F00031F48091D1008F7D8093D10014C0E091A4
:102100005B08F0915C08E75EF74F208180915B08E7
:1021100090915C0801968F73907090935C08809307
:102120005B082093D600FF91EF919F918F913F9193
:102130002F910F900BBE0F900FBE0F901F90189510
:102140001F920F920FB60F920BB60F9211242F937E
:102150003F938F939F93EF93FF932091E1083091EA
:10216000E2088091E3089091E4082817390731F4D8
:10217000809131018F7D8093310114C0E091E3089B
:10218000F091E408EF55F74F20818091E30890919A
:10219000E40801968F7390709093E4088093E308AD
:1021A00020933601FF91EF919F918F913F912F9155
:1021B0000F900BBE0F900FBE0F901F901895AF920F
:1021C000BF92DF92EF92FF920F931F93CF93DF9313
:1021D000EC017A018B01DD24403081EE580780E06C
:1021E000680780E0780711F0DD24D39491E0A92EF0
:1021F000B12CEC89FD89DD2069F0C50108A002C081
:10220000880F991F0A94E2F7808360E079E08DE3FC
:1022100090E005C0108260E874E88EE190E0A801CB
:10222000970132D721503040404050405695479555
:102230003795279580E12030380720F0DD2011F018
:10224000DD24D7CFE889F9893083EA89FB892083A7
:1022500019A2EE89FF89408121E030E0C9010C8C90
:1022600002C0880F991F0A94E2F7482B4083EE8939
:10227000FF894081C9010D8C02C0880F991F0A9403
:10228000E2F7482B4083EE89FF894081C9010E8C1B
:1022900002C0880F991F0A94E2F7482B4083EE8909
:1022A000FF8980810F8C02C0220F331F0A94E2F74E
:1022B000209528232083DF91CF911F910F91FF90CC
:1022C000EF90DF90BF90AF900895DC011C96ED91E8
:1022D000FC911D97E05CFF4F2191319180819181AC
:1022E000281B390B2F733070C9010895DC011C962F
:1022F000ED91FC911D97E05CFF4F20813181E0540E
:10230000F040DF01AE5BBF4F8D919C911197281774
:10231000390719F42FEF3FEF07C08D919C91E80F1B
:10232000F91F8081282F30E0C9010895DC011C9637
:10233000ED91FC911D97E05CFF4F20813181E054CD
:10234000F040DF01AE5BBF4F8D919C911197281734
:10235000390719F42FEF3FEF10C08D919C91119721
:10236000E80FF91F20818D919C91119701968F7331
:10237000907011969C938E9330E0C9010895DC0112
:1023800091968C919197882339F05496ED91FC9118
:102390005597808186FFF9CF91961C920895CF932F
:1023A000DF93EC01EE85FF85E05CFF4F20813181FA
:1023B000E054F0402F5F3F4F2F733070DF01AE5B72
:1023C000BF4F8D919C91119728173907D1F3E05C8D
:1023D000FF4F80819181E054F040E80FF91F608346
:1023E000EE85FF85E05CFF4F31832083EE89FF8916
:1023F000208181E090E00F8C02C0880F991F0A9421
:10240000E2F7282B208381E089A3EC89FD89808174
:102410008064808381E090E0DF91CF9108951F93E5
:102420001092E8081092E70828EE33E040E050E010
:102430002093E9083093EA084093EB085093EC08A6
:102440006AEF75E07093E6086093E50885EC96E026
:102450009093F2088093F10889E097E09093F40854
:102460008093F30885EC90E09093F6088093F5084C
:1024700084EC90E09093F8088093F70880EC90E06B
:102480009093FA088093F90881EC90E09093FC080F
:102490008093FB0882EC90E09093FE088093FD0807
:1024A00086EC90E0909300098093FF0814E010936D
:1024B0000109B3E0B0930209A7E0A0930309F5E096
:1024C000F0930409E1E0E093050910920A091092E3
:1024D000090920930B0930930C0940930D0950937F
:1024E0000E0970930809609307098DE497E09093B3
:1024F00014098093130981E997E09093160980935A
:1025000015098DEC90E090931809809317098CECD5
:1025100090E090931A098093190988EC90E09093C9
:102520001C0980931B0989EC90E090931E0980930D
:102530001D098AEC90E09093200980931F098EEC8E
:1025400090E0909322098093210910932309B0937E
:102550002409A0932509F0932609E09327091092F6
:102560002C0910922B0920932D0930932E094093AA
:102570002F095093300970932A096093290985ED3A
:1025800097E0909336098093350989E198E090931C
:1025900038098093370985ED90E090933A0980934C
:1025A000390984ED90E090933C0980933B0980EDDC
:1025B00090E090933E0980933D0981ED90E09093E7
:1025C000400980933F0982ED90E090934209809307
:1025D000410986ED90E0909344098093430910935C
:1025E0004509B0934609A0934709F0934809E09341
:1025F000490910924E0910924D0920934F093093CA
:102600005009409351095093520970934C096093BB
:102610004B098DE598E0909358098093570981EA1A
:1026200098E090935A098093590985E391E090933B
:102630005C0980935B0984E391E090935E09809349
:102640005D0980E391E09093600980935F0981E3E5
:1026500091E0909362098093610982E391E0909305
:1026600064098093630986E391E0909366098093FF
:10267000650910936709B0936809A0936909F093FD
:102680006A09E0936B091F910895CF93DF9361D896
:102690000E94D201CEE9DFE00E94BB062097E1F361
:1026A0004DDCFACFCF92DF92EF92FF920F931F9300
:1026B000CF93DF937C016B018A01C0E0D0E00FC0B3
:1026C000D6016D916D01D701ED91FC910190F081E2
:1026D000E02DC7011995C80FD91F015010400115F1
:1026E000110571F7CE01DF91CF911F910F91FF90EE
:1026F000EF90DF90CF900895EF92FF920F931F938A
:102700008C01DC01ED91FC910190F081E02D6DE0F8
:1027100019957C01D801ED91FC910190F081E02D9B
:10272000C8016AE019959C012E0D3F1DC9011F913A
:102730000F91FF90EF900895EF92FF920F931F93E8
:102740007C01DC01ED91FC910190F081E02D199567
:102750008C01C701D1DF080F191FC8011F910F910C
:10276000FF90EF900895CF93DF93EC016115710511
:1027700019F420E030E00FC0DB010D900020E9F7F4
:102780001197A61BB70BE881F9810280F381E02D38
:10279000AD0119959C01C901DF91CF9108954F9228
:1027A0005F927F928F929F92AF92BF92CF92DF9271
:1027B000EF92FF920F931F93DF93CF93CDB7DEB7C6
:1027C000A1970FB6F894DEBF0FBECDBF2C01742EBB
:1027D000CB01223008F42AE019A231E2C32ED12C19
:1027E000CC0EDD1E822E9924AA24BB24672D752FC2
:1027F000A501940149D479018A01C801B701A50155
:10280000940104D4472D461B0894C108D1084A30CE
:1028100014F4405D01C0495CF6014083E114F10409
:102820000105110521F07E2C5F2DC801DFCFC2010B
:10283000B60199DFA1960FB6F894DEBF0FBECDBFEB
:10284000CF91DF911F910F91FF90EF90DF90CF908C
:10285000BF90AF909F908F907F905F904F90089522
:10286000DC012115310541F4ED91FC910190F081DD
:10287000E02D642F1995089592CFEF92FF920F9358
:102880001F939A017B0100E010E0B801A701E8DF87
:102890001F910F91FF90EF900895CF92DF92EF92EA
:1028A000FF920F931F93CF93DF93EC016A017B019B
:1028B0002115310541F4E881F9810190F081E02D85
:1028C000642F19951DC02A303105C9F477FF16C051
:1028D000E881F9810190F081E02D6DE219958C017C
:1028E00044275527BA014C195D096E097F09CE01AD
:1028F0002AE055DF9801280F391F03C02AE04FDF77
:102900009C01C901DF91CF911F910F91FF90EF9032
:10291000DF90CF900895EF92FF920F931F937B016A
:102920009A010027F7FC0095102FB801A701B5DF29
:102930001F910F91FF90EF900895CF92DF92EF9249
:10294000FF920F931F936C017B019A010027F7FC04
:102950000095102FB801A701A0DF8C01C601CCDEC5
:10296000080F191FC8011F910F91FF90EF90DF9082
:10297000CF900895F8CE08957F928F929F92AF9254
:10298000BF92CF92DF92EF92FF920F931F93CF935C
:10299000DF934C017A018B01722ECB01BA01A801A1
:1029A000970130D3882321F0C4016FEB75E01FC07D
:1029B000C0E0D0E057016801E894D7F8C601B5013E
:1029C0002FEF3FEF4FE75FE71DD3882349F4C601A0
:1029D000B5012FEF3FEF4FE75FE75ED1181614F018
:1029E000C1E0D0E0219731F0C40163EC75E0BBDEBB
:1029F000EC0184C0C801B7012FEF3FEF4FE75FE460
:102A00009AD218164CF0C801B7012FEF3FEF4FE7ED
:102A10005FEC42D1882324F4C40167EC75E0E7CF72
:102A2000C801B70120E030E040E050E035D187FD3B
:102A300003C0C0E0D0E00EC0D401ED91FC91019044
:102A4000F081E02DC4016DE21995EC0117FB1095A2
:102A500017F9109520E030E040E05FE3DD240AC084
:102A6000CA01B90120E030E040E251E419D19B01F4
:102A7000AC01D394D714A0F3C801B701A9D05B016E
:102A80006C017BD17B018C01C401B801A7012AE054
:102A900030E0E6DEC80FD91F772031F0C4016BECBF
:102AA00075E061DEC80FD91FC801B70192D19B0143
:102AB000AC01C601B5018BD01FC020E030E040E280
:102AC00051E43DD27B018C0153D15B016C01CC24DC
:102AD000B7FCC094DC2CC401B601A5012AE030E0AB
:102AE000DCDEC80FD91FC601B50175D19B01AC0151
:102AF000C801B7016CD07A947720F9F6CE01DF9146
:102B0000CF911F910F91FF90EF90DF90CF90BF90EA
:102B1000AF909F908F907F9008952ECF0895EF9261
:102B2000FF920F931F937C011EDE8C01C701E4DD31
:102B3000080F191FC8011F910F91FF90EF90089582
:102B40002F923F924F925F926F927F928F929F92BD
:102B5000AF92BF92CF92DF92EF92FF920F931F93AB
:102B6000DF93CF93CDB7DEB73B014C0119012A01AA
:102B70006E897F89888D998D6A197B098C099D09D9
:102B8000621A730A840A950AA40193013FD2E218DB
:102B9000F30804091509A801970198D22A0D3B1DD5
:102BA0004C1D5D1DB901CA01CF91DF911F910F919D
:102BB000FF90EF90DF90CF90BF90AF909F908F905D
:102BC0007F906F905F904F903F902F900895505856
:102BD000BB27AA270ED075C166D130F06BD120F08B
:102BE00031F49F3F11F41EF45BC10EF4E095E7FB56
:102BF00051C1E92F77D180F3BA17620773078407B1
:102C0000950718F071F49EF58FC10EF4E0950B2E28
:102C1000BA2FA02D0B01B90190010C01CA01A0012E
:102C20001124FF27591B99F0593F50F4503E68F189
:102C30001A16F040A22F232F342F4427585FF3CFCA
:102C4000469537952795A795F0405395C9F77EF49B
:102C50001F16BA0B620B730B840BBAF09150A1F0E4
:102C6000FF0FBB1F661F771F881FC2F70EC0BA0F6A
:102C7000621F731F841F48F4879577956795B795F2
:102C8000F7959E3F08F0B3CF9395880F08F09927EA
:102C9000EE0F979587950895D9D008F481E00895AF
:102CA0000CD00FC107D140F0FED030F021F45F3FCF
:102CB00019F0F0C0511139C1F3C014D198F3992320
:102CC000C9F35523B1F3951B550BBB27AA276217F0
:102CD0007307840738F09F5F5F4F220F331F441F35
:102CE000AA1FA9F333D00E2E3AF0E0E830D091506D
:102CF0005040E695001CCAF729D0FE2F27D0660F5A
:102D0000771F881FBB1F261737074807AB07B0E898
:102D100009F0BB0B802DBF01FF2793585F4F2AF0AE
:102D20009E3F510568F0B6C000C15F3FECF3983E8E
:102D3000DCF3869577956795B795F7959F5FC9F70B
:102D4000880F911D9695879597F90895E1E0660F94
:102D5000771F881FBB1F621773078407BA0720F00D
:102D6000621B730B840BBA0BEE1F88F7E095089576
:102D700004D06894B111D9C00895BCD088F09F5791
:102D800090F0B92F9927B751A0F0D1F0660F771FB7
:102D9000881F991F1AF0BA95C9F712C0B13081F097
:102DA000C3D0B1E00895C0C0672F782F8827B85FDF
:102DB00039F0B93FCCF3869577956795B395D9F7F8
:102DC0003EF490958095709561957F4F8F4F9F4F02
:102DD0000895E89409C097FB3EF49095809570950E
:102DE00061957F4F8F4F9F4F9923A9F0F92F96E957
:102DF000BB279395F695879577956795B795F111CC
:102E0000F8CFFAF4BB0F11F460FF1BC06F5F7F4F68
:102E10008F4F9F4F16C0882311F096E911C077237A
:102E200021F09EE8872F762F05C0662371F096E883
:102E3000862F70E060E02AF09A95660F771F881F52
:102E4000DAF7880F9695879597F90895990F0008F6
:102E5000550FAA0BE0E8FEEF16161706E807F9076C
:102E6000C0F012161306E407F50798F0621B730B07
:102E7000840B950B39F40A2661F0232B242B252B88
:102E800021F408950A2609F4A140A6958FEF811D2B
:102E9000811D089597F99F6780E870E060E00895CC
:102EA0009FEF80EC089500240A9416161706180662
:102EB0000906089500240A9412161306140605063E
:102EC0000895092E0394000C11F4882352F0BB0FCF
:102ED00040F4BF2B11F460FF04C06F5F7F4F8F4F32
:102EE0009F4F089557FD9058440F551F59F05F3F6D
:102EF00071F04795880F97FB991F61F09F3F79F01C
:102F000087950895121613061406551FF2CF46959D
:102F1000F1DF08C0161617061806991FF1CF86951F
:102F20007105610508940895E894BB276627772703
:102F3000CB0197F908958ADF08F48FEF08950BD03D
:102F4000C0CFB1DF28F0B6DF18F0952309F0A2CF8B
:102F5000A7CF1124EACFC6DFA0F3959FD1F3950F39
:102F600050E0551F629FF001729FBB27F00DB11D0D
:102F7000639FAA27F00DB11DAA1F649F6627B00D9D
:102F8000A11D661F829F2227B00DA11D621F739F86
:102F9000B00DA11D621F839FA00D611D221F749F94
:102FA0003327A00D611D231F849F600D211D822FDB
:102FB000762F6A2F11249F5750408AF0E1F0882322
:102FC0004AF0EE0FFF1FBB1F661F771F881F91502F
:102FD0005040A9F79E3F510570F05CCFA6CF5F3FF0
:102FE000ECF3983EDCF3869577956795B795F79562
:102FF000E7959F5FC1F7FE2B880F911D96958795EA
:1030000097F9089523DF880B990B0895629FD001EB
:10301000739FF001829FE00DF11D649FE00DF11D93
:10302000929FF00D839FF00D749FF00D659FF00D42
:103030009927729FB00DE11DF91F639FB00DE11D2F
:10304000F91FBD01CF0111240895991B79E004C037
:10305000991F961708F0961B881F7A95C9F78095D7
:10306000089597FB092E07260AD077FD04D049D092
:1030700006D000201AF4709561957F4F0895F6F7F9
:10308000909581959F4F0895A1E21A2EAA1BBB1B14
:10309000FD010DC0AA1FBB1FEE1FFF1FA217B30724
:1030A000E407F50720F0A21BB30BE40BF50B661F3A
:1030B000771F881F991F1A9469F7609570958095FE
:1030C00090959B01AC01BD01CF01089597FB092E9E
:1030D00005260ED057FD04D0D7DF0AD0001C38F4E7
:1030E00050954095309521953F4F4F4F5F4F089534
:1030F000F6F790958095709561957F4F8F4F9F4F14
:103100000895AA1BBB1B51E107C0AA1FBB1FA6172E
:10311000B70710F0A61BB70B881F991F5A95A9F780
:1031200080959095BC01CD010895EE0FFF1F05908D
:0A313000F491E02D1994F894FFCFFC
:10313A004D4F57494E47004C41554E4348494E471B
:10314A0000545241434B494E4700444F434B494E6A
:10315A0047004348415247494E4700444542554774
:10316A0000434F4E46494755524500535441525425
:10317A0055500049444C450053544F50004C454665
:10318A0054005249474854005374617274696E6717
:10319A00206375747465722E2E2E00436F6E6669F5
:1031AA00677572696E673A2046756C6C207468722E
:1031BA006F746C65202B2064656C617900436F6EB7
:1031CA006669677572696E673A2030005365747470
:1031DA00696E67206375747465725F737461746570
:1031EA003D3000436F6E6669677572696E673A2093
:1031FA0033207365636F6E6473206C6F77002020D1
:10320A002D20536C6F772073746172740020202014
:10321A00202D200020202D204261636B696E6720DB
:10322A007570207769746820747769737420286FC1
:10323A006E6520776865656C207265647563656480
:10324A00207370656564292000207365636F6E645E
:10325A00732E0020202D20446F6E65206261636BFF
:10326A00696E672075700020202D204261636B69AA
:10327A006E6720757020002A207265766572736504
:10328A00446972656374696F6E28290020202D20B5
:10329A006E65775F6C656674446972656374696F9D
:1032AA006E3A2000206E65775F72696768744469B8
:1032BA0072656374696F6E3A2000206C6566744D9E
:1032CA006F746F7253706565643A20002072696783
:1032DA0068744D6F746F7253706565643A2000208C
:1032EA00202D206C6566744D6F746F72537065651E
:1032FA00643A20006661756C74004572726F7220C0
:10330A006E756D6265723A200020202D20637574F7
:10331A007465725F73746174653A2000436F756EE9
:10332A007465723A2000204C4D6F743A2000205286
:10333A004D6F743A2000233A2000204C433A200073
:10334A002052433A2000204C4D6F746F7253703AEA
:10335A00200020524D6F746F7253703A2000204340
:10336A0075747465723A20002042617474657279CA
:10337A003A20002028005629002053746174653AC7
:10338A0020002044656275673A2000204368617214
:10339A0067653A20004F4B004E4F4B2100205243A5
:1033AA00313A2000202F2000205243323A20003D9B
:1033BA003D3D3D3D3D3D3D3D3D3D3D3D3D3D3D3D33
:1033CA003D3D3D3D3D3D3D3D3D3D3D3D3D3D3D3D23
:1033DA003D3D3D3D3D3D3D3D3D3D3D002A20537433
:1033EA00617274696E672075700020202D205374F5
:1033FA006F7070696E6720656E67696E6573002A03
:10340A00204D6F746F722063757272656E742074CA
:10341A0068726573686F6C6420726561636865645D
:10342A00004361756768742073657269616C002076
:10343A00202D2052656365697665643A2000202054
:10344A002D205374617274696E6720726F626F7493
:10345A000020202D20526576657273696E6720728E
:10346A006F626F740020202D205475726E696E672A
:10347A00206C6566740020202D205475726E696E6A
:10348A00672072696768740020202D20546F67676F
:10349A006C65206375747465720020202D20546F4A
:1034AA0067676C696E6720646562756720666C6120
:1034BA00670020202D20546F67676C696E67207043
:1034CA0072696E7420737461747573206F75747089
:1034DA0075740020202D2042756D700020202D204B
:1034EA0053746F7070696E6720726F626F74006ECA
:1034FA00616E00696E66006F7666002E000100003C
:10350A00FE0002E7FF1900E7FF1900960001070015
:10351A004803B405200804005A05A406EE07FFFF75
:10352A000000E803EE0700000000CF1152136511F6
:06353A0096117611BF118D
:00000001FF
