:1000000003C100002EC100002CC100002AC1000065
:1000100028C1000026C1000024C1000022C1000048
:1000200020C100001EC100001CC100001AC1000058
:1000300018C1000016C1000014C1000012C1000068
:1000400010C100000C94940B0CC100000AC1000008
:1000500008C1000006C1000004C100000C94C10BDF
:1000600000C100000C94580F0C949C10FAC00000C2
:10007000F8C00000F6C00000F4C00000F2C00000AC
:100080000C94670BEEC00000ECC00000EAC000005A
:100090000C94980F0C94DB10E4C00000E2C0000048
:1000A000E0C00000DEC000000C943A0BDAC0000093
:1000B000D8C00000D6C00000D4C000000C940D0BC6
:1000C000D0C00000CEC00000CCC000000C94D80FFF
:1000D0000C941A11C6C000000C9418100C945911FD
:1000E000C0C0000000002100240027002A002D00CD
:1000F0003000330001010000040107010A01000083
:100100002200250028002B002E00310034000201BF
:100110000000050108010B0100002000230026005B
:1001200029002C002F00320000010000030106010D
:10013000090105050505070508080808020202026D
:100140000A0A080804040404010101010101010173
:100150000303030303030303040707070C0C0C0C3E
:100160000C0C0C0C02020202060606060606060627
:100170000B0B0B0B0B0B0B0B0102102020080810B4
:100180002040102040800201020108040201010207
:1001900004081020408080402010080402018004E0
:1001A000020180402010080402010804020101023B
:1001B0000408102040800102040810204080000044
:1001C000090A02080B0C0D070603040100000000D9
:1001D000000000000000000000000000000000001F
:1001E0000000000000000000000011100F000000DF
:1001F00000000000000000000000000000000000FF
:10020000000000003201C81211241FBECFEFD1E25E
:10021000DEBFCDBF00E00CBF16E0A0E0B2E0ECEA2C
:10022000F2E300E00BBF02C007900D92A035B107CA
:10023000D9F71BBE19E0A0E5B6E001C01D92AD3BA9
:10024000B107E1F712E0C8E0D2E004C02297FE0156
:100250000E945019C430D107C9F70E94FE130C94B4
:100260005419CECE80E596E0A7D78DE090E090932C
:100270006E0680936D068CE090E0909370068093FC
:100280006F068BE090E0909372068093710683E096
:1002900090E090937406809373068FEF9FEF909396
:1002A000760680937506089580916506909166069E
:1002B0008530910509F446C0863091059CF4823062
:1002C000910589F18330910534F4009711F101977C
:1002D00009F05DC023C08330910551F1049709F006
:1002E00056C02BC088309105E1F1893091053CF46E
:1002F0008630910561F1079709F049C02DC08A3019
:100300009105C9F18A3091058CF10B9709F03FC036
:1003100038C085E399E060E072E031C085E399E0A0
:1003200067E072E02CC085E399E061E172E027C0EC
:1003300085E399E06AE172E022C085E399E062E238
:1003400072E01DC085E399E06BE272E018C085E3BE
:1003500099E061E372E013C085E399E06BE372E03A
:100360000EC085E399E063E472E009C085E399E09B
:1003700068E472E004C085E399E06DE472E00C94F7
:10038000731585E399E062E572E00C9473150895A6
:1003900080E596E06AE570E065D710925C06109201
:1003A0005B060895CF93DF9387E090E09093660615
:1003B0008093650685E399E040E052EC61E070E0EF
:1003C0000E94981186E061E00E94D60D80916D0632
:1003D00061E00E94D60D80916F0661E00E94D60D0B
:1003E0008091710661E00E94D60D8091730661E0F4
:1003F0000E94D60D80E596E066E070E00E94480A13
:100400008091650690916606069741F580E596E035
:1004100064EB70E027D785E399E06BE672E00E9419
:10042000481668EB7BE080E090E00E94090C85E3D1
:1004300099E06DE872E00E94481680E596E060E081
:1004400070E010D768EB7BE080E090E00E94090C40
:1004500085E090E0909366068093650685E399E0D9
:100460006CE972E00E94481610925C0610925B06DE
:1004700085E399E063EB72E00E944816C0E0D0E0AB
:1004800080E596E06AE570E0EDD661E070E080E03E
:1004900090E00E94090C21968BE0C83BD80781F7B9
:1004A00080913D0690913E068739910534F086E9AA
:1004B00090E090933E0680933D066ADF809171063E
:1004C00068EC70E00E94F80C8091730668EC70E0B4
:1004D0000E94F80C80916D0660E00E94890E809168
:1004E0006F0660E00E94890E85E399E06EEC72E091
:1004F0000E94481687E060E00E94D60D84E060E02C
:100500000E94D60D85E399E067EE72E00E944816DE
:1005100085E399E061EF72E00E94481685E399E077
:1005200067EE72E00E944816DF91CF910895682F20
:1005300080916F060C94890ECF93DF93EC0190931A
:10054000600680935F068F3F910539F034F08FEF9E
:1005500090E09093600680935F0680915F06909193
:10056000600681509F4F34F481E09FEF90936006C6
:1005700080935F0660915F067091600677FF03C00D
:10058000709561957F4F809173060E94F80C80E012
:100590001C161D060CF481E0CADFDF91CF9108958F
:1005A000682F80916D060C94890ECF93DF93EC0138
:1005B00090935E0680935D068F3F910539F034F08D
:1005C0008FEF90E090935E0680935D0680915D06CC
:1005D00090915E0681509F4F34F481E09FEF90939D
:1005E0005E0680935D0660915D0670915E0677FF02
:1005F00003C0709561957F4F809171060E94F80C41
:1006000080E01C161D060CF481E0CADFDF91CF915B
:100610000895CF93DF9385E399E06DE073E00E9446
:10062000481685E399E06CE173E00E947315C0E021
:10063000D0E0CE01BADFCE017FDF6FE070E080E076
:1006400090E00E94090C2596CF3FD10591F78FEFDE
:1006500090E0ABDF8FEF90E06FDFDF91CF910895F7
:1006600080E090E0A2DF80E090E066DF68EC70E080
:1006700080E090E00C94090C0F931F9305E319E0C0
:10068000C80163E273E00E94731560916706709180
:100690006806C8014AE050E00E944415C8016DE2B6
:1006A00073E00E9473156091610670916206C80143
:1006B0004AE050E00E944415C80165E373E00E94DF
:1006C00073156091630670916406C8014AE050E0BA
:1006D0000E944415C8010E9435141F910F9108957E
:1006E000CF92DF92EF92FF920F931F938C0185E3DD
:1006F000C82E89E0D82EC6016DE373E00E94731501
:10070000C601B8014AE050E00E944415C60162E704
:1007100073E00E94731580E090E047DF80E090E096
:100720000BDF81E09FEF41DF81E09FEF05DFC80134
:1007300062E070E00E94EA187B010027F7FC009558
:10074000102FC801B7010E94090C8FEF90E0F4DE72
:10075000C801B7010E94090C80E090E026DF80E02C
:1007600090E0EADEC6016CE773E00E94481664E69A
:1007700070E080E090E00E94090C1F910F91FF90C3
:10078000EF90DF90CF9008954F925F926F927F929B
:100790008F929F92AF92BF92CF92DF92EF92FF9291
:1007A0000F931F93CF93DF9385E399E060EA73E0A3
:1007B0000E944816C0915D06D0915E061C161D066B
:1007C0003CF051E0452E512C41E0642E712C06C0C6
:1007D00044244A94542C66246A94762C85E399E048
:1007E00065EB73E00E94731585E399E0B3014AE07D
:1007F00050E00E94441585E399E06DEC73E00E949F
:10080000731585E399E0B2014AE050E00E94441577
:1008100085E399E063EE73E00E94731585E399E048
:10082000BE014AE050E00E94441585E399E065EF7F
:1008300073E00E94731585E399E0BE014AE050E041
:100840000E94441585E399E00E9435147E01D7FF8C
:1008500004C0F094E194F108F3944301880C991CCE
:10086000880C991C860C971C5201AA0CBB1CAA0C64
:10087000BB1CA40CB51CCC24DD2400E010E0C0E0BF
:10088000D0E0C80192DECE0157DE85E399E068E052
:1008900074E00E94731585E399E0B8014AE050E0E6
:1008A0000E94441585E399E065EF73E00E9473159B
:1008B00085E399E0BE014AE050E00E94441585E3DB
:1008C00099E00E9435146FE070E080E090E0A1D7DD
:1008D00085E090E0C80ED91E080D191DCA0DDB1D5C
:1008E0009FEFC916D10469F66E9CC0016F9C900DF4
:1008F0007E9C900D112459DE4E9CC0014F9C900DA2
:100900005E9C900D112418DEDF91CF911F910F9105
:10091000FF90EF90DF90CF90BF90AF909F908F901F
:100920007F906F905F904F900895CF92DF92EF92FB
:10093000FF920F931F9375E3E72E79E0F72E6091F6
:100940005B0670915C06C7014AE050E00E945615B4
:1009500000915B0610915C0681E090E00827192762
:1009600062E3C62E64E0D62EC701B6010E9473155D
:1009700060915B0670915C06C7014AE050E00E94FE
:10098000561510935C0600935B06C701B6010E94E2
:10099000731560915B0670915C06C7014AE050E0F8
:1009A0000E9456151F910F91FF90EF90DF90CF900E
:1009B000089587E3E9C786E3E7C788E3E5C74F9271
:1009C0005F926F927F928F929F92AF92BF92CF92DF
:1009D000DF92EF92FF920F931F93CF93DF93EC017F
:1009E000219700D00F92DE01AA0FBB1FFD01EB5A29
:1009F000F94F60817181882777FD8095982F2E01AE
:100A0000440C551C440C551CF201EE0FFF1FE55E13
:100A1000F94F20813181442737FD4095542FFE0145
:100A200013E0EE0FFF1F1A95E1F7E75EF94FE6803E
:100A3000F7800027F7FC0095102FE1E3F6E04E0E5B
:100A40005F1EF201A080B180CC24B7FCC094DC2CE6
:100A5000AA0FBB1FAD5CB94F6D907C90882477FCCA
:100A60008094982CEDB7FEB7618272828382948263
:100A70000E945916F20140815181CB010F900F90D5
:100A80000F900F90641775070CF4CA01CC0FDD1F8F
:100A9000CC0FDD1FCD5CD94FA881B9819C01A8176F
:100AA000B9070CF49D01C901DF91CF911F910F91FE
:100AB000FF90EF90DF90CF90BF90AF909F908F907E
:100AC0007F906F905F904F9008958091170690915E
:100AD0001806019709F028C185E399E065E474E000
:100AE0000E947315609167067091680685E399E02E
:100AF0004AE050E00E94441585E399E069E474E01F
:100B00000E9473156091690670916A0685E399E009
:100B10004AE050E00E94441585E399E06FE474E0F8
:100B20000E947315609161067091620685E399E0F9
:100B30004AE050E00E94441585E399E065E574E0E1
:100B40000E947315609163067091640685E399E0D5
:100B50004AE050E00E94441585E399E06BE574E0BB
:100B60000E94731560915D0670915E0685E399E0C1
:100B70004AE050E00E94441585E399E067E674E09E
:100B80000E94731560915F067091600685E399E09D
:100B90004AE050E00E94441585E399E063E774E081
:100BA0000E94731560915B0670915C0685E399E085
:100BB0004AE050E00E94441585E399E06DE774E057
:100BC0000E94731560916B0670916C0685E399E045
:100BD0004AE050E00E94441585E399E068E874E03B
:100BE0000E94731560916B0670916C06882777FDE3
:100BF0008095982F0E94A41720E030E04CEA51E441
:100C00000E94581820E030E040E85AE30E9458184B
:100C1000AB01BC0185E399E022E030E00E9446167A
:100C200085E399E06BE874E00E94731585E399E031
:100C30006EE874E00E94731537DB85E399E067E99D
:100C400074E00E947315609153067091540685E319
:100C500099E04AE050E00E94441585E399E060EA9B
:100C600074E00E94731560916B0670916C06882782
:100C700077FD8095982F0E94A41720E030E849E086
:100C800054E40E94541818162CF485E399E06AEA9B
:100C900074E004C085E399E06DEA74E00E94731586
:100CA00085E399E062EB74E00E94731581E090E0C7
:100CB00086DEBC0185E399E04AE050E00E944415DD
:100CC00085E399E069EB74E00E9473156091550625
:100CD0007091560685E399E04AE050E00E94441581
:100CE00085E399E06DEB74E00E94731582E090E07B
:100CF00066DEBC0185E399E04AE050E00E944415BD
:100D000085E399E069EB74E00E94731560915706E2
:100D10007091580685E399E04AE050E00E9444153E
:100D200085E399E00C9435140895EF92FF920F93A8
:100D30001F9305E319E0C8010E94351444ECE42E2A
:100D400044E0F42EC801B7010E944816C80161EFC3
:100D500074E00E944816C801B7010E944816C801F5
:100D60006FEF74E00E944816C8016CE173E00E94C6
:100D70007315ABDE80E090E018DC80E090E0DCDB17
:100D800068EE73E080E090E044D51F910F91FF90F2
:100D9000EF900895CF93DF9381E090E010DEEC01B7
:100DA0008FEFCC3ED8073CF4CE0181509F4FFDDB46
:100DB0008FEF90E00AC0C531D10544F08FEF90E08D
:100DC000F4DB8FEF90E08C1B9D0BB6DB6396A7974F
:100DD00030F48FEF90E0E9DB8FEF90E0ADDBDF9157
:100DE000CF910895FC0153E0EE0FFF1F5A95E1F7F4
:100DF000EF5EF94F808161E028EA31E640E050E0A3
:100E0000BAD7CB0108950F931F93CF93DF93D5DD0E
:100E100090936C0680936B06CEDD90936206809370
:100E20006106C7DD909364068093630681E090E0DD
:100E3000D9DF909356068093550682E090E0D2DF8A
:100E4000909358068093570682E090E0B8DD409773
:100E500054F08091650690916606892B21F01092DE
:100E600066061092650682E090E0A9DD815F9F4FE3
:100E700064F48091650690916606892B31F489E0CF
:100E800090E0909366068093650680916506909148
:100E900066068930910509F4B1C08A3091055CF489
:100EA0008530910509F476C08730910509F470C04A
:100EB000892B69F0AAC08B30910509F487C08B306B
:100EC00091050CF474C00C9709F09FC02BC062DF31
:100ED0008091530690915406892BF9F48091610614
:100EE00090916206059734F48091630690916406B0
:100EF00005979CF08091690690916A0601969093FF
:100F00006A068093690605970CF47FC010926A0602
:100F1000109269068CE090E074C010926A061092FC
:100F2000690673C035DA85E399E064E175E00E94F3
:100F3000481685E399E066E375E00E94731585E342
:100F400099E06FE474E00E94731535DDBC0185E320
:100F500099E04AE050E00E94F61485E399E065E5E7
:100F600074E00E94731525DDBC0185E399E04AE039
:100F700050E00E94F61485E399E00E9435148CED50
:100F800095E0AEDB46DB10926606109265063DC02A
:100F9000CCDE35C0C0E0D0E06FDB64EF71E080E014
:100FA00090E037D42196CA30D105B1F72EC0009118
:100FB0005D0610915E0680E090E0F7DA68EE73E07F
:100FC00080E090E026D4C801F0DA0EC000915F0600
:100FD0001091600680E090E0AFDA68EE73E080E0A8
:100FE00090E017D4C801A8DA109266061092650640
:100FF00064E670E080E090E00CD407C031DB88E06C
:1010000090E0909366068093650685E399E00E94E0
:101010001E12892B09F4B3C085E399E00E944F1298
:10102000082F85E399E06BE375E00E94481685E39D
:1010300099E069E475E00E94731585E399E0602FFB
:101040000E945514033799F48091650690916606C5
:10105000892B09F4A8C085E399E068E575E00E9452
:1010600048161092660610926506D3DA88C00436D8
:1010700079F48091650690916606892B09F07FC00E
:1010800085E399E06BE675E00E9448167DDB77C04A
:101090000C3681F48091650690916606892B09F0E3
:1010A0006EC085E399E06FE775E00E9448168AE01C
:1010B00090E061C0023781F48091650690916606E8
:1010C000892B09F05CC085E399E060E975E00E9436
:1010D00048168BE090E04FC0033699F48091650686
:1010E00090916606892B09F04AC085E399E062EA8F
:1010F00075E00E94481619DC10926606109265068B
:101100003EC0043499F485E399E064EB75E00E94F5
:101110004816809153069091540621E030E08227D2
:101120009327909354068093530629C0003799F46F
:1011300085E399E06CEC75E00E94481680911706F3
:101140009091180621E030E08227932790931806AB
:101150008093170614C0023691F480916506909131
:101160006606892B61F485E399E06DEE75E00E94D7
:1011700048168CE090E09093660680936506A5DCA7
:101180008091670690916806019690936806809317
:10119000670664E670E080E090E03BD3DF91CF919A
:1011A0001F910F91089585E399E066EF75E00E9425
:1011B000481689E090E0DFCFFC018091770680330C
:1011C00090F480838F5F80937706815090E0FC01DC
:1011D000EE0FFF1FE80FF91FE858F94F88EB9BE06F
:1011E0009283818308958FEF80830895FC0120818D
:1011F0002033B8F58181992787FD909548E850E024
:10120000481B590B440F551F440F551F6417750792
:1012100084F08281992787FD909548E552E0481B2C
:10122000590B440F551F440F551F641775070CF4D5
:10123000AB0142505040CA01AA2797FDA095BA2F92
:10124000880F991FAA1FBB1F4FB7F89430E0F90110
:10125000EE0FFF1FE20FF31FE858F94F92838183CF
:101260004FBF0895AF92BF92CF92DF92EF92FF925D
:101270000F931F93CF93DF93EC019B0182E06032C9
:1012800078070CF048C077FF03C020E030E005C0CD
:10129000653B710514F024EB30E000D00F92B901EA
:1012A000882777FD8095982F2981332727FD309552
:1012B000E8E8AE2EB12CA21AB30AAA0CBB1CAA0CE9
:1012C000BB1CCC24B7FCC094DC2CEA81FF27E7FDD3
:1012D000F09528E532E02E1B3F0B220F331F220F23
:1012E000331F442737FD4095542FEDB7FEB72183B8
:1012F00032834383548320E030E040E050E004EB4D
:10130000E02EF12C012D112D0E9459169B010F90FA
:101310000F900F900F90CE01B90168DFDF91CF9150
:101320001F910F91FF90EF90DF90CF90BF90AF9003
:101330000895CF92DF92EF92FF921F93CF93DF93A6
:10134000EC01162F7A0169018881803308F092C080
:10135000862F61E02BD4888190E0FC01EE0FFF1F07
:10136000E80FF91FE858F94F1F738081807C812BAB
:10137000808380E292E08E199F0964E070E00E9411
:10138000EA18698380E699E08C199D0964E070E0B1
:101390000E94EA186A83A8818A2F6CE00E94DE18F6
:1013A000682F70E0AB01440F551F460F571F440FC5
:1013B000551F440F551F20E030E0C901840F951FD1
:1013C000FC01EE0FFF1FE80FF91FE858F94F80816D
:1013D00086FD44C02F5F3F4F2C30310571F753C05D
:1013E0001092800082E0809381001092850010921C
:1013F0008400B19A80916F00826080936F002EC04C
:101400006230710569F41092900082E0809391003F
:10141000109295001092940088BB809371001EC0BA
:101420006330710569F41092A00082E08093A100FE
:101430001092A5001092A40089BB809372000EC088
:10144000672B61F41092200182E0809321011092B9
:101450002501109224018ABB809373008A2F90E0AB
:10146000FC01EE0FFF1FE80FF91FE858F94F8081CC
:10147000806480838881DF91CF911F91FF90EF90EE
:10148000DF90CF9008956130710509F0B9CFA8CFF2
:1014900040E252E020E639E04CCFEF92FF920F930A
:1014A0001F93CF93DF938B017A01EC01DC01A85FDE
:1014B000B84F8C9187FF04C0FB011182108236C0A7
:1014C000AE01440F551F4C0F5D1F440F551F440FB5
:1014D000551F2C91332727FD3095240F351F809100
:1014E000770690E0281739070CF58C91992787FD2E
:1014F0009095840F951FFC01EE0FFF1FE80FF91F59
:10150000E858F94F808186FF11C08C91992787FD9B
:101510009095840F951FFC01EE0FFF1FE80FF91F38
:10152000E858F94F80818F7360E0F3D3DE01A85F44
:10153000B84F8C918F5F8C93AE01440F551F4C0FA9
:101540005D1F440F551F440F551F2C91332727FD56
:101550003095240F351F8091770690E028173907C2
:101560000CF04CC08C918C300CF048C0F8012081FC
:1015700031818C91992787FD9095840F951FFC01EF
:10158000EE0FFF1FE80FF91FE858F94F8181928194
:10159000280F391FF701318320838C91992787FD0C
:1015A0009095840F951FFC01EE0FFF1FE80FF91FA8
:1015B000E858F94F808186FF29C08C91992787FDD3
:1015C0009095840F951FFC01EE0FFF1FE80FF91F88
:1015D000E858F94F80818F7361E09BD317C080E496
:1015E0009CE904C0F801808191810496F701918300
:1015F0008083C85FD84F8FEF888308C0F80180814F
:101600009181049680549C4950F3ECCFDF91CF91A7
:101610001F910F91FF90EF9008951F920F920FB6B8
:101620000F920BB60F9211242F933F934F935F931A
:101630006F937F938F939F93AF93BF93EF93FF939A
:1016400080E090E064E271E048E251E026DFFF9143
:10165000EF91BF91AF919F918F917F916F915F912A
:101660004F913F912F910F900BBE0F900FBE0F9097
:101670001F9018951F920F920FB60F920BB60F92F4
:1016800011242F933F934F935F936F937F938F9387
:101690009F93AF93BF93EF93FF9383E090E064EA4F
:1016A00070E048EA50E0F9DEFF91EF91BF91AF9111
:1016B0009F918F917F916F915F914F913F912F916A
:1016C0000F900BBE0F900FBE0F901F9018951F929A
:1016D0000F920FB60F920BB60F9211242F933F93D8
:1016E0004F935F936F937F938F939F93AF93BF932A
:1016F000EF93FF9382E090E064E970E048E950E006
:10170000CCDEFF91EF91BF91AF919F918F917F912F
:101710006F915F914F913F912F910F900BBE0F9062
:101720000FBE0F901F9018951F920F920FB60F9239
:101730000BB60F9211242F933F934F935F936F93A8
:101740007F938F939F93AF93BF93EF93FF9381E02A
:1017500090E064E870E048E850E09FDEFF91EF9190
:10176000BF91AF919F918F917F916F915F914F91B9
:101770003F912F910F900BBE0F900FBE0F901F90B7
:1017800018951F920F920FB60F9211242F933F932B
:101790008F939F93AF93BF93809110079091110700
:1017A000A0911207B0911307309114070196A11D63
:1017B000B11D232F2D5F2D3720F02D570196A11D30
:1017C000B11D209314078093100790931107A093E5
:1017D0001207B093130780910C0790910D07A09109
:1017E0000E07B0910F070196A11DB11D80930C0744
:1017F00090930D07A0930E07B0930F07BF91AF9181
:101800009F918F913F912F910F900FBE0F901F903E
:1018100018959B01AC017FB7F89480910C079091CB
:101820000D07A0910E07B0910F0766B5A89B05C0E4
:101830006F3F19F00196A11DB11D7FBFBA2FA92FCF
:10184000982F8827860F911DA11DB11D62E0880F7A
:10185000991FAA1FBB1F6A95D1F7BC012DC0FFB706
:10186000F89480910C0790910D07A0910E07B0910C
:101870000F07E6B5A89B05C0EF3F19F00196A11D23
:10188000B11DFFBFBA2FA92F982F88278E0F911D4A
:10189000A11DB11DE2E0880F991FAA1FBB1FEA9589
:1018A000D1F7861B970B885E9340C8F221503040D9
:1018B0004040504068517C4F21153105410551058C
:1018C00071F60895789484B5826084BD84B5816092
:1018D00084BD85B5826085BD85B5816085BDEEE638
:1018E000F0E0808181608083E1E8F0E01082808117
:1018F00082608083808181608083E0E8F0E0808185
:1019000081608083E1EBF0E0808184608083E0EBA4
:10191000F0E0808181608083E1E9F0E08081826095
:101920008083808181608083E0E9F0E08081816054
:101930008083E1EAF0E08081826080838081816041
:101940008083E0EAF0E0808181608083E1E2F1E081
:10195000808182608083808181608083E0E2F1E029
:10196000808181608083EAE7F0E080818460808309
:1019700080818260808380818160808380818068B3
:1019800080831092C1000895382F863308F03653B3
:1019900020917B00832F86958695869590E08170B7
:1019A000907043E0880F991F4A95E1F7277F282B15
:1019B00020937B00377080913F068295880F880FB7
:1019C000807C832B80937C0080917A00806480935C
:1019D0007A0080917A0086FDFCCF209178004091BA
:1019E0007900942F80E030E0282B392BC90108952D
:1019F0001F93CF93DF93182FEB0161E0D7D020978F
:101A000009F4CAC0CF3FD10509F4C9C0E12FF0E005
:101A1000E254FE4F8491893009F466C08A30B0F4F4
:101A20008430F1F1853040F4823059F1833070F523
:101A3000813009F0AEC020C0873009F443C088303F
:101A400008F048C0863009F0A4C034C08D3009F4D5
:101A500078C08E3038F48B3009F45AC08C3008F0DE
:101A600066C04CC0803109F480C0813109F487C060
:101A70008F3009F08EC06FC084B5806884BDC7BD4B
:101A800091C084B5806284BDC8BD8CC08091800047
:101A9000806880938000D0938900C093880082C0C2
:101AA00080918000806280938000D0938B00C093EF
:101AB0008A0078C08091B00080688093B000C093A5
:101AC000B30070C08091B00080628093B000C0937A
:101AD000B40068C080919000806880939000D0939B
:101AE0009900C09398005EC08091900080628093BE
:101AF0009000D0939B00C0939A0054C080919000B6
:101B0000886080939000D0939D00C0939C004AC051
:101B10008091A00080688093A0008091A0008F7BBE
:101B20008093A000D093A900C093A8003BC08091EF
:101B3000A00080628093A000D093AB00C093AA0065
:101B400031C08091A00088608093A000D093AD0048
:101B5000C093AC0027C08091200180688093200151
:101B6000D0932901C09328011DC08091200180627B
:101B700080932001D0932B01C0932A0113C0809140
:101B80002001886080932001D0932D01C0932C0107
:101B900009C0C038D1051CF4812F60E002C0812F3C
:101BA00061E0B7D0DF91CF911F910895CF93DF937C
:101BB000482F50E0CA0188589E4FFC0134914E5C7A
:101BC0005E4FFA018491882369F190E0880F991F94
:101BD000FC01EC51FF4FA591B491FC01E250FF4F85
:101BE000C591D491662351F42FB7F8948C91932F1B
:101BF000909589238C93888189230BC0623061F48E
:101C00002FB7F8948C91932F909589238C9388818A
:101C1000832B88832FBF06C09FB7F8948C91832BAA
:101C20008C939FBFDF91CF910895893009F449C00B
:101C30008A30A0F4843051F1853040F4823079F15B
:101C4000833000F5813009F063C026C0873079F118
:101C5000883098F5863009F05BC025C08D3009F4D6
:101C600042C08E3028F48B30B1F18C30C0F52DC0DD
:101C7000803109F442C0813109F445C08F3009F048
:101C800047C037C0809180008F7703C0809180006B
:101C90008F7D80938000089584B58F7702C084B5CE
:101CA0008F7D84BD08958091B0008F7703C08091AF
:101CB000B0008F7D8093B0000895809190008F7761
:101CC00007C0809190008F7D03C080919000877F36
:101CD0008093900008958091A0008F7707C0809135
:101CE000A0008F7D03C08091A000877F8093A0001B
:101CF0000895809120018F7703C0809120018F7D0E
:101D000080932001089580912001877F8093200196
:101D10000895FF920F931F93F62E482F50E0CA01AB
:101D200082549E4FFC012491CA0188589E4FFC01A9
:101D300014914E5C5E4FFA0104910023C1F02223FE
:101D400011F0822F72DFE02FF0E0EE0FFF1FE25064
:101D5000FF4FA591B4919FB7F894FF2021F48C9187
:101D60001095812302C08C91812B8C939FBF1F9172
:101D70000F91FF9008958F929F92AF92BF92CF9252
:101D8000DF92EF92FF920F931F93CF93DF93A82FD1
:101D9000B0E0CD0188589E4FFC018490AE5CBE4FF0
:101DA000FD018491662311F4992401C0982C6FEFF2
:101DB000A62E6FEFB62E6FEFC62E6FE0D62EA222A4
:101DC000B322C422D522682F70E0660F771F685EA9
:101DD0007E4FEE24FF248701FB01A591B4910BC037
:101DE000EA14FB040C051D0509F44EC00894E11C1F
:101DF000F11C011D111D8C918821891589F30CC0DE
:101E0000EA14FB040C051D0509F43EC00894E11C0E
:101E1000F11C011D111D03C0FB01A591B4918C9112
:101E20008821891569F720E030E040E050E0FB01AF
:101E3000C591D4910FC0DA01C9018E0D9F1DA01F5D
:101E4000B11F8A159B05AC05BD05F1F02F5F3F4F13
:101E50004F4F5F4F88818821891569F3CA01B90105
:101E600025E130E040E050E00E94BF189B01AC014A
:101E7000205F3F4F4F4F5F4F84E056954795379512
:101E800027958A95D1F704C020E030E040E050E08B
:101E9000B901CA01DF91CF911F910F91FF90EF908F
:101EA000DF90CF90BF90AF909F908F90089508954E
:101EB0001F920F920FB60F920BB60F9211242F9311
:101EC0003F934F938F939F93EF93FF938091C00025
:101ED00082FD1DC04091C6002091550730915607E4
:101EE0002F5F3F4F2F7330708091570790915807A5
:101EF0002817390771F0E0915507F0915607EB5E0E
:101F0000F84F4083309356072093550702C08091C5
:101F1000C600FF91EF919F918F914F913F912F912B
:101F20000F900BBE0F900FBE0F901F901895089545
:101F30001F920F920FB60F920BB60F9211242F9390
:101F40003F934F938F939F93EF93FF938091C8009C
:101F500082FD1DC04091CE002091DD073091DE074B
:101F60002F5F3F4F2F7330708091DF079091E00714
:101F70002817390771F0E091DD07F091DE07E3568D
:101F8000F84F40833093DE072093DD0702C0809135
:101F9000CE00FF91EF919F918F914F913F912F91A3
:101FA0000F900BBE0F900FBE0F901F9018950895C5
:101FB0001F920F920FB60F920BB60F9211242F9310
:101FC0003F934F938F939F93EF93FF938091D00014
:101FD00082FD1DC04091D6002091650830916608B1
:101FE0002F5F3F4F2F733070809167089091680882
:101FF0002817390771F0E0916508F0916608EB5DEC
:10200000F74F4083309366082093650802C08091A3
:10201000D600FF91EF919F918F914F913F912F911A
:102020000F900BBE0F900FBE0F901F901895089544
:102030001F920F920FB60F920BB60F9211242F938F
:102040003F934F938F939F93EF93FF938091300132
:1020500082FD1DC0409136012091ED083091EE08BF
:102060002F5F3F4F2F7330708091EF089091F008F1
:102070002817390771F0E091ED08F091EE08E3556B
:10208000F74F40833093EE082093ED0802C0809113
:102090003601FF91EF919F918F914F913F912F9139
:1020A0000F900BBE0F900FBE0F901F901895E091F0
:1020B0004109F0914209E05CFF4F819191912081AB
:1020C0003181821B930B8F739070892B09F0EFDEA7
:1020D000E0916309F0916409E05CFF4F8191919177
:1020E00020813181821B930B8F739070892B09F0B3
:1020F0001EDFE0918509F0918609E05CFF4F819138
:10210000919120813181821B930B8F739070892B69
:1021100009F04DDFE091A709F091A809E05CFF4FBD
:102120008191919120813181821B930B8F739070EB
:10213000892B09F07CCF08951F920F920FB60F9252
:102140000BB60F9211242F933F938F939F93EF938E
:10215000FF932091990730919A0780919B07909166
:102160009C072817390731F48091C1008F7D809337
:10217000C10014C0E0919B07F0919C07E75AF84F0B
:10218000208180919B0790919C0701968F7390709E
:1021900090939C0780939B072093C600FF91EF913B
:1021A0009F918F913F912F910F900BBE0F900FBE7B
:1021B0000F901F9018951F920F920FB60F920BB6AB
:1021C0000F9211242F933F938F939F93EF93FF933D
:1021D00020912108309122088091230890912408B1
:1021E0002817390731F48091C9008F7D8093C90089
:1021F00014C0E0912308F0912408EF51F84F20819A
:10220000809123089091240801968F739070909389
:102210002408809323082093CE00FF91EF919F9193
:102220008F913F912F910F900BBE0F900FBE0F908B
:102230001F9018951F920F920FB60F920BB60F9228
:1022400011242F933F938F939F93EF93FF932091AC
:10225000A9083091AA088091AB089091AC08281782
:10226000390731F48091D1008F7D8093D10014C063
:10227000E091AB08F091AC08E759F74F20818091CD
:10228000AB089091AC0801968F7390709093AC0856
:102290008093AB082093D600FF91EF919F918F918F
:1022A0003F912F910F900BBE0F900FBE0F901F907C
:1022B00018951F920F920FB60F920BB60F92112422
:1022C0002F933F938F939F93EF93FF932091310927
:1022D00030913209809133099091340928173907D8
:1022E00031F4809131018F7D8093310114C0E091F0
:1022F0003309F0913409EF50F74F20818091330971
:102300009091340901968F73907090933409809363
:10231000330920933601FF91EF919F918F913F9167
:102320002F910F900BBE0F900FBE0F901F9018951E
:10233000AF92BF92DF92EF92FF920F931F93CF93D2
:10234000DF93EC017A018B01DD24403081EE5807E8
:1023500080E0680780E0780711F0DD24D39491E0F5
:10236000A92EB12CEC89FD89DD2069F0C50108A0FA
:1023700002C0880F991F0A94E2F7808360E079E039
:102380008DE390E005C0108260E874E88EE190E093
:10239000A801970132D72150304040405040569517
:1023A00047953795279580E12030380720F0DD20CC
:1023B00011F0DD24D7CFE889F9893083EA89FB89D8
:1023C000208319A2EE89FF89408121E030E0C90114
:1023D0000C8C02C0880F991F0A94E2F7482B4083A7
:1023E000EE89FF894081C9010D8C02C0880F991FB9
:1023F0000A94E2F7482B4083EE89FF894081C901A6
:102400000E8C02C0880F991F0A94E2F7482B408374
:10241000EE89FF8980810F8C02C0220F331F0A943E
:10242000E2F7209528232083DF91CF911F910F9110
:10243000FF90EF90DF90BF90AF900895DC011C9665
:10244000ED91FC911D97E05CFF4F219131918081CE
:102450009181281B390B2F733070C9010895DC015D
:102460001C96ED91FC911D97E05CFF4F208131811E
:10247000E054F040DF01AE5BBF4F8D919C9111970E
:102480002817390719F42FEF3FEF07C08D919C9162
:10249000E80FF91F8081282F30E0C9010895DC0181
:1024A0001C96ED91FC911D97E05CFF4F20813181DE
:1024B000E054F040DF01AE5BBF4F8D919C911197CE
:1024C0002817390719F42FEF3FEF10C08D919C9119
:1024D0001197E80FF91F20818D919C91119701961A
:1024E0008F73907011969C938E9330E0C90108957C
:1024F000DC0191968C919197882339F05496ED9157
:10250000FC915597808186FFF9CF91961C92089592
:10251000CF93DF93EC01EE85FF85E05CFF4F2081D8
:102520003181E054F0402F5F3F4F2F733070DF0157
:10253000AE5BBF4F8D919C91119728173907D1F34E
:10254000E05CFF4F80819181E054F040E80FF91F7B
:102550006083EE85FF85E05CFF4F31832083EE8949
:10256000FF89208181E090E00F8C02C0880F991FC5
:102570000A94E2F7282B208381E089A3EC89FD8966
:1025800080818064808381E090E0DF91CF91089525
:102590001F93109238091092370928EE33E040E07B
:1025A00050E02093390930933A0940933B09509306
:1025B0003C0964E476E0709336096093350985E15F
:1025C00097E0909342098093410989E597E09093C1
:1025D00044098093430985EC90E0909346098093E9
:1025E000450984EC90E0909348098093470980EC7A
:1025F00090E090934A098093490981EC90E0909390
:102600004C0980934B0982EC90E090934E098093A3
:102610004D0986EC90E09093500980934F0914E0A7
:1026200010935109B3E0B0935209A7E0A093530966
:10263000F5E0F0935409E1E0E093550910925A094E
:102640001092590920935B0930935C0940935D090E
:1026500050935E0970935809609357098DE997E08C
:10266000909364098093630981EE97E090936609E3
:10267000809365098DEC90E09093680980936709D9
:102680008CEC90E090936A098093690988EC90E063
:1026900090936C0980936B0989EC90E090936E099C
:1026A00080936D098AEC90E09093700980936F0994
:1026B0008EEC90E0909372098093710910937309E6
:1026C000B0937409A0937509F0937609E0937709A4
:1026D00010927C0910927B0920937D0930937E092A
:1026E00040937F095093800970937A096093790928
:1026F00085E298E0909386098093850989E698E0C1
:10270000909388098093870985ED90E090938A09DA
:102710008093890984ED90E090938C0980938B09D4
:1027200080ED90E090938E0980938D0981ED90E08B
:102730009093900980938F0982ED90E09093920995
:102740008093910986ED90E090939409809393098A
:1027500010939509B0939609A0939709F09398095F
:10276000E093990910929E0910929D0920939F0968
:102770003093A0094093A1095093A20970939C093A
:1027800060939B098DEA98E09093A8098093A7092C
:1027900081EF98E09093AA098093A90985E391E0DD
:1027A0009093AC098093AB0984E391E09093AE09D8
:1027B0008093AD0980E391E09093B0098093AF09D5
:1027C00081E391E09093B2098093B10982E391E0B3
:1027D0009093B4098093B30986E391E09093B6098E
:1027E0008093B5091093B709B093B809A093B909BC
:1027F000F093BA09E093BB091F910895CF93DF933B
:1028000061D80E94D201C7E5D0E10E94030720975A
:10281000E1F34DDCFACFCF92DF92EF92FF920F936C
:102820001F93CF93DF937C016B018A01C0E0D0E05E
:102830000FC0D6016D916D01D701ED91FC91019012
:10284000F081E02DC7011995C80FD91F0150104024
:102850000115110571F7CE01DF91CF911F910F91F5
:10286000FF90EF90DF90CF900895EF92FF920F933B
:102870001F938C01DC01ED91FC910190F081E02D22
:102880006DE019957C01D801ED91FC910190F081EA
:10289000E02DC8016AE019959C012E0D3F1DC9016C
:1028A0001F910F91FF90EF900895EF92FF920F9379
:1028B0001F937C01DC01ED91FC910190F081E02DF2
:1028C00019958C01C701D1DF080F191FC8011F918D
:1028D0000F91FF90EF900895CF93DF93EC01611576
:1028E000710519F420E030E00FC0DB010D900020ED
:1028F000E9F71197A61BB70BE881F9810280F381F4
:10290000E02DAD0119959C01C901DF91CF9108958A
:102910004F925F927F928F929F92AF92BF92CF928F
:10292000DF92EF92FF920F931F93DF93CF93CDB778
:10293000DEB7A1970FB6F894DEBF0FBECDBF2C0156
:10294000742ECB01223008F42AE019A231E2C32E02
:10295000D12CCC0EDD1E822E9924AA24BB24672DF7
:10296000752FA501940149D479018A01C801B701E5
:10297000A501940104D4472D461B0894C108D10831
:102980004A3014F4405D01C0495CF6014083E11413
:10299000F1040105110521F07E2C5F2DC801DFCF68
:1029A000C201B60199DFA1960FB6F894DEBF0FBE43
:1029B000CDBFCF91DF911F910F91FF90EF90DF90EE
:1029C000CF90BF90AF909F908F907F905F904F90EF
:1029D0000895DC012115310541F4ED91FC91019040
:1029E000F081E02D642F1995089592CFEF92FF9218
:1029F0000F931F939A017B0100E010E0B801A7013B
:102A0000E8DF1F910F91FF90EF900895CF92DF9232
:102A1000EF92FF920F931F93CF93DF93EC016A0124
:102A20007B012115310541F4E881F9810190F081A4
:102A3000E02D642F19951DC02A303105C9F477FFA8
:102A400016C0E881F9810190F081E02D6DE21995C1
:102A50008C0144275527BA014C195D096E097F097D
:102A6000CE012AE055DF9801280F391F03C02AE064
:102A70004FDF9C01C901DF91CF911F910F91FF9012
:102A8000EF90DF90CF900895EF92FF920F931F93F6
:102A90007B019A010027F7FC0095102FB801A701D0
:102AA000B5DF1F910F91FF90EF900895CF92DF92C5
:102AB000EF92FF920F931F936C017B019A01002705
:102AC000F7FC0095102FB801A701A0DF8C01C6010B
:102AD000CCDE080F191FC8011F910F91FF90EF90D6
:102AE000DF90CF900895F8CE08957F928F929F92B5
:102AF000AF92BF92CF92DF92EF92FF920F931F930C
:102B0000CF93DF934C017A018B01722ECB01BA0176
:102B1000A801970130D3882321F0C40169E076E051
:102B20001FC0C0E0D0E057016801E894D7F8C601A3
:102B3000B5012FEF3FEF4FE75FE71DD3882349F43F
:102B4000C601B5012FEF3FEF4FE75FE75ED11816E3
:102B500014F0C1E0D0E0219731F0C4016DE076E0DF
:102B6000BBDEEC0184C0C801B7012FEF3FEF4FE798
:102B70005FE49AD218164CF0C801B7012FEF3FEF6F
:102B80004FE75FEC42D1882324F4C40161E176E091
:102B9000E7CFC801B70120E030E040E050E035D198
:102BA00087FD03C0C0E0D0E00EC0D401ED91FC91E0
:102BB0000190F081E02DC4016DE21995EC0117FB45
:102BC000109517F9109520E030E040E05FE3DD2438
:102BD0000AC0CA01B90120E030E040E251E419D155
:102BE0009B01AC01D394D714A0F3C801B701A9D0BD
:102BF0005B016C017BD17B018C01C401B801A70191
:102C00002AE030E0E6DEC80FD91F772031F0C4019A
:102C100065E176E061DEC80FD91FC801B70192D126
:102C20009B01AC01C601B5018BD01FC020E030E094
:102C300040E251E43DD27B018C0153D15B016C0138
:102C4000CC24B7FCC094DC2CC401B601A5012AE059
:102C500030E0DCDEC80FD91FC601B50175D19B017C
:102C6000AC01C801B7016CD07A947720F9F6CE0197
:102C7000DF91CF911F910F91FF90EF90DF90CF9058
:102C8000BF90AF909F908F907F9008952ECF089522
:102C9000EF92FF920F931F937C011EDE8C01C70100
:102CA000E4DD080F191FC8011F910F91FF90EF90ED
:102CB00008952F923F924F925F926F927F928F92E0
:102CC0009F92AF92BF92CF92DF92EF92FF920F93BB
:102CD0001F93DF93CF93CDB7DEB73B014C011901B2
:102CE0002A016E897F89888D998D6A197B098C09E3
:102CF0009D09621A730A840A950AA40193013FD2BE
:102D0000E218F30804091509A801970198D22A0DC1
:102D10003B1D4C1D5D1DB901CA01CF91DF911F9173
:102D20000F91FF90EF90DF90CF90BF90AF909F906A
:102D30008F907F906F905F904F903F902F9008956D
:102D40005058BB27AA270ED075C166D130F06BD181
:102D500020F031F49F3F11F41EF45BC10EF4E095B6
:102D6000E7FB51C1E92F77D180F3BA1762077307E8
:102D70008407950718F071F49EF58FC10EF4E09565
:102D80000B2EBA2FA02D0B01B90190010C01CA0125
:102D9000A0011124FF27591B99F0593F50F4503ED0
:102DA00068F11A16F040A22F232F342F4427585FC2
:102DB000F3CF469537952795A795F0405395C9F7DA
:102DC0007EF41F16BA0B620B730B840BBAF0915092
:102DD000A1F0FF0FBB1F661F771F881FC2F70EC031
:102DE000BA0F621F731F841F48F487957795679504
:102DF000B795F7959E3F08F0B3CF9395880F08F0ED
:102E00009927EE0F979587950895D9D008F481E01A
:102E100008950CD00FC107D140F0FED030F021F45E
:102E20005F3F19F0F0C0511139C1F3C014D198F3CC
:102E30009923C9F35523B1F3951B550BBB27AA273B
:102E400062177307840738F09F5F5F4F220F331FAD
:102E5000441FAA1FA9F333D00E2E3AF0E0E830D079
:102E600091505040E695001CCAF729D0FE2F27D07C
:102E7000660F771F881FBB1F261737074807AB074A
:102E8000B0E809F0BB0B802DBF01FF2793585F4FBF
:102E90002AF09E3F510568F0B6C000C15F3FECF3D9
:102EA000983EDCF3869577956795B795F7959F5F84
:102EB000C9F7880F911D9695879597F90895E1E0D8
:102EC000660F771F881FBB1F621773078407BA0737
:102ED00020F0621B730B840BBA0BEE1F88F7E09592
:102EE000089504D06894B111D9C00895BCD088F079
:102EF0009F5790F0B92F9927B751A0F0D1F0660FE6
:102F0000771F881F991F1AF0BA95C9F712C0B13000
:102F100081F0C3D0B1E00895C0C0672F782F882713
:102F2000B85F39F0B93FCCF3869577956795B3953F
:102F3000D9F73EF490958095709561957F4F8F4FAE
:102F40009F4F0895E89409C097FB3EF490958095B3
:102F5000709561957F4F8F4F9F4F9923A9F0F92F5F
:102F600096E9BB279395F695879577956795B795DD
:102F7000F111F8CFFAF4BB0F11F460FF1BC06F5FC3
:102F80007F4F8F4F9F4F16C0882311F096E911C0D5
:102F9000772321F09EE8872F762F05C0662371F0F6
:102FA00096E8862F70E060E02AF09A95660F771F0A
:102FB000881FDAF7880F9695879597F90895990FE6
:102FC0000008550FAA0BE0E8FEEF16161706E807F3
:102FD000F907C0F012161306E407F50798F0621B14
:102FE000730B840B950B39F40A2661F0232B242BE9
:102FF000252B21F408950A2609F4A140A6958FEF08
:10300000811D811D089597F99F6780E870E060E059
:1030100008959FEF80EC089500240A941616170671
:1030200018060906089500240A94121613061406B9
:1030300005060895092E0394000C11F4882352F01C
:10304000BB0F40F4BF2B11F460FF04C06F5F7F4FD4
:103050008F4F9F4F089557FD9058440F551F59F0BB
:103060005F3F71F04795880F97FB991F61F09F3F75
:1030700079F087950895121613061406551FF2CF9E
:103080004695F1DF08C0161617061806991FF1CFEE
:1030900086957105610508940895E894BB27662715
:1030A0007727CB0197F908958ADF08F48FEF089509
:1030B0000BD0C0CFB1DF28F0B6DF18F0952309F0B0
:1030C000A2CFA7CF1124EACFC6DFA0F3959FD1F3FB
:1030D000950F50E0551F629FF001729FBB27F00DC6
:1030E000B11D639FAA27F00DB11DAA1F649F66271B
:1030F000B00DA11D661F829F2227B00DA11D621F6A
:10310000739FB00DA11D621F839FA00D611D221F23
:10311000749F3327A00D611D231F849F600D211D07
:10312000822F762F6A2F11249F5750408AF0E1F0AA
:1031300088234AF0EE0FFF1FBB1F661F771F881FF3
:1031400091505040A9F79E3F510570F05CCFA6CF3B
:103150005F3FECF3983EDCF3869577956795B795DE
:10316000F795E7959F5FC1F7FE2B880F911D969508
:10317000879597F9089523DF880B990B0895629F2F
:10318000D001739FF001829FE00DF11D649FE00D5F
:10319000F11D929FF00D839FF00D749FF00D659FC0
:1031A000F00D9927729FB00DE11DF91F639FB00DBF
:1031B000E11DF91FBD01CF0111240895991B79E08C
:1031C00004C0991F961708F0961B881F7A95C9F7B7
:1031D0008095089597FB092E07260AD077FD04D025
:1031E00049D006D000201AF4709561957F4F08955C
:1031F000F6F7909581959F4F0895A1E21A2EAA1B8C
:10320000BB1BFD010DC0AA1FBB1FEE1FFF1FA21796
:10321000B307E407F50720F0A21BB30BE40BF50B93
:10322000661F771F881F991F1A9469F7609570951C
:10323000809590959B01AC01BD01CF01089597FB4E
:10324000092E05260ED057FD04D0D7DF0AD0001C6A
:1032500038F450954095309521953F4F4F4F5F4F33
:103260000895F6F790958095709561957F4F8F4FF3
:103270009F4F0895AA1BBB1B51E107C0AA1FBB1F8C
:10328000A617B70710F0A61BB70B881F991F5A95F2
:10329000A9F780959095BC01CD010895EE0FFF1F11
:0C32A0000590F491E02D1994F894FFCFF4
:1032AC004D4F57494E47004C41554E4348494E47A8
:1032BC0000545241434B494E4700444F434B494EF7
:1032CC0047004348415247494E4700444542554701
:1032DC0000434F4E464947555245005354415254B2
:1032EC0055500049444C450053544F50004C4546F2
:1032FC0054005249474854005374617274696E67A4
:10330C00206375747465722E2E2E00436F6E666981
:10331C00677572696E673A2046756C6C20746872BA
:10332C006F746C65202B2064656C617900436F6E43
:10333C006669677572696E673A20300053657474FC
:10334C00696E67206375747465725F7374617465FC
:10335C003D3000436F6E6669677572696E673A201F
:10336C0033207365636F6E6473206C6F77002A2053
:10337C0053657474696E67207570205243207265B2
:10338C006365697665720020202D20446F6E65217F
:10339C00002A2043616C6962726174696E67205205
:1033AC0043205A65726F2073746174650020202D60
:1033BC0020536C6F7720737461727400202020206E
:1033CC002D2000436F756E7465723A2000204C4DB1
:1033DC006F743A200020524D6F743A200020202D3B
:1033EC00204261636B696E67207570207769746821
:1033FC0020747769737420286F6E65207768656513
:10340C006C207265647563656420737065656429EE
:10341C002000207365636F6E64732E0020202D20B6
:10342C00446F6E65206261636B696E672075700016
:10343C0020202D204261636B696E6720757020001F
:10344C002A20726576657273654469726563746966
:10345C006F6E28290020202D206E65775F6C6566C5
:10346C0074446972656374696F6E3A2000206E65EE
:10347C00775F7269676874446972656374696F6EAB
:10348C003A2000206C6566744D6F746F72537065D2
:10349C0065643A20002072696768744D6F746F72AE
:1034AC0053706565643A200020202D206C6566748D
:1034BC004D6F746F7253706565643A200066617568
:1034CC006C74004572726F72206E756D6265723A23
:1034DC00200020202D206375747465725F737461F5
:1034EC0074653A2000233A20002042433A20002001
:1034FC004C433A20002052433A2000204C4D6F742C
:10350C006F7253703A200020524D6F746F7253706B
:10351C003A2000204375747465723A200020426191
:10352C0074746572793A20002028005629002053C3
:10353C00746174653A20002044656275673A200016
:10354C00204368617267653A20004F4B004E4F4B29
:10355C002100205243313A2000202F2000205243DA
:10356C00323A20003D3D3D3D3D3D3D3D3D3D3D3DE7
:10357C003D3D3D3D3D3D3D3D3D3D3D3D3D3D3D3D6F
:10358C003D3D3D3D3D3D3D3D3D3D3D3D3D3D3D3D5F
:10359C00002A205374617274696E67207570002064
:1035AC00202D2053746F7070696E6720656E67698B
:1035BC006E6573002A204D6F746F72206375727282
:1035CC00656E74207468726573686F6C64207265C4
:1035DC0061636865640020202D2000436175676875
:1035EC00742073657269616C0020202D2052656314
:1035FC0065697665643A200020202D205374617231
:10360C0074696E6720726F626F740020202D2052D7
:10361C006576657273696E6720726F626F740020D5
:10362C00202D205475726E696E67206C656674006F
:10363C0020202D205475726E696E67207269676840
:10364C00740020202D20546F67676C65206375749F
:10365C007465720020202D20546F67676C696E674B
:10366C0020646562756720666C61670020202D20E0
:10367C00546F67676C696E67207072696E74207323
:10368C007461747573206F75747075740020202DBF
:10369C002042756D700020202D2053746F7070695E
:1036AC006E6720726F626F74006E616E00696E6679
:1036BC00006F7666002E00010007004803B4052059
:1036CC000804005A05A406EE07FFFF0000E803EE0D
:1036DC000700FE0002E7FF1900E7FF190096000142
:1036EC000000000088120B141E124F122F127812B9
:00000001FF
