:1000000003C100002EC100002CC100002AC1000065
:1000100028C1000026C1000024C1000022C1000048
:1000200020C100001EC100001CC100001AC1000058
:1000300018C1000016C1000014C1000012C1000068
:1000400010C100000C947A0C0CC100000AC1000021
:1000500008C1000006C1000004C100000C94A70CF8
:1000600000C100000C943E100C948211FAC00000F4
:10007000F8C00000F6C00000F4C00000F2C00000AC
:100080000C944D0CEEC00000ECC00000EAC0000073
:100090000C947E100C94C111E4C00000E2C000007A
:1000A000E0C00000DEC000000C94200CDAC00000AC
:1000B000D8C00000D6C00000D4C000000C94F30BE0
:1000C000D0C00000CEC00000CCC000000C94BE1018
:1000D0000C940012C6C000000C94FE100C943F1249
:1000E000C0C0000000002100240027002A002D00CD
:1000F0003000330001010000040107010A01000083
:100100002200250028002B002E00310034000201BF
:100110000000050108010B0100002000230026005B
:1001200029002C002F00320000010000030106010D
:10013000090105050505070508080808020202026D
:100140000A0A080804040404010101010101010173
:100150000303030303030303040707070C0C0C0C3E
:100160000C0C0C0C02020202060606060606060627
:100170000B0B0B0B0B0B0B0B0102102020080810B4
:100180002040102040800201020108040201010207
:1001900004081020408080402010080402018004E0
:1001A000020180402010080402010804020101023B
:1001B0000408102040800102040810204080000044
:1001C000090A02080B0C0D070603040100000000D9
:1001D000000000000000000000000000000000001F
:1001E0000000000000000000000011100F000000DF
:1001F00000000000000000000000000000000000FF
:10020000000000003201AE1311241FBECFEFD1E277
:10021000DEBFCDBF00E00CBF16E0A0E0B2E0E8E733
:10022000F4E300E00BBF02C007900D92A037B107C6
:10023000D9F71BBE19E0A0E7B6E001C01D92AD3DA5
:10024000B107E1F712E0C8E0D2E004C02297FE0156
:100250000E94361AC430D107C9F70E94E4140C94E6
:100260003A1ACECE80E796E00E94C2098DE090E077
:1002700090938E0680938D068CE090E0909390068C
:1002800080938F068BE090E0909392068093910686
:1002900083E090E090939406809393068FEF9FEF16
:1002A0009093960680939506089580918506909187
:1002B00086068530910509F446C0863091059CF488
:1002C0008230910589F18330910534F4009711F162
:1002D000019709F05DC023C08330910551F1049767
:1002E00009F056C02BC088309105E1F189309105A5
:1002F0003CF48630910561F1079709F049C02DC0A3
:100300008A309105C9F18A3091058CF10B9709F07B
:100310003FC038C085E599E060E072E031C085E516
:1003200099E067E072E02CC085E599E061E172E058
:1003300027C085E599E06AE172E022C085E599E091
:1003400062E272E01DC085E599E06BE272E018C0E0
:1003500085E599E061E372E013C085E599E06BE320
:1003600072E00EC085E599E063E472E009C085E5BE
:1003700099E068E472E004C085E599E06DE472E01C
:100380000C94591685E599E062E572E00C945916D3
:10039000089580E796E06AE570E00E94180A1092DE
:1003A0007C0610927B060895682F80918F060C942E
:1003B0006F0FCF93DF93EC019093800680937F06BD
:1003C0008F3F910539F034F08FEF90E090938006E5
:1003D00080937F0680917F069091800681509F4F89
:1003E00034F481E09FEF9093800680937F066091C4
:1003F0007F067091800677FF03C0709561957F4FEF
:10040000809193060E94DE0D80E01C161D060CF400
:1004100081E0CADFDF91CF910895682F80918D062A
:100420000C946F0FCF93DF93EC0190937E06809333
:100430007D068F3F910539F034F08FEF90E0909377
:100440007E0680937D0680917D0690917E06815088
:100450009F4F34F481E09FEF90937E0680937D065A
:1004600060917D0670917E0677FF03C0709561955F
:100470007F4F809191060E94DE0D80E01C161D06C4
:100480000CF481E0CADFDF91CF910895CF93DF9321
:1004900085E599E06BE672E00E942E1785E599E00C
:1004A0006AE772E00E945916C0E0D0E0CE01BADFE0
:1004B000CE017FDF6FE070E080E090E00E94EF0C03
:1004C0002596CF3FD10591F78FEF90E0ABDF8FEF0F
:1004D00090E06FDFDF91CF91089580E090E0A2DFA0
:1004E00080E090E066DF68EC70E080E090E00C94E3
:1004F000EF0C0F931F9305E519E0C80161E872E066
:100500000E9459166091870670918806C8014AE0DA
:1005100050E00E942A16C8016BE872E00E9459164A
:100520006091810670918206C8014AE050E00E9405
:100530002A16C80163E972E00E9459166091830689
:1005400070918406C8014AE050E00E942A16C80152
:100550000E941B151F910F910895CF92DF92EF9289
:10056000FF920F931F938C0185E5C82E89E0D82E4A
:10057000C6016BE972E00E945916C601B8014AE053
:1005800050E00E942A16C60160ED72E00E945916E2
:1005900080E090E047DF80E090E00BDF81E09FEFBC
:1005A00041DF81E09FEF05DFC80162E070E00E945B
:1005B000D0197B010027F7FC0095102FC801B70167
:1005C0000E94EF0C8FEF90E0F4DEC801B7010E94AB
:1005D000EF0C80E090E026DF80E090E0EADEC601EC
:1005E0006AED72E00E942E1764E670E080E090E011
:1005F0000E94EF0C1F910F91FF90EF90DF90CF9032
:1006000008954F925F926F927F928F929F92AF92D6
:10061000BF92CF92DF92EF92FF920F931F93CF93EF
:10062000DF9385E599E06EEF72E00E942E17C0918E
:100630007D06D0917E061C161D063CF051E0452E2D
:10064000512C41E0642E712C06C044244A94542C51
:1006500066246A94762C85E599E063E173E00E9454
:10066000591685E599E0B3014AE050E00E942A1648
:1006700085E599E06BE273E00E94591685E599E003
:10068000B2014AE050E00E942A1685E599E061E453
:1006900073E00E94591685E599E0BE014AE050E0FA
:1006A0000E942A1685E599E063E573E00E945916D9
:1006B00085E599E0BE014AE050E00E942A1685E5F2
:1006C00099E00E941B157E01D7FF04C0F094E194CD
:1006D000F108F3944301880C991C880C991C860C32
:1006E000971C5201AA0CBB1CAA0CBB1CA40CB51C69
:1006F000CC24DD2400E010E0C0E0D0E0C80192DEB0
:10070000CE0157DE85E599E066E673E00E94591652
:1007100085E599E0B8014AE050E00E942A1685E597
:1007200099E063E573E00E94591685E599E0BE0102
:100730004AE050E00E942A1685E599E00E941B15C8
:100740006FE070E080E090E00E94EF0C85E090E0C8
:10075000C80ED91E080D191DCA0DDB1D9FEFC91645
:10076000D10461F66E9CC0016F9C900D7E9C900D33
:10077000112458DE4E9CC0014F9C900D5E9C900D44
:10078000112417DEDF91CF911F910F91FF90EF9011
:10079000DF90CF90BF90AF909F908F907F906F90A1
:1007A0005F904F900895CF92DF92EF92FF920F9358
:1007B0001F9375E5E72E79E0F72E60917B06709127
:1007C0007C06C7014AE050E00E943C1600917B067F
:1007D00010917C0681E090E00827192760E9C62E79
:1007E00063E0D62EC701B6010E94591660917B06C0
:1007F00070917C06C7014AE050E00E943C161093BD
:100800007C0600937B06C701B6010E9459166091D1
:100810007B0670917C06C7014AE050E00E943C16BE
:100820001F910F91FF90EF90DF90CF90089587E395
:100830000C94AA0D86E30C94AA0D88E30C94AA0DDF
:100840004F925F926F927F928F929F92AF92BF92E0
:10085000CF92DF92EF92FF920F931F93CF93DF938C
:10086000EC01219700D00F92DE01AA0FBB1FFD0102
:10087000EB58F94F60817181882777FD8095982F1B
:100880002E01440C551C440C551CF201EE0FFF1FA9
:10089000EB5CF94F20813181442737FD4095542F7F
:1008A000FE0113E0EE0FFF1F1A95E1F7ED5CF94F23
:1008B000E680F7800027F7FC0095102FEBE4F6E0C8
:1008C0004E0E5F1EF201A080B180CC24B7FCC09414
:1008D000DC2CAA0FBB1FA35BB94F6D907C908824C2
:1008E00077FC8094982CEDB7FEB761827282838288
:1008F00094820E943F17F20140815181CB010F90F9
:100900000F900F900F90641775070CF4CA01CC0F6D
:10091000DD1FCC0FDD1FC35BD94FA881B9819C01BE
:10092000A817B9070CF49D01C901DF91CF911F9160
:100930000F91FF90EF90DF90CF90BF90AF909F907E
:100940008F907F906F905F904F90089580913106C7
:1009500090913206019709F048C185E599E063EA74
:1009600073E00E945916609187067091880685E5AC
:1009700099E04AE050E00E942A1685E599E067EA8E
:1009800073E00E9459166091890670918A0685E588
:1009900099E04AE050E00E942A1685E599E06DEA68
:1009A00073E00E945916609181067091820685E578
:1009B00099E04AE050E00E942A1685E599E063EB51
:1009C00073E00E945916609183067091840685E554
:1009D00099E04AE050E00E942A1685E599E069EB2B
:1009E00073E00E94591660917D0670917E0685E540
:1009F00099E04AE050E00E942A1685E599E065EC0E
:100A000073E00E94591660917F067091800685E51B
:100A100099E04AE050E00E942A1685E599E061EDF0
:100A200073E00E94591660917B0670917C0685E503
:100A300099E04AE050E00E942A1685E599E06BEDC6
:100A400073E00E94591660918B0670918C0685E5C3
:100A500099E04AE050E00E942A1685E599E066EEAA
:100A600073E00E94591660918B0670918C0688275E
:100A700077FD8095982F0E948A1820E030E04CEA9C
:100A800051E40E943E1920E030E040E85AE30E9421
:100A90003E19AB01BC0185E599E022E030E00E94FF
:100AA0002C1785E599E069EE73E00E94591685E5FB
:100AB00099E06CEE73E00E945916F7DB85E599E04A
:100AC00065EF73E00E945916609173067091740689
:100AD00085E599E04AE050E00E942A1685E599E014
:100AE0006EEF73E00E94591660918B0670918C0630
:100AF000882777FD8095982F0E948A1820E030E89B
:100B000049E054E40E943A1918162CF485E599E05E
:100B100068E074E004C085E599E06BE074E00E9451
:100B2000591685E599E060E174E00E94591681E06C
:100B300090E086DEBC0185E599E04AE050E00E9445
:100B40002A1685E599E067E174E00E9459166091E4
:100B500075067091760685E599E04AE050E00E94BE
:100B60002A1685E599E067E174E00E9459166091C4
:100B700037067091380685E599E04AE050E00E941A
:100B80002A1685E599E06BE174E00E94591682E02F
:100B900090E056DEBC0185E599E04AE050E00E9415
:100BA0002A1685E599E067E174E00E945916609184
:100BB00077067091780685E599E04AE050E00E945A
:100BC0002A1685E599E067E174E00E945916609164
:100BD0003F067091400685E599E04AE050E00E94AA
:100BE0002A1685E599E00C941B150895EF92FF9263
:100BF0000F931F9305E519E0C8010E941B1542E2FF
:100C0000E42E44E0F42EC801B7010E942E17C8015B
:100C10006FE474E00E942E17C801B7010E942E17DE
:100C2000C8016DE574E00E942E17C8016AE772E002
:100C30000E9459168BDE80E090E0F4DB80E090E0CB
:100C4000B8DB68EE73E080E090E0C9D61F910F91A9
:100C5000FF90EF900895CF93DF9381E090E0F0DD77
:100C6000EC018FEFCC3ED8073CF4CE0181509F4F72
:100C7000D9DB8FEF90E00AC0C531D10544F08FEF8A
:100C800090E0D0DB8FEF90E08C1B9D0B92DB6396A6
:100C9000A79730F48FEF90E0C5DB8FEF90E089DB12
:100CA000DF91CF910895FC0153E0EE0FFF1F5A959D
:100CB000E1F7E55DF94F808161E028EA31E640E047
:100CC00050E00E94A10FCB0108950F931F93CF9383
:100CD000DF93B3DD90938C0680938B06ABDD90930E
:100CE000820680938106A3DD909384068093830619
:100CF00081E090E0D8DF909376068093750682E0DD
:100D000090E0D1DF909378068093770682E090E0C0
:100D100097DD409754F08091850690918606892B47
:100D200021F0109286061092850682E090E088DD20
:100D3000815F9F4F64F48091850690918606892B90
:100D400031F489E090E09093860680938506809147
:100D50008506909186068930910509F4B1C08A30E4
:100D600091055CF48530910509F476C087309105D2
:100D700009F470C0892B69F0AAC08B30910509F481
:100D800087C08B3091050CF474C00C9709F09FC09C
:100D90002BC061DF8091730690917406892BF9F462
:100DA0008091810690918206059734F480918306A4
:100DB0009091840605979CF08091890690918A060F
:100DC000019690938A068093890605970CF47FC05C
:100DD00010928A06109289068CE090E074C01092FE
:100DE0008A061092890673C0D4DA85E599E062E735
:100DF00074E00E942E1785E599E064E974E00E9492
:100E0000591685E599E06DEA73E00E94591612DDE6
:100E1000BC0185E599E04AE050E00E94DC1585E5DB
:100E200099E063EB73E00E94591601DDBC0185E592
:100E300099E04AE050E00E94DC1585E599E00E94C7
:100E40001B158CED95E089DB21DB10928606109254
:100E500085063DC0CBDE35C0C0E0D0E04ADB64EFA4
:100E600071E080E090E0BBD52196CA30D105B1F7A2
:100E70002EC000917D0610917E0680E090E0D2DACF
:100E800068EE73E080E090E0AAD5C801CBDA0EC02E
:100E900000917F061091800680E090E08ADA68EE8B
:100EA00073E080E090E09BD5C80183DA109286065B
:100EB0001092850664E670E080E090E090D507C06F
:100EC0000CDB88E090E0909386068093850685E5AC
:100ED00099E00E940413892B09F4B3C085E599E0D9
:100EE0000E943513082F85E599E069E974E00E94B6
:100EF0002E1785E599E067EA74E00E94591685E5AA
:100F000099E0602F0E943B15033799F48091850684
:100F100090918606892B09F4A8C085E599E066EBD7
:100F200074E00E942E171092860610928506AEDAA3
:100F300088C0043679F48091850690918606892BC5
:100F400009F07FC085E599E069EC74E00E942E17F6
:100F500058DB77C00C3681F4809185069091860627
:100F6000892B09F06EC085E599E06DED74E00E9473
:100F70002E178AE090E061C0023781F480918506E7
:100F800090918606892B09F05CC085E599E06EEEAC
:100F900074E00E942E178BE090E04FC0033699F466
:100FA0008091850690918606892B09F04AC085E5D7
:100FB00099E060E075E00E942E17F5DB109286063E
:100FC000109285063EC0043499F485E599E062E10B
:100FD00075E00E942E17809173069091740621E0AF
:100FE00030E082279327909374068093730629C07C
:100FF000003799F485E599E06AE275E00E942E17C2
:10100000809131069091320621E030E082279327CB
:10101000909332068093310614C0023691F4809189
:10102000850690918606892B61F485E599E06BE44D
:1010300075E00E942E178CE090E0909386068093D6
:10104000850684DC809187069091880601969093AE
:1010500088068093870664E670E080E090E0BFD465
:10106000DF91CF911F910F91089585E599E064E597
:1010700075E00E942E1789E090E0DFCF4F925F92DB
:101080006F927F928F929F92AF92BF92CF92DF9298
:10109000EF92FF920F931F93DF93CF9300D000D076
:1010A000CDB7DEB7DE011196EAE5F6E086E0019005
:1010B0000D928150E1F7882499242E010894411C57
:1010C000511C49C00894C11CD11CC601ECDD7C0137
:1010D000F50100811181080F191F019311935F0120
:1010E00085E599E067E675E00E94591685E599E087
:1010F000B6014AE050E00E942A1685E599E065E7CE
:1011000075E00E94591685E599E0B8014AE050E083
:101110000E942A1685E599E068E775E00E94591655
:1011200085E599E0B7014AE050E00E942A16F2E016
:10113000CF16D10439F685E599E00E941B1564E6C7
:1011400070E080E090E04BD40894811C911C85E015
:101150008816910429F032015201CC24DD24B2CF4B
:1011600005E316E0CC24DD24F301819191913F0148
:1011700065E070E00E94D019F8017383628380817A
:101180009181860F971F9183808384819581860F3B
:10119000971F9583848385E599E06AE775E00E944F
:1011A00059160894C11CD11C85E599E0B6014AE0A6
:1011B00050E00E942A1685E599E065E775E00E94F7
:1011C0005916F8016281738185E599E04AE050E0A3
:1011D0000E942A16085F1F4FF2E0CF16D10421F6B5
:1011E00085E599E00E941B1526960FB6F894DEBFA0
:1011F0000FBECDBFCF91DF911F910F91FF90EF9068
:10120000DF90CF90BF90AF909F908F907F906F9026
:101210005F904F900895CF93DF9387E090E0909395
:1012200086068093850685E599E040E052EC61E012
:1012300070E00E947E1286E061E09ED580918D066E
:1012400061E09AD580918F0661E096D580919106F4
:1012500061E092D58091930661E08ED580E796E0BB
:1012600066E070E0FBD18091850690918606069736
:1012700031F580E796E064EB70E0DAD085E599E03F
:1012800061E875E00E942E1768EB7BE080E090E05B
:10129000A6D385E599E063EA75E00E942E1780E702
:1012A00096E060E070E0C4D068EB7BE080E090E026
:1012B00096D385E090E0909386068093850685E539
:1012C00099E062EB75E00E942E1710927C06109256
:1012D0007B0685E599E069EC75E00E942E17C0E079
:1012E000D0E080E796E06AE570E0A2D061E070E0CF
:1012F00080E090E074D321968BE0C83BD80789F753
:1013000080915706909158068739910534F086E907
:1013100090E090935806809357063BD880919106B1
:1013200068EC70E04BD48091930668EC70E046D492
:1013300080918D0660E0D3D580918F0660E0CFD597
:1013400085E599E064EE75E00E942E1787E060E085
:1013500013D584E060E010D585E599E06DEF75E088
:101360000E942E1785E599E067E076E00E942E172F
:1013700085DE85E599E06DEF75E00E942E17DF911F
:10138000CF910895FC0180919706803390F480837B
:101390008F5F80939706815090E0FC01EE0FFF1F56
:1013A000E80FF91FE856F94F88EB9BE092838183A1
:1013B00008958FEF80830895FC0120812033B8F5D4
:1013C0008181992787FD909548E850E0481B590B8B
:1013D000440F551F440F551F6417750784F0828111
:1013E000992787FD909548E552E0481B590B440F1B
:1013F000551F440F551F641775070CF4AB0142507D
:101400005040CA01AA2797FDA095BA2F880F991FAF
:10141000AA1FBB1F4FB7F89430E0F901EE0FFF1F72
:10142000E20FF31FE856F94F928381834FBF08956F
:10143000AF92BF92CF92DF92EF92FF920F931F93E2
:10144000CF93DF93EC019B0182E0603278070CF0D0
:1014500048C077FF03C020E030E005C0653B710560
:1014600014F024EB30E000D00F92B901882777FD0B
:101470008095982F2981332727FD3095E8E8AE2EF7
:10148000B12CA21AB30AAA0CBB1CAA0CBB1CCC24FC
:10149000B7FCC094DC2CEA81FF27E7FDF09528E536
:1014A00032E02E1B3F0B220F331F220F331F442726
:1014B00037FD4095542FEDB7FEB721833283438328
:1014C000548320E030E040E050E004EBE02EF12CCB
:1014D000012D112D0E943F179B010F900F900F902F
:1014E0000F90CE01B90168DFDF91CF911F910F916D
:1014F000FF90EF90DF90CF90BF90AF900895CF9284
:10150000DF92EF92FF921F93CF93DF93EC01162FA0
:101510007A0169018881803308F092C0862F61E0EA
:101520002BD4888190E0FC01EE0FFF1FE80FF91F1C
:10153000E856F94F1F738081807C812B808380E285
:1015400092E08E199F0964E070E00E94D0196983CF
:1015500080E699E08C199D0964E070E00E94D01942
:101560006A83A8818A2F6CE00E94C419682F70E0FA
:10157000AB01440F551F460F571F440F551F440F13
:10158000551F20E030E0C901840F951FFC01EE0FCC
:10159000FF1FE80FF91FE856F94F808186FD44C010
:1015A0002F5F3F4F2C30310571F753C010928000F0
:1015B00082E0809381001092850010928400B19A9D
:1015C00080916F00826080936F002EC06230710541
:1015D00069F41092900082E080939100109295003F
:1015E0001092940088BB809371001EC06330710517
:1015F00069F41092A00082E08093A1001092A500EF
:101600001092A40089BB809372000EC0672B61F416
:101610001092200182E08093210110922501109206
:1016200024018ABB809373008A2F90E0FC01EE0FA7
:10163000FF1FE80FF91FE856F94F8081806480830F
:101640008881DF91CF911F91FF90EF90DF90CF9035
:1016500008956130710509F0B9CFA8CF40E252E09A
:1016600020E639E04CCFEF92FF920F931F93CF9378
:10167000DF938B017A01EC01DC01A85DB84F8C91FE
:1016800087FF04C0FB011182108236C0AE01440FF7
:10169000551F4C0F5D1F440F551F440F551F2C91B4
:1016A000332727FD3095240F351F8091970690E052
:1016B000281739070CF58C91992787FD9095840F91
:1016C000951FFC01EE0FFF1FE80FF91FE856F94FB9
:1016D000808186FF11C08C91992787FD9095840F9A
:1016E000951FFC01EE0FFF1FE80FF91FE856F94F99
:1016F00080818F7360E0F3D3DE01A85DB84F8C91D9
:101700008F5F8C93AE01440F551F4C0F5D1F440F2C
:10171000551F440F551F2C91332727FD3095240F5B
:10172000351F8091970690E0281739070CF04CC0C0
:101730008C918C300CF048C0F801208131818C9163
:10174000992787FD9095840F951FFC01EE0FFF1FD1
:10175000E80FF91FE856F94F81819281280F391F50
:10176000F701318320838C91992787FD9095840F11
:10177000951FFC01EE0FFF1FE80FF91FE856F94F08
:10178000808186FF29C08C91992787FD9095840FD1
:10179000951FFC01EE0FFF1FE80FF91FE856F94FE8
:1017A00080818F7361E09BD317C080E49CE904C003
:1017B000F801808191810496F70191838083C85D4F
:1017C000D84F8FEF888308C0F801808191810496FB
:1017D00080549C4950F3ECCFDF91CF911F910F9132
:1017E000FF90EF9008951F920F920FB60F920BB6D5
:1017F0000F9211242F933F934F935F936F937F9397
:101800008F939F93AF93BF93EF93FF9380E090E00C
:1018100064E271E048E251E026DFFF91EF91BF9171
:10182000AF919F918F917F916F915F914F913F9178
:101830002F910F900BBE0F900FBE0F901F90189519
:101840001F920F920FB60F920BB60F9211242F9387
:101850003F934F935F936F937F938F939F93AF9338
:10186000BF93EF93FF9383E090E064EA70E048EA6F
:1018700050E0F9DEFF91EF91BF91AF919F918F9171
:101880007F916F915F914F913F912F910F900BBE80
:101890000F900FBE0F901F9018951F920F920FB6CA
:1018A0000F920BB60F9211242F933F934F935F9398
:1018B0006F937F938F939F93AF93BF93EF93FF9318
:1018C00082E090E064E970E048E950E0CCDEFF910E
:1018D000EF91BF91AF919F918F917F916F915F91A8
:1018E0004F913F912F910F900BBE0F900FBE0F9015
:1018F0001F9018951F920F920FB60F920BB60F9272
:1019000011242F933F934F935F936F937F938F9304
:101910009F93AF93BF93EF93FF9381E090E064E8D0
:1019200070E048E850E09FDEFF91EF91BF91AF91EA
:101930009F918F917F916F915F914F913F912F91E7
:101940000F900BBE0F900FBE0F901F9018951F9217
:101950000F920FB60F9211242F933F938F939F9363
:10196000AF93BF938091300790913107A0913207D8
:10197000B0913307309134070196A11DB11D232F7B
:101980002D5F2D3720F02D570196A11DB11D2093FD
:1019900034078093300790933107A0933207B093B8
:1019A000330780912C0790912D07A0912E07B091BD
:1019B0002F070196A11DB11D80932C0790932D0731
:1019C000A0932E07B0932F07BF91AF919F918F9156
:1019D0003F912F910F900FBE0F901F9018959B0174
:1019E000AC017FB7F89480912C0790912D07A091BE
:1019F0002E07B0912F0766B5A89B05C06F3F19F061
:101A00000196A11DB11D7FBFBA2FA92F982F88273E
:101A1000860F911DA11DB11D62E0880F991FAA1F9D
:101A2000BB1F6A95D1F7BC012DC0FFB7F894809118
:101A30002C0790912D07A0912E07B0912F07E6B5A6
:101A4000A89B05C0EF3F19F00196A11DB11DFFBF76
:101A5000BA2FA92F982F88278E0F911DA11DB11D78
:101A6000E2E0880F991FAA1FBB1FEA95D1F7861BDA
:101A7000970B885E9340C8F2215030404040504060
:101A800068517C4F211531054105510571F60895C6
:101A9000789484B5826084BD84B5816084BD85B549
:101AA000826085BD85B5816085BDEEE6F0E0808110
:101AB00081608083E1E8F0E0108280818260808331
:101AC000808181608083E0E8F0E0808181608083B4
:101AD000E1EBF0E0808184608083E0EBF0E08081E6
:101AE00081608083E1E9F0E0808182608083808191
:101AF00081608083E0E9F0E0808181608083E1EAB9
:101B0000F0E0808182608083808181608083E0EA70
:101B1000F0E0808181608083E1E2F1E08081826099
:101B20008083808181608083E0E2F1E08081816058
:101B30008083EAE7F0E08081846080838081826036
:101B4000808380818160808380818068808310921F
:101B5000C1000895382F863308F0365320917B005A
:101B6000832F86958695869590E08170907043E0EE
:101B7000880F991F4A95E1F7277F282B20937B0038
:101B80003770809159068295880F880F807C832B4F
:101B900080937C0080917A00806480937A008091A9
:101BA0007A0086FDFCCF2091780040917900942F37
:101BB00080E030E0282B392BC90108951F93CF9383
:101BC000DF93182FEB0161E0D7D0209709F4CAC04A
:101BD000CF3FD10509F4C9C0E12FF0E0E254FE4F38
:101BE0008491893009F466C08A30B0F48430F1F110
:101BF000853040F4823059F1833070F5813009F03E
:101C0000AEC020C0873009F443C0883008F048C017
:101C1000863009F0A4C034C08D3009F478C08E300D
:101C200038F48B3009F45AC08C3008F066C04CC0D0
:101C3000803109F480C0813109F487C08F3009F008
:101C40008EC06FC084B5806884BDC7BD91C084B5A7
:101C5000806284BDC8BD8CC0809180008068809304
:101C60008000D0938900C093880082C0809180005A
:101C7000806280938000D0938B00C0938A0078C0EC
:101C80008091B00080688093B000C093B30070C0B2
:101C90008091B00080628093B000C093B40068C0AF
:101CA00080919000806880939000D0939900C093B9
:101CB00098005EC080919000806280939000D093E5
:101CC0009B00C0939A0054C08091900088608093DC
:101CD0009000D0939D00C0939C004AC08091A000CA
:101CE00080688093A0008091A0008F7B8093A000EB
:101CF000D093A900C093A8003BC08091A00080624F
:101D00008093A000D093AB00C093AA0031C0809113
:101D1000A00088608093A000D093AD00C093AC0079
:101D200027C080912001806880932001D0932901F1
:101D3000C09328011DC08091200180628093200102
:101D4000D0932B01C0932A0113C080912001886099
:101D500080932001D0932D01C0932C0109C0C0387D
:101D6000D1051CF4812F60E002C0812F61E0B7D063
:101D7000DF91CF911F910895CF93DF93482F50E0CB
:101D8000CA0188589E4FFC0134914E5C5E4FFA01A7
:101D90008491882369F190E0880F991FFC01EC5130
:101DA000FF4FA591B491FC01E250FF4FC591D49132
:101DB000662351F42FB7F8948C91932F9095892333
:101DC0008C93888189230BC0623061F42FB7F8941B
:101DD0008C91932F909589238C938881832B888372
:101DE0002FBF06C09FB7F8948C91832B8C939FBF15
:101DF000DF91CF910895893009F449C08A30A0F469
:101E0000843051F1853040F4823079F1833000F52F
:101E1000813009F063C026C0873079F1883098F5A9
:101E2000863009F05BC025C08D3009F442C08E3089
:101E300028F48B30B1F18C30C0F52DC0803109F41D
:101E400042C0813109F445C08F3009F047C037C026
:101E5000809180008F7703C0809180008F7D809378
:101E60008000089584B58F7702C084B58F7D84BDCE
:101E700008958091B0008F7703C08091B0008F7D6E
:101E80008093B0000895809190008F7707C0809173
:101E900090008F7D03C080919000877F8093900099
:101EA00008958091A0008F7707C08091A0008F7D5A
:101EB00003C08091A000877F8093A0000895809147
:101EC00020018F7703C0809120018F7D80932001B6
:101ED000089580912001877F809320010895FF92CB
:101EE0000F931F93F62E482F50E0CA0182549E4F45
:101EF000FC012491CA0188589E4FFC0114914E5C4C
:101F00005E4FFA0104910023C1F0222311F0822FC9
:101F100072DFE02FF0E0EE0FFF1FE250FF4FA591C0
:101F2000B4919FB7F894FF2021F48C9110958123F0
:101F300002C08C91812B8C939FBF1F910F91FF90BA
:101F400008958F929F92AF92BF92CF92DF92EF92BD
:101F5000FF920F931F93CF93DF93A82FB0E0CD0193
:101F600088589E4FFC018490AE5CBE4FFD01849169
:101F7000662311F4992401C0982C6FEFA62E6FEF01
:101F8000B62E6FEFC62E6FE0D62EA222B322C42249
:101F9000D522682F70E0660F771F685E7E4FEE24B3
:101FA000FF248701FB01A591B4910BC0EA14FB0447
:101FB0000C051D0509F44EC00894E11CF11C011D1F
:101FC000111D8C918821891589F30CC0EA14FB043A
:101FD0000C051D0509F43EC00894E11CF11C011D0F
:101FE000111D03C0FB01A591B4918C918821891525
:101FF00069F720E030E040E050E0FB01C591D4916A
:102000000FC0DA01C9018E0D9F1DA01FB11F8A15D7
:102010009B05AC05BD05F1F02F5F3F4F4F4F5F4F64
:1020200088818821891569F3CA01B90125E130E069
:1020300040E050E00E94A5199B01AC01205F3F4F9A
:102040004F4F5F4F84E056954795379527958A9572
:10205000D1F704C020E030E040E050E0B901CA010F
:10206000DF91CF911F910F91FF90EF90DF90CF9074
:10207000BF90AF909F908F90089508951F920F92F8
:102080000FB60F920BB60F9211242F933F934F93DD
:102090008F939F93EF93FF938091C00082FD1DC0AB
:1020A0004091C60020917507309176072F5F3F4F12
:1020B0002F73307080917707909178072817390730
:1020C00071F0E0917507F0917607EB5CF84F408373
:1020D000309376072093750702C08091C600FF9168
:1020E000EF919F918F914F913F912F910F900BBE48
:1020F0000F900FBE0F901F90189508951F920F928A
:102100000FB60F920BB60F9211242F933F934F935C
:102110008F939F93EF93FF938091C80082FD1DC022
:102120004091CE002091FD073091FE072F5F3F4F79
:102130002F7330708091FF0790910008281739079E
:1021400071F0E091FD07F091FE07E354F84F4083F2
:102150003093FE072093FD0702C08091CE00FF91CF
:10216000EF919F918F914F913F912F910F900BBEC7
:102170000F900FBE0F901F90189508951F920F9209
:102180000FB60F920BB60F9211242F933F934F93DC
:102190008F939F93EF93FF938091D00082FD1DC09A
:1021A0004091D60020918508309186082F5F3F4FDF
:1021B0002F7330708091870890918808281739070D
:1021C00071F0E0918508F0918608EB5BF74F408352
:1021D000309386082093850802C08091D600FF9135
:1021E000EF919F918F914F913F912F910F900BBE47
:1021F0000F900FBE0F901F90189508951F920F9289
:102200000FB60F920BB60F9211242F933F934F935B
:102210008F939F93EF93FF938091300182FD1DC0B8
:102220004091360120910D0930910E092F5F3F4FEB
:102230002F73307080910F0990911009281739077A
:1022400071F0E0910D09F0910E09E353F74F4083CF
:1022500030930E0920930D0902C080913601FF9141
:10226000EF919F918F914F913F912F910F900BBEC6
:102270000F900FBE0F901F901895E0916109F0919B
:102280006209E05CFF4F8191919120813181821B35
:10229000930B8F739070892B09F0EFDEE091830927
:1022A000F0918409E05CFF4F81919191208131810F
:1022B000821B930B8F739070892B09F01EDFE091C6
:1022C000A509F091A609E05CFF4F819191912081D1
:1022D0003181821B930B8F739070892B09F04DDF36
:1022E000E091C709F091C809E05CFF4F819191919D
:1022F00020813181821B930B8F739070892B09F0A1
:102300007CCF08951F920F920FB60F920BB60F92CB
:1023100011242F933F938F939F93EF93FF932091DB
:10232000B9073091BA078091BB079091BC07281775
:10233000390731F48091C1008F7D8093C10014C0B2
:10234000E091BB07F091BC07E758F84F20818091DE
:10235000BB079091BC0701968F7390709093BC0758
:102360008093BB072093C600FF91EF919F918F91BF
:102370003F912F910F900BBE0F900FBE0F901F90AB
:1023800018951F920F920FB60F920BB60F92112451
:102390002F933F938F939F93EF93FF932091410847
:1023A00030914208809143089091440828173907DA
:1023B00031F48091C9008F7D8093C90014C0E091F1
:1023C0004308F0914408EF5FF74F20818091430864
:1023D0009091440801968F73907090934408809375
:1023E00043082093CE00FF91EF919F918F913F91F1
:1023F0002F910F900BBE0F900FBE0F901F9018954E
:102400001F920F920FB60F920BB60F9211242F93BB
:102410003F938F939F93EF93FF932091C90830913F
:10242000CA088091CB089091CC082817390731F45D
:102430008091D1008F7D8093D10014C0E091CB08B2
:10244000F091CC08E757F74F20818091CB0890910D
:10245000CC0801968F7390709093CC088093CB0832
:102460002093D600FF91EF919F918F913F912F91F3
:102470000F900BBE0F900FBE0F901F9018951F92DC
:102480000F920FB60F920BB60F9211242F933F931A
:102490008F939F93EF93FF932091510930915209AD
:1024A00080915309909154092817390731F480918C
:1024B00031018F7D8093310114C0E0915309F09177
:1024C0005409EF5EF64F2081809153099091540991
:1024D00001968F73907090935409809353092093C1
:1024E0003601FF91EF919F918F913F912F910F9026
:1024F0000BBE0F900FBE0F901F901895AF92BF921A
:10250000DF92EF92FF920F931F93CF93DF93EC0133
:102510007A018B01DD24403081EE580780E06807A6
:1025200080E0780711F0DD24D39491E0A92EB12C3E
:10253000EC89FD89DD2069F0C50108A002C0880F83
:10254000991F0A94E2F7808360E079E08DE390E0E0
:1025500005C0108260E874E88EE190E0A801970160
:1025600032D72150304040405040569547953795DE
:10257000279580E12030380720F0DD2011F0DD24A0
:10258000D7CFE889F9893083EA89FB89208319A2AA
:10259000EE89FF89408121E030E0C9010C8C02C046
:1025A000880F991F0A94E2F7482B4083EE89FF8930
:1025B0004081C9010D8C02C0880F991F0A94E2F76F
:1025C000482B4083EE89FF894081C9010E8C02C0EF
:1025D000880F991F0A94E2F7482B4083EE89FF8900
:1025E00080810F8C02C0220F331F0A94E2F72095DE
:1025F00028232083DF91CF911F910F91FF90EF90BF
:10260000DF90BF90AF900895DC011C96ED91FC9196
:102610001D97E05CFF4F2191319180819181281BB2
:10262000390B2F733070C9010895DC011C96ED91B0
:10263000FC911D97E05CFF4F20813181E054F04018
:10264000DF01AE5BBF4F8D919C9111972817390721
:1026500019F42FEF3FEF07C08D919C91E80FF91F00
:102660008081282F30E0C9010895DC011C96ED918E
:10267000FC911D97E05CFF4F20813181E054F040D8
:10268000DF01AE5BBF4F8D919C91119728173907E1
:1026900019F42FEF3FEF10C08D919C911197E80F27
:1026A000F91F20818D919C91119701968F739070E5
:1026B00011969C938E9330E0C9010895DC019196A8
:1026C0008C919197882339F05496ED91FC91559710
:1026D000808186FFF9CF91961C920895CF93DF9366
:1026E000EC01EE85FF85E05CFF4F20813181E054F5
:1026F000F0402F5F3F4F2F733070DF01AE5BBF4F55
:102700008D919C91119728173907D1F3E05CFF4F09
:1027100080819181E054F040E80FF91F6083EE85DD
:10272000FF85E05CFF4F31832083EE89FF892081A4
:1027300081E090E00F8C02C0880F991F0A94E2F7A5
:10274000282B208381E089A3EC89FD898081806426
:10275000808381E090E0DF91CF9108951F931092E4
:1027600058091092570928EE33E040E050E02093DA
:10277000590930935A0940935B0950935C0964E608
:1027800076E0709356096093550985E397E090933E
:1027900062098093610989E797E0909364098093C7
:1027A000630985EC90E0909366098093650984EC59
:1027B00090E0909368098093670980EC90E0909393
:1027C0006A098093690981EC90E090936C09809389
:1027D0006B0982EC90E090936E0980936D0986EC12
:1027E00090E09093700980936F0914E01093710941
:1027F000B3E0B0937209A7E0A0937309F5E0F093FA
:102800007409E1E0E093750910927A091092790950
:1028100020937B0930937C0940937D0950937E0976
:1028200070937809609377098DEB97E09093840912
:102830008093830981E098E09093860980938509CD
:102840008DEC90E090938809809387098CEC90E060
:1028500090938A098093890988EC90E090938C0981
:1028600080938B0989EC90E090938E0980938D0979
:102870008AEC90E09093900980938F098EEC90E021
:10288000909392098093910910939309B0939409BE
:10289000A0939509F0939609E093970910929C09EB
:1028A00010929B0920939D0930939E0940939F09A4
:1028B0005093A00970939A096093990985E498E070
:1028C0009093A6098093A50989E898E09093A809B8
:1028D0008093A70985ED90E09093AA098093A909B8
:1028E00084ED90E09093AC098093AB0980ED90E08B
:1028F0009093AE098093AD0981ED90E09093B0097B
:102900008093AF0982ED90E09093B2098093B10972
:1029100086ED90E09093B4098093B3091093B509C4
:10292000B093B609A093B709F093B809E093B90939
:102930001092BE091092BD092093BF093093C009BF
:102940004093C1095093C2097093BC096093BB09BD
:102950008DEC98E09093C8098093C70981E199E0D4
:102960009093CA098093C90985E391E09093CC09BB
:102970008093CB0984E391E09093CE098093CD09B5
:1029800080E391E09093D0098093CF0981E391E0B7
:102990009093D2098093D10982E391E09093D40976
:1029A0008093D30986E391E09093D6098093D5096B
:1029B0001093D709B093D809A093D909F093DA09F5
:1029C000E093DB091F910895CF93DF9361D80E94B4
:1029D0000B09CDE3D1E10E9465062097E1F34DDCC0
:1029E000FACFCF92DF92EF92FF920F931F93CF9384
:1029F000DF937C016B018A01C0E0D0E00FC0D601FB
:102A00006D916D01D701ED91FC910190F081E02D68
:102A1000C7011995C80FD91F0150104001151105A4
:102A200071F7CE01DF91CF911F910F91FF90EF9041
:102A3000DF90CF900895EF92FF920F931F938C0138
:102A4000DC01ED91FC910190F081E02D6DE0199594
:102A50007C01D801ED91FC910190F081E02DC8013D
:102A60006AE019959C012E0D3F1DC9011F910F9120
:102A7000FF90EF900895EF92FF920F931F937C01C8
:102A8000DC01ED91FC910190F081E02D19958C0114
:102A9000C701D1DF080F191FC8011F910F91FF90C7
:102AA000EF900895CF93DF93EC016115710519F450
:102AB00020E030E00FC0DB010D900020E9F7119716
:102AC000A61BB70BE881F9810280F381E02DAD01EF
:102AD00019959C01C901DF91CF9108954F925F92A2
:102AE0007F928F929F92AF92BF92CF92DF92EF929E
:102AF000FF920F931F93DF93CF93CDB7DEB7A197CC
:102B00000FB6F894DEBF0FBECDBF2C01742ECB01E3
:102B1000223008F42AE019A231E2C32ED12CCC0EC7
:102B2000DD1E822E9924AA24BB24672D752FA501B2
:102B3000940149D479018A01C801B701A501940122
:102B400004D4472D461B0894C108D1084A3014F418
:102B5000405D01C0495CF6014083E114F1040105C8
:102B6000110521F07E2C5F2DC801DFCFC201B60117
:102B700099DFA1960FB6F894DEBF0FBECDBFCF91FF
:102B8000DF911F910F91FF90EF90DF90CF90BF905A
:102B9000AF909F908F907F905F904F900895DC0151
:102BA0002115310541F4ED91FC910190F081E02D6A
:102BB000642F1995089592CFEF92FF920F931F9370
:102BC0009A017B0100E010E0B801A701E8DF1F9146
:102BD0000F91FF90EF900895CF92DF92EF92FF92C6
:102BE0000F931F93CF93DF93EC016A017B012115B3
:102BF000310541F4E881F9810190F081E02D642FE5
:102C000019951DC02A303105C9F477FF16C0E88137
:102C1000F9810190F081E02D6DE219958C01442736
:102C20005527BA014C195D096E097F09CE012AE0CA
:102C300055DF9801280F391F03C02AE04FDF9C01A0
:102C4000C901DF91CF911F910F91FF90EF90DF901D
:102C5000CF900895EF92FF920F931F937B019A01FB
:102C60000027F7FC0095102FB801A701B5DF1F91D1
:102C70000F91FF90EF900895CF92DF92EF92FF9225
:102C80000F931F936C017B019A010027F7FC0095BD
:102C9000102FB801A701A0DF8C01C601CCDE080F00
:102CA000191FC8011F910F91FF90EF90DF90CF90F7
:102CB0000895F8CE08957F928F929F92AF92BF921F
:102CC000CF92DF92EF92FF920F931F93CF93DF93F8
:102CD0004C017A018B01722ECB01BA01A801970138
:102CE00030D3882321F0C40163E276E01FC0C0E046
:102CF000D0E057016801E894D7F8C601B5012FEF7D
:102D00003FEF4FE75FE71DD3882349F4C601B501C4
:102D10002FEF3FEF4FE75FE75ED1181614F0C1E0E9
:102D2000D0E0219731F0C40167E276E0BBDEEC0130
:102D300084C0C801B7012FEF3FEF4FE75FE49AD29D
:102D400018164CF0C801B7012FEF3FEF4FE75FECCB
:102D500042D1882324F4C4016BE276E0E7CFC801B6
:102D6000B70120E030E040E050E035D187FD03C0FE
:102D7000C0E0D0E00EC0D401ED91FC910190F08153
:102D8000E02DC4016DE21995EC0117FB109517F9C0
:102D9000109520E030E040E05FE3DD240AC0CA0186
:102DA000B90120E030E040E251E419D19B01AC01CF
:102DB000D394D714A0F3C801B701A9D05B016C016B
:102DC0007BD17B018C01C401B801A7012AE030E06E
:102DD000E6DEC80FD91F772031F0C4016FE276E03C
:102DE00061DEC80FD91FC801B70192D19B01AC01A8
:102DF000C601B5018BD01FC020E030E040E251E4B5
:102E00003DD27B018C0153D15B016C01CC24B7FC1A
:102E1000C094DC2CC401B601A5012AE030E0DCDE60
:102E2000C80FD91FC601B50175D19B01AC01C801FE
:102E3000B7016CD07A947720F9F6CE01DF91CF916B
:102E40001F910F91FF90EF90DF90CF90BF90AF90C8
:102E50009F908F907F9008952ECF0895EF92FF92CC
:102E60000F931F937C011EDE8C01C701E4DD080F68
:102E7000191FC8011F910F91FF90EF9008952F9295
:102E80003F924F925F926F927F928F929F92AF92FA
:102E9000BF92CF92DF92EF92FF920F931F93DF9337
:102EA000CF93CDB7DEB73B014C0119012A016E89E2
:102EB0007F89888D998D6A197B098C099D09621A11
:102EC000730A840A950AA40193013FD2E218F30819
:102ED00004091509A801970198D22A0D3B1D4C1D24
:102EE0005D1DB901CA01CF91DF911F910F91FF9034
:102EF000EF90DF90CF90BF90AF909F908F907F909A
:102F00006F905F904F903F902F9008955058BB273F
:102F1000AA270ED075C166D130F06BD120F031F404
:102F20009F3F11F41EF45BC10EF4E095E7FB51C125
:102F3000E92F77D180F3BA176207730784079507E3
:102F400018F071F49EF58FC10EF4E0950B2EBA2F98
:102F5000A02D0B01B90190010C01CA01A00111249F
:102F6000FF27591B99F0593F50F4503E68F11A164B
:102F7000F040A22F232F342F4427585FF3CF4695DC
:102F800037952795A795F0405395C9F77EF41F16FE
:102F9000BA0B620B730B840BBAF09150A1F0FF0FC8
:102FA000BB1F661F771F881FC2F70EC0BA0F621FB4
:102FB000731F841F48F4879577956795B795F795A4
:102FC0009E3F08F0B3CF9395880F08F09927EE0F36
:102FD000979587950895D9D008F481E008950CD08D
:102FE0000FC107D140F0FED030F021F45F3F19F05F
:102FF000F0C0511139C1F3C014D198F39923C9F32A
:103000005523B1F3951B550BBB27AA2762177307EE
:10301000840738F09F5F5F4F220F331F441FAA1FA2
:10302000A9F333D00E2E3AF0E0E830D09150504062
:10303000E695001CCAF729D0FE2F27D0660F771F10
:10304000881FBB1F261737074807AB07B0E809F0F2
:10305000BB0B802DBF01FF2793585F4F2AF09E3F87
:10306000510568F0B6C000C15F3FECF3983EDCF359
:10307000869577956795B795F7959F5FC9F7880F00
:10308000911D9695879597F90895E1E0660F771F52
:10309000881FBB1F621773078407BA0720F0621BE3
:1030A000730B840BBA0BEE1F88F7E095089504D0DC
:1030B0006894B111D9C00895BCD088F09F5790F0A2
:1030C000B92F9927B751A0F0D1F0660F771F881F4D
:1030D000991F1AF0BA95C9F712C0B13081F0C3D068
:1030E000B1E00895C0C0672F782F8827B85F39F006
:1030F000B93FCCF3869577956795B395D9F73EF4AC
:1031000090958095709561957F4F8F4F9F4F089553
:10311000E89409C097FB3EF4909580957095619571
:103120007F4F8F4F9F4F9923A9F0F92F96E9BB2727
:103130009395F695879577956795B795F111F8CFA3
:10314000FAF4BB0F11F460FF1BC06F5F7F4F8F4F0E
:103150009F4F16C0882311F096E911C0772321F004
:103160009EE8872F762F05C0662371F096E8862F9C
:1031700070E060E02AF09A95660F771F881FDAF7F3
:10318000880F9695879597F90895990F0008550F20
:10319000AA0BE0E8FEEF16161706E807F907C0F0DD
:1031A00012161306E407F50798F0621B730B840BE5
:1031B000950B39F40A2661F0232B242B252B21F4BF
:1031C00008950A2609F4A140A6958FEF811D811D5F
:1031D000089597F99F6780E870E060E008959FEF99
:1031E00080EC089500240A9416161706180609069E
:1031F000089500240A94121613061406050608956D
:10320000092E0394000C11F4882352F0BB0F40F4F4
:10321000BF2B11F460FF04C06F5F7F4F8F4F9F4F34
:10322000089557FD9058440F551F59F05F3F71F0B6
:103230004795880F97FB991F61F09F3F79F087951D
:103240000895121613061406551FF2CF4695F1DFA6
:1032500008C0161617061806991FF1CF8695710536
:10326000610508940895E894BB2766277727CB016A
:1032700097F908958ADF08F48FEF08950BD0C0CF37
:10328000B1DF28F0B6DF18F0952309F0A2CFA7CF61
:103290001124EACFC6DFA0F3959FD1F3950F50E03C
:1032A000551F629FF001729FBB27F00DB11D639FF8
:1032B000AA27F00DB11DAA1F649F6627B00DA11D9E
:1032C000661F829F2227B00DA11D621F739FB00D44
:1032D000A11D621F839FA00D611D221F749F3327B4
:1032E000A00D611D231F849F600D211D822F762F4D
:1032F0006A2F11249F5750408AF0E1F088234AF04A
:10330000EE0FFF1FBB1F661F771F881F9150504095
:10331000A9F79E3F510570F05CCFA6CF5F3FECF35D
:10332000983EDCF3869577956795B795F795E79581
:103330009F5FC1F7FE2B880F911D9695879597F992
:10334000089523DF880B990B0895629FD001739F26
:10335000F001829FE00DF11D649FE00DF11D929F31
:10336000F00D839FF00D749FF00D659FF00D992770
:10337000729FB00DE11DF91F639FB00DE11DF91F94
:10338000BD01CF0111240895991B79E004C0991F54
:10339000961708F0961B881F7A95C9F780950895AF
:1033A00097FB092E07260AD077FD04D049D006D016
:1033B00000201AF4709561957F4F0895F6F7909567
:1033C00081959F4F0895A1E21A2EAA1BBB1BFD01F8
:1033D0000DC0AA1FBB1FEE1FFF1FA217B307E407F4
:1033E000F50720F0A21BB30BE40BF50B661F771F4C
:1033F000881F991F1A9469F760957095809590952C
:103400009B01AC01BD01CF01089597FB092E052654
:103410000ED057FD04D0D7DF0AD0001C38F45095E9
:103420004095309521953F4F4F4F5F4F0895F6F7E8
:1034300090958095709561957F4F8F4F9F4F089520
:10344000AA1BBB1B51E107C0AA1FBB1FA617B707CA
:1034500010F0A61BB70B881F991F5A95A9F78095E6
:103460009095BC01CD010895EE0FFF1F0590F491DA
:08347000E02D1994F894FFCF40
:103478004D4F57494E47004C41554E4348494E47DA
:1034880000545241434B494E4700444F434B494E29
:1034980047004348415247494E4700444542554733
:1034A80000434F4E464947555245005354415254E4
:1034B80055500049444C450053544F50004C454624
:1034C80054005249474854005374617274696E67D6
:1034D800206375747465722E2E2E0020202D2053C3
:1034E8006C6F7720737461727400202020202D2067
:1034F80000436F756E7465723A2000204C4D6F74EE
:103508003A200020524D6F743A200020202D20428E
:1035180061636B696E6720757020776974682074C1
:103528007769737420286F6E6520776865656C20ED
:10353800726564756365642073706565642920002D
:10354800207365636F6E64732E0020202D20446FF6
:103558006E65206261636B696E672075700020205C
:103568002D204261636B696E6720757020002A20E8
:1035780072657665727365446972656374696F6EA6
:1035880028290020202D206E65775F6C65667444BD
:103598006972656374696F6E3A2000206E65775FA3
:1035A8007269676874446972656374696F6E3A20FA
:1035B80000206C6566744D6F746F72537065656436
:1035C8003A20002072696768744D6F746F72537087
:1035D8006565643A200020202D206C6566744D6F67
:1035E800746F7253706565643A20006661756C7417
:1035F800004572726F72206E756D6265723A2000B6
:1036080020202D206375747465725F73746174650E
:103618003A2000233A20002042433A2000204C431D
:103628003A20002052433A2000204C4D6F746F72AC
:1036380053703A200020524D6F746F7253703A20C5
:1036480000204375747465723A20002042617474D6
:103658006572793A200020280056290020537461A9
:1036680074653A20002044656275673A200020435B
:1036780068617267653A20004F4B004E4F4B21003E
:10368800205243313A2000202F2000205243323A62
:1036980020003D3D3D3D3D3D3D3D3D3D3D3D3D3DAC
:1036A8003D3D3D3D3D3D3D3D3D3D3D3D3D3D3D3D42
:1036B8003D3D3D3D3D3D3D3D3D3D3D3D3D3D002A82
:1036C800205374617274696E672075700020202D14
:1036D8002053746F7070696E6720656E67696E65D8
:1036E80073002A204D6F746F722063757272656E55
:1036F80074207468726573686F6C642072656163A6
:103708006865640020202D20004361756768742077
:1037180073657269616C0020202D205265636569AC
:103728007665643A200020202D20537461727469F4
:103738006E6720726F626F740020202D20526576AC
:10374800657273696E6720726F626F740020202D36
:10375800205475726E696E67206C6566740020204F
:103768002D205475726E696E6720726967687400DF
:1037780020202D20546F67676C652063757474650D
:10378800720020202D20546F67676C696E67206473
:103798006562756720666C61670020202D20546F74
:1037A80067676C696E67207072696E7420737461E4
:1037B800747573206F75747075740020202D204205
:1037C800756D700020202D2053746F7070696E67BE
:1037D80020726F626F740020202D2053616D706C11
:1037E80065205243003A20002F0020202D2052430C
:1037F80000436F6E6669677572696E673A20467531
:103808006C6C207468726F746C65202B2064656C16
:10381800617900436F6E6669677572696E673A20F1
:10382800300053657474696E6720637574746572CB
:103838005F73746174653D3000436F6E66696775C8
:1038480072696E673A2033207365636F6E64732004
:103858006C6F77002A2053657474696E67207570E1
:103868002052432072656365697665720020202DB9
:1038780020446F6E6521002A2043616C6962726181
:1038880074696E67205243205A65726F20737461A1
:103898007465006E616E00696E66006F7666002E54
:1038A8000001000700A8FDB40558020400A2FEA408
:1038B800065E01FFFF0000E803EE0700FE0002E7D6
:1038C800FF1900E7FF190096000100000000000042
:1038D800000000006E13F1140413351315135E1362
:00000001FF
