:1000000003C100002EC100002CC100002AC1000065
:1000100028C1000026C1000024C1000022C1000048
:1000200020C100001EC100001CC100001AC1000058
:1000300018C1000016C1000014C1000012C1000068
:1000400010C100000C940A0C0CC100000AC1000091
:1000500008C1000006C1000004C100000C94370C68
:1000600000C100000C94CE0F0C941211FAC00000D5
:10007000F8C00000F6C00000F4C00000F2C00000AC
:100080000C94DD0BEEC00000ECC00000EAC00000E4
:100090000C940E100C945111E4C00000E2C000005A
:1000A000E0C00000DEC000000C94B00BDAC000001D
:1000B000D8C00000D6C00000D4C000000C94830B50
:1000C000D0C00000CEC00000CCC000000C944E1088
:1000D0000C949011C6C000000C948E100C94CF119B
:1000E000C0C0000000002100240027002A002D00CD
:1000F0003000330001010000040107010A01000083
:100100002200250028002B002E00310034000201BF
:100110000000050108010B0100002000230026005B
:1001200029002C002F00320000010000030106010D
:10013000090105050505070508080808020202026D
:100140000A0A080804040404010101010101010173
:100150000303030303030303040707070C0C0C0C3E
:100160000C0C0C0C02020202060606060606060627
:100170000B0B0B0B0B0B0B0B0102102020080810B4
:100180002040102040800201020108040201010207
:1001900004081020408080402010080402018004E0
:1001A000020180402010080402010804020101023B
:1001B0000408102040800102040810204080000044
:1001C000090A02080B0C0D070603040100000000D9
:1001D000000000000000000000000000000000001F
:1001E0000000000000000000000011100F000000DF
:1001F00000000000000000000000000000000000FF
:100200000000000032013E1311241FBECFEFD1E2E7
:10021000DEBFCDBF00E00CBF16E0A0E0B2E0E8E931
:10022000F3E300E00BBF02C007900D92A236B107C6
:10023000D9F71BBE19E0A2E6B6E001C01D92AF3CA3
:10024000B107E1F712E0C8E0D2E004C02297FE0156
:100250000E94C619C430D107C9F70E9474140C94C7
:10026000CA19CECE82E696E00E9452098DE090E057
:100270009093800680937F068CE090E090938206B6
:10028000809381068BE090E09093840680938306B0
:1002900083E090E090938606809385068FEF9FEF32
:1002A00090938806809387060895809177069091B1
:1002B00078068530910509F446C0863091059CF496
:1002C0008230910589F18330910534F4009711F162
:1002D000019709F05DC023C08330910551F1049767
:1002E00009F056C02BC088309105E1F189309105A5
:1002F0003CF48630910561F1079709F049C02DC0A3
:100300008A309105C9F18A3091058CF10B9709F07B
:100310003FC038C087E499E060E072E031C087E414
:1003200099E067E072E02CC087E499E061E172E057
:1003300027C087E499E06AE172E022C087E499E08F
:1003400062E272E01DC087E499E06BE272E018C0DF
:1003500087E499E061E372E013C087E499E06BE31E
:1003600072E00EC087E499E063E472E009C087E4BC
:1003700099E068E472E004C087E499E06DE472E01B
:100380000C94E91587E499E062E572E00C94E915B4
:10039000089582E696E06AE570E0DAD710926E067C
:1003A00010926D060895682F809181060C94FF0EBF
:1003B000CF93DF93EC0190937206809371068F3F89
:1003C000910539F034F08FEF90E0909372068093AE
:1003D0007106809171069091720681509F4F34F49E
:1003E00081E09FEF90937206809371066091710691
:1003F0007091720677FF03C0709561957F4F809171
:1004000085060E946E0D80E01C161D060CF481E02E
:10041000CADFDF91CF910895682F80917F060C94F9
:10042000FF0ECF93DF93EC019093700680936F06DD
:100430008F3F910539F034F08FEF90E09093700684
:1004400080936F0680916F069091700681509F4F48
:1004500034F481E09FEF9093700680936F06609173
:100460006F067091700677FF03C0709561957F4F9E
:10047000809183060E946E0D80E01C161D060CF410
:1004800081E0CADFDF91CF910895CF93DF9387E4B6
:1004900099E06BE672E00E94BE1687E499E06AE795
:1004A00072E00E94E915C0E0D0E0CE01BADFCE01D3
:1004B0007FDF6FE070E080E090E00E947F0C259687
:1004C000CF3FD10591F78FEF90E0ABDF8FEF90E05A
:1004D0006FDFDF91CF91089580E090E0A2DF80E0B0
:1004E00090E066DF68EC70E080E090E00C947F0CB8
:1004F0000F931F9307E419E0C80161E872E00E94BE
:10050000E9156091790670917A06C8014AE050E0D9
:100510000E94BA15C8016BE872E00E94E91560916B
:10052000730670917406C8014AE050E00E94BA1543
:10053000C80163E972E00E94E91560917506709147
:100540007606C8014AE050E00E94BA15C8010E9430
:10055000AB141F910F910895CF92DF92EF92FF920B
:100560000F931F938C0187E4C82E89E0D82EC60113
:100570006BE972E00E94E915C601B8014AE050E05B
:100580000E94BA15C60160ED72E00E94E91580E094
:1005900090E047DF80E090E00BDF81E09FEF41DFFC
:1005A00081E09FEF05DFC80162E070E00E94601902
:1005B0007B010027F7FC0095102FC801B7010E94AE
:1005C0007F0C8FEF90E0F4DEC801B7010E947F0C32
:1005D00080E090E026DF80E090E0EADEC6016AED90
:1005E00072E00E94BE1664E670E080E090E00E9437
:1005F0007F0C1F910F91FF90EF90DF90CF900895A7
:100600004F925F926F927F928F929F92AF92BF9222
:10061000CF92DF92EF92FF920F931F93CF93DF93CE
:1006200087E499E06EEF72E00E94BE16C0916F06FB
:10063000D09170061C161D063CF051E0452E512C41
:1006400041E0642E712C06C044244A94542C662444
:100650006A94762C87E499E063E173E00E94E915DF
:1006600087E499E0B3014AE050E00E94BA1587E4BC
:1006700099E06BE273E00E94E91587E499E0B2012A
:100680004AE050E00E94BA1587E499E061E473E023
:100690000E94E91587E499E0BE014AE050E00E941B
:1006A000BA1587E499E063E573E00E94E91587E4F1
:1006B00099E0BE014AE050E00E94BA1587E499E053
:1006C0000E94AB147E01D7FF04C0F094E194F108BE
:1006D000F3944301880C991C880C991C860C971C78
:1006E0005201AA0CBB1CAA0CBB1CA40CB51CCC242C
:1006F000DD2400E010E0C0E0D0E0C80192DECE01D1
:1007000057DE87E499E066E673E00E94E91587E426
:1007100099E0B8014AE050E00E94BA1587E499E0F8
:1007200063E573E00E94E91587E499E0BE014AE0C1
:1007300050E00E94BA1587E499E00E94AB146FE084
:1007400070E080E090E00E947F0C85E090E0C80EB1
:10075000D91E080D191DCA0DDB1D9FEFC916D10446
:1007600061F66E9CC0016F9C900D7E9C900D1124D3
:1007700058DE4E9CC0014F9C900D5E9C900D112444
:1007800017DEDF91CF911F910F91FF90EF90DF90D7
:10079000CF90BF90AF909F908F907F906F905F9021
:1007A0004F900895CF92DF92EF92FF920F931F9395
:1007B00077E4E72E79E0F72E60916D0670916E0672
:1007C000C7014AE050E00E94CC1500916D061091DF
:1007D0006E0681E090E00827192760E9C62E63E0E5
:1007E000D62EC701B6010E94E91560916D06709181
:1007F0006E06C7014AE050E00E94CC1510936E06C9
:1008000000936D06C701B6010E94E91560916D065F
:1008100070916E06C7014AE050E00E94CC151F910E
:100820000F91FF90EF90DF90CF90089587E30C94A5
:100830003A0D86E30C943A0D88E30C943A0D4F92EE
:100840005F926F927F928F929F92AF92BF92CF9260
:10085000DF92EF92FF920F931F93CF93DF93EC0100
:10086000219700D00F92DE01AA0FBB1FFD01E959AD
:10087000F94F60817181882777FD8095982F2E012F
:10088000440C551C440C551CF201EE0FFF1FEA5D91
:10089000F94F20813181442737FD4095542FFE01C7
:1008A00013E0EE0FFF1F1A95E1F7EC5DF94FE680BC
:1008B000F7800027F7FC0095102FECE3F6E04E0ED2
:1008C0005F1EF201A080B180CC24B7FCC094DC2C68
:1008D000AA0FBB1FA25CB94F6D907C90882477FC57
:1008E0008094982CEDB7FEB76182728283829482E5
:1008F0000E94CF16F20140815181CB010F900F90E1
:100900000F900F90641775070CF4CA01CC0FDD1F10
:10091000CC0FDD1FC25CD94FA881B9819C01A817FB
:10092000B9070CF49D01C901DF91CF911F910F917F
:10093000FF90EF90DF90CF90BF90AF909F908F90FF
:100940007F906F905F904F900895809122069091D4
:100950002306019709F028C187E499E063EA73E070
:100960000E94E9156091790670917A0687E499E012
:100970004AE050E00E94BA1587E499E067EA73E024
:100980000E94E91560917B0670917C0687E499E0EE
:100990004AE050E00E94BA1587E499E06DEA73E0FE
:1009A0000E94E915609173067091740687E499E0DE
:1009B0004AE050E00E94BA1587E499E063EB73E0E7
:1009C0000E94E915609175067091760687E499E0BA
:1009D0004AE050E00E94BA1587E499E069EB73E0C1
:1009E0000E94E91560916F067091700687E499E0A6
:1009F0004AE050E00E94BA1587E499E065EC73E0A4
:100A00000E94E915609171067091720687E499E081
:100A10004AE050E00E94BA1587E499E061ED73E086
:100A20000E94E91560916D0670916E0687E499E069
:100A30004AE050E00E94BA1587E499E06BED73E05C
:100A40000E94E91560917D0670917E0687E499E029
:100A50004AE050E00E94BA1587E499E066EE73E040
:100A60000E94E91560917D0670917E06882777FDCA
:100A70008095982F0E941A1820E030E04CEA51E44B
:100A80000E94CE1820E030E040E85AE30E94CE18E1
:100A9000AB01BC0187E499E022E030E00E94BC1683
:100AA00087E499E069EE73E00E94E91587E499E034
:100AB0006CEE73E00E94E915F8DB87E499E065EFDE
:100AC00073E00E94E915609165067091660687E4FF
:100AD00099E04AE050E00E94BA1587E499E06EEF91
:100AE00073E00E94E91560917D0670917E0688276B
:100AF00077FD8095982F0E941A1820E030E849E091
:100B000054E40E94CA1818162CF487E499E068E0AF
:100B100074E004C087E499E06BE074E00E94E9159A
:100B200087E499E060E174E00E94E91581E090E0DB
:100B300086DEBC0187E499E04AE050E00E94BA15E5
:100B400087E499E067E174E00E94E9156091670627
:100B50007091680687E499E04AE050E00E94BA1577
:100B600087E499E06BE174E00E94E91582E090E08F
:100B700066DEBC0187E499E04AE050E00E94BA15C5
:100B800087E499E067E174E00E94E91560916906E5
:100B900070916A0687E499E04AE050E00E94BA1535
:100BA00087E499E00C94AB140895EF92FF920F93B1
:100BB0001F9307E419E0C8010E94AB1442E2E42E3F
:100BC00044E0F42EC801B7010E94BE16C8016FE4CC
:100BD00074E00E94BE16C801B7010E94BE16C8018B
:100BE0006DE574E00E94BE16C8016AE772E00E94DB
:100BF000E915ABDE80E090E014DC80E090E0D8DB2B
:100C000068EE73E080E090E07AD61F910F91FF903C
:100C1000EF900895CF93DF9381E090E010DEEC0138
:100C20008FEFCC3ED8073CF4CE0181509F4FF9DBCB
:100C30008FEF90E00AC0C531D10544F08FEF90E00E
:100C4000F0DB8FEF90E08C1B9D0BB2DB6396A797D8
:100C500030F48FEF90E0E5DB8FEF90E0A9DBDF91E0
:100C6000CF910895FC0153E0EE0FFF1F5A95E1F775
:100C7000E45EF94F808161E028EA31E640E050E02F
:100C80000E94310FCB0108950F931F93CF93DF93F1
:100C9000D3DD90937E0680937D06CBDD9093740622
:100CA00080937306C3DD909376068093750681E08A
:100CB00090E0D8DF909368068093670682E090E02A
:100CC000D1DF90936A068093690682E090E0B7DDF9
:100CD000409754F08091770690917806892B21F007
:100CE000109278061092770682E090E0A8DD815F8E
:100CF0009F4F64F48091770690917806892B31F4A8
:100D000089E090E09093780680937706809177064B
:100D1000909178068930910509F4B1C08A30910527
:100D20005CF48530910509F476C08730910509F4AB
:100D300070C0892B69F0AAC08B30910509F487C077
:100D40008B3091050CF474C00C9709F09FC02BC038
:100D500061DF8091650690916606892BF9F4809198
:100D6000730690917406059734F4809175069091FE
:100D7000760605979CF080917B0690917C06019603
:100D800090937C0680937B0605970CF47FC01092AD
:100D90007C0610927B068CE090E074C010927C067A
:100DA00010927B0673C0F5DA87E499E062E774E09D
:100DB0000E94BE1687E499E064E974E00E94E91598
:100DC00087E499E06DEA73E00E94E91532DDBC0129
:100DD00087E499E04AE050E00E946C1587E499E0CE
:100DE00063EB73E00E94E91521DDBC0187E499E023
:100DF0004AE050E00E946C1587E499E00E94AB1431
:100E00008CED95E0A9DB41DB109278061092770615
:100E10003DC0CBDE35C0C0E0D0E06ADB64EF71E0FE
:100E200080E090E06CD52196CA30D105B1F72EC094
:100E300000916F061091700680E090E0F2DA68EEA3
:100E400073E080E090E05BD5C801EBDA0EC0009162
:100E500071061091720680E090E0AADA68EE73E005
:100E600080E090E04CD5C801A3DA10927806109289
:100E7000770664E670E080E090E041D507C02CDBA7
:100E800088E090E0909378068093770687E499E075
:100E90000E949412892B09F4B3C087E499E00E9460
:100EA000C512082F87E499E069E974E00E94BE1634
:100EB00087E499E067EA74E00E94E91587E499E025
:100EC000602F0E94CB14033799F48091770690919C
:100ED0007806892B09F4A8C087E499E066EB74E0F2
:100EE0000E94BE161092780610927706CEDA88C05D
:100EF000043679F48091770690917806892B09F071
:100F00007FC087E499E069EC74E00E94BE1678DB4C
:100F100077C00C3681F48091770690917806892B02
:100F200009F06EC087E499E06DED74E00E94BE1692
:100F30008AE090E061C0023781F480917706909159
:100F40007806892B09F05CC087E499E06EEE74E0C6
:100F50000E94BE168BE090E04FC0033699F480915A
:100F6000770690917806892B09F04AC087E499E0CA
:100F700060E075E00E94BE1615DC109278061092B3
:100F800077063EC0043499F487E499E062E175E0A5
:100F90000E94BE16809165069091660621E030E0C1
:100FA00082279327909366068093650629C00037B1
:100FB00099F487E499E06AE275E00E94BE16809198
:100FC00022069091230621E030E082279327909318
:100FD00023068093220614C0023691F4809177068E
:100FE00090917806892B61F487E499E06BE475E0D1
:100FF0000E94BE168CE090E090937806809377066E
:10100000A4DC8091790690917A06019690937A06F5
:101010008093790664E670E080E090E070D4DF9120
:10102000CF911F910F91089587E499E064E575E0F1
:101030000E94BE1689E090E0DFCFCF92DF92EF9260
:10104000FF920F931F93DF93CF9300D000D0CDB7C3
:10105000DEB7DE011196EBE4F6E086E001900D923A
:101060008150E1F7EE24FF2409811A8180E090E0AD
:10107000F9DD080F191F1A8309830B811C8181E098
:1010800090E0F0DD080F191F1C830B836AE070E00D
:1010900080E090E034D40894E11CF11C85E0E8166F
:1010A000F10411F76E010894C11CD11C68E2E62E10
:1010B00066E0F62E00E010E0F601819191916F015B
:1010C00065E070E00E946019F7017183608387E436
:1010D00099E067E675E00E94E9150F5F1F4F87E40E
:1010E00099E0B8014AE050E00E94BA1587E499E01F
:1010F0006FE675E00E94E915F7016081718187E470
:1011000099E04AE050E00E94BA1588E090E0E80ECD
:10111000F91E0230110581F626960FB6F894DEBF4F
:101120000FBECDBFCF91DF911F910F91FF90EF9038
:10113000DF90CF900895CF93DF9387E090E0909376
:1011400078068093770687E499E040E052EC61E00E
:1011500070E00E940E1286E061E09ED580917F06CD
:1011600061E09AD58091810661E096D580918306F1
:1011700061E092D58091850661E08ED582E696E0A9
:1011800066E070E0FBD18091770690917806069733
:1011900031F582E696E064EB70E0DAD087E499E01E
:1011A00062E775E00E94BE1668EB7BE080E090E0AD
:1011B000A6D387E499E064E975E00E94BE1682E652
:1011C00096E060E070E0C4D068EB7BE080E090E007
:1011D00096D385E090E0909378068093770687E435
:1011E00099E063EA75E00E94BE1610926E061092B6
:1011F0006D0687E499E06AEB75E00E94BE16C0E0D8
:10120000D0E082E696E06AE570E0A2D061E070E0AE
:1012100080E090E074D321968BE0C83BD80789F733
:1012200080914806909149068739910534F086E906
:1012300090E09093490680934806ABD8809183064E
:1012400068EC70E04BD48091850668EC70E046D481
:1012500080917F0660E0D3D58091810660E0CFD594
:1012600087E499E065ED75E00E94BE1687E060E0D6
:1012700013D584E060E010D587E499E06EEE75E068
:101280000E94BE1687E499E068EF75E00E94BE16E2
:10129000D4DE87E499E06EEE75E00E94BE16DF9121
:1012A000CF910895FC0180918906803390F480836A
:1012B0008F5F80938906815090E0FC01EE0FFF1F45
:1012C000E80FF91FE657F94F88EB9BE09283818383
:1012D00008958FEF80830895FC0120812033B8F5B5
:1012E0008181992787FD909548E850E0481B590B6C
:1012F000440F551F440F551F6417750784F08281F2
:10130000992787FD909548E552E0481B590B440FFB
:10131000551F440F551F641775070CF4AB0142505D
:101320005040CA01AA2797FDA095BA2F880F991F90
:10133000AA1FBB1F4FB7F89430E0F901EE0FFF1F53
:10134000E20FF31FE657F94F928381834FBF089551
:10135000AF92BF92CF92DF92EF92FF920F931F93C3
:10136000CF93DF93EC019B0182E0603278070CF0B1
:1013700048C077FF03C020E030E005C0653B710541
:1013800014F024EB30E000D00F92B901882777FDEC
:101390008095982F2981332727FD3095E8E8AE2ED8
:1013A000B12CA21AB30AAA0CBB1CAA0CBB1CCC24DD
:1013B000B7FCC094DC2CEA81FF27E7FDF09528E517
:1013C00032E02E1B3F0B220F331F220F331F442707
:1013D00037FD4095542FEDB7FEB721833283438309
:1013E000548320E030E040E050E004EBE02EF12CAC
:1013F000012D112D0E94CF169B010F900F900F9081
:101400000F90CE01B90168DFDF91CF911F910F914D
:10141000FF90EF90DF90CF90BF90AF900895CF9264
:10142000DF92EF92FF921F93CF93DF93EC01162F81
:101430007A0169018881803308F092C0862F61E0CB
:101440002BD4888190E0FC01EE0FFF1FE80FF91FFD
:10145000E657F94F1F738081807C812B808380E267
:1014600092E08E199F0964E070E00E946019698320
:1014700080E699E08C199D0964E070E00E94601993
:101480006A83A8818A2F6CE00E945419682F70E04B
:10149000AB01440F551F460F571F440F551F440FF4
:1014A000551F20E030E0C901840F951FFC01EE0FAD
:1014B000FF1FE80FF91FE657F94F808186FD44C0F2
:1014C0002F5F3F4F2C30310571F753C010928000D1
:1014D00082E0809381001092850010928400B19A7E
:1014E00080916F00826080936F002EC06230710522
:1014F00069F41092900082E0809391001092950020
:101500001092940088BB809371001EC063307105F7
:1015100069F41092A00082E08093A1001092A500CF
:101520001092A40089BB809372000EC0672B61F4F7
:101530001092200182E080932101109225011092E7
:1015400024018ABB809373008A2F90E0FC01EE0F88
:10155000FF1FE80FF91FE657F94F808180648083F1
:101560008881DF91CF911F91FF90EF90DF90CF9016
:1015700008956130710509F0B9CFA8CF40E252E07B
:1015800020E639E04CCFEF92FF920F931F93CF9359
:10159000DF938B017A01EC01DC01A65EB84F8C91E0
:1015A00087FF04C0FB011182108236C0AE01440FD8
:1015B000551F4C0F5D1F440F551F440F551F2C9195
:1015C000332727FD3095240F351F8091890690E041
:1015D000281739070CF58C91992787FD9095840F72
:1015E000951FFC01EE0FFF1FE80FF91FE657F94F9B
:1015F000808186FF11C08C91992787FD9095840F7B
:10160000951FFC01EE0FFF1FE80FF91FE657F94F7A
:1016100080818F7360E0F3D3DE01A65EB84F8C91BA
:101620008F5F8C93AE01440F551F4C0F5D1F440F0D
:10163000551F440F551F2C91332727FD3095240F3C
:10164000351F8091890690E0281739070CF04CC0AF
:101650008C918C300CF048C0F801208131818C9144
:10166000992787FD9095840F951FFC01EE0FFF1FB2
:10167000E80FF91FE657F94F81819281280F391F32
:10168000F701318320838C91992787FD9095840FF2
:10169000951FFC01EE0FFF1FE80FF91FE657F94FEA
:1016A000808186FF29C08C91992787FD9095840FB2
:1016B000951FFC01EE0FFF1FE80FF91FE657F94FCA
:1016C00080818F7361E09BD317C080E49CE904C0E4
:1016D000F801808191810496F70191838083C65E31
:1016E000D84F8FEF888308C0F801808191810496DC
:1016F00080549C4950F3ECCFDF91CF911F910F9113
:10170000FF90EF9008951F920F920FB60F920BB6B5
:101710000F9211242F933F934F935F936F937F9377
:101720008F939F93AF93BF93EF93FF9380E090E0ED
:1017300064E271E048E251E026DFFF91EF91BF9152
:10174000AF919F918F917F916F915F914F913F9159
:101750002F910F900BBE0F900FBE0F901F901895FA
:101760001F920F920FB60F920BB60F9211242F9368
:101770003F934F935F936F937F938F939F93AF9319
:10178000BF93EF93FF9383E090E064EA70E048EA50
:1017900050E0F9DEFF91EF91BF91AF919F918F9152
:1017A0007F916F915F914F913F912F910F900BBE61
:1017B0000F900FBE0F901F9018951F920F920FB6AB
:1017C0000F920BB60F9211242F933F934F935F9379
:1017D0006F937F938F939F93AF93BF93EF93FF93F9
:1017E00082E090E064E970E048E950E0CCDEFF91EF
:1017F000EF91BF91AF919F918F917F916F915F9189
:101800004F913F912F910F900BBE0F900FBE0F90F5
:101810001F9018951F920F920FB60F920BB60F9252
:1018200011242F933F934F935F936F937F938F93E5
:101830009F93AF93BF93EF93FF9381E090E064E8B1
:1018400070E048E850E09FDEFF91EF91BF91AF91CB
:101850009F918F917F916F915F914F913F912F91C8
:101860000F900BBE0F900FBE0F901F9018951F92F8
:101870000F920FB60F9211242F933F938F939F9344
:10188000AF93BF938091220790912307A0912407E3
:10189000B0912507309126070196A11DB11D232F78
:1018A0002D5F2D3720F02D570196A11DB11D2093DE
:1018B00026078093220790932307A0932407B093D1
:1018C000250780911E0790911F07A0912007B091D6
:1018D00021070196A11DB11D80931E0790931F073C
:1018E000A0932007B0932107BF91AF919F918F9153
:1018F0003F912F910F900FBE0F901F9018959B0155
:10190000AC017FB7F89480911E0790911F07A091BA
:101910002007B091210766B5A89B05C06F3F19F05D
:101920000196A11DB11D7FBFBA2FA92F982F88271F
:10193000860F911DA11DB11D62E0880F991FAA1F7E
:10194000BB1F6A95D1F7BC012DC0FFB7F8948091F9
:101950001E0790911F07A0912007B0912107E6B5BF
:10196000A89B05C0EF3F19F00196A11DB11DFFBF57
:10197000BA2FA92F982F88278E0F911DA11DB11D59
:10198000E2E0880F991FAA1FBB1FEA95D1F7861BBB
:10199000970B885E9340C8F2215030404040504041
:1019A00068517C4F211531054105510571F60895A7
:1019B000789484B5826084BD84B5816084BD85B52A
:1019C000826085BD85B5816085BDEEE6F0E08081F1
:1019D00081608083E1E8F0E0108280818260808312
:1019E000808181608083E0E8F0E080818160808395
:1019F000E1EBF0E0808184608083E0EBF0E08081C7
:101A000081608083E1E9F0E0808182608083808171
:101A100081608083E0E9F0E0808181608083E1EA99
:101A2000F0E0808182608083808181608083E0EA51
:101A3000F0E0808181608083E1E2F1E0808182607A
:101A40008083808181608083E0E2F1E08081816039
:101A50008083EAE7F0E08081846080838081826017
:101A60008083808181608083808180688083109200
:101A7000C1000895382F863308F0365320917B003B
:101A8000832F86958695869590E08170907043E0CF
:101A9000880F991F4A95E1F7277F282B20937B0019
:101AA000377080914A068295880F880F807C832B3F
:101AB00080937C0080917A00806480937A0080918A
:101AC0007A0086FDFCCF2091780040917900942F18
:101AD00080E030E0282B392BC90108951F93CF9364
:101AE000DF93182FEB0161E0D7D0209709F4CAC02B
:101AF000CF3FD10509F4C9C0E12FF0E0E254FE4F19
:101B00008491893009F466C08A30B0F48430F1F1F0
:101B1000853040F4823059F1833070F5813009F01E
:101B2000AEC020C0873009F443C0883008F048C0F8
:101B3000863009F0A4C034C08D3009F478C08E30EE
:101B400038F48B3009F45AC08C3008F066C04CC0B1
:101B5000803109F480C0813109F487C08F3009F0E9
:101B60008EC06FC084B5806884BDC7BD91C084B588
:101B7000806284BDC8BD8CC08091800080688093E5
:101B80008000D0938900C093880082C0809180003B
:101B9000806280938000D0938B00C0938A0078C0CD
:101BA0008091B00080688093B000C093B30070C093
:101BB0008091B00080628093B000C093B40068C090
:101BC00080919000806880939000D0939900C0939A
:101BD00098005EC080919000806280939000D093C6
:101BE0009B00C0939A0054C08091900088608093BD
:101BF0009000D0939D00C0939C004AC08091A000AB
:101C000080688093A0008091A0008F7B8093A000CB
:101C1000D093A900C093A8003BC08091A00080622F
:101C20008093A000D093AB00C093AA0031C08091F4
:101C3000A00088608093A000D093AD00C093AC005A
:101C400027C080912001806880932001D0932901D2
:101C5000C09328011DC080912001806280932001E3
:101C6000D0932B01C0932A0113C08091200188607A
:101C700080932001D0932D01C0932C0109C0C0385E
:101C8000D1051CF4812F60E002C0812F61E0B7D044
:101C9000DF91CF911F910895CF93DF93482F50E0AC
:101CA000CA0188589E4FFC0134914E5C5E4FFA0188
:101CB0008491882369F190E0880F991FFC01EC5111
:101CC000FF4FA591B491FC01E250FF4FC591D49113
:101CD000662351F42FB7F8948C91932F9095892314
:101CE0008C93888189230BC0623061F42FB7F894FC
:101CF0008C91932F909589238C938881832B888353
:101D00002FBF06C09FB7F8948C91832B8C939FBFF5
:101D1000DF91CF910895893009F449C08A30A0F449
:101D2000843051F1853040F4823079F1833000F510
:101D3000813009F063C026C0873079F1883098F58A
:101D4000863009F05BC025C08D3009F442C08E306A
:101D500028F48B30B1F18C30C0F52DC0803109F4FE
:101D600042C0813109F445C08F3009F047C037C007
:101D7000809180008F7703C0809180008F7D809359
:101D80008000089584B58F7702C084B58F7D84BDAF
:101D900008958091B0008F7703C08091B0008F7D4F
:101DA0008093B0000895809190008F7707C0809154
:101DB00090008F7D03C080919000877F809390007A
:101DC00008958091A0008F7707C08091A0008F7D3B
:101DD00003C08091A000877F8093A0000895809128
:101DE00020018F7703C0809120018F7D8093200197
:101DF000089580912001877F809320010895FF92AC
:101E00000F931F93F62E482F50E0CA0182549E4F25
:101E1000FC012491CA0188589E4FFC0114914E5C2C
:101E20005E4FFA0104910023C1F0222311F0822FAA
:101E300072DFE02FF0E0EE0FFF1FE250FF4FA591A1
:101E4000B4919FB7F894FF2021F48C9110958123D1
:101E500002C08C91812B8C939FBF1F910F91FF909B
:101E600008958F929F92AF92BF92CF92DF92EF929E
:101E7000FF920F931F93CF93DF93A82FB0E0CD0174
:101E800088589E4FFC018490AE5CBE4FFD0184914A
:101E9000662311F4992401C0982C6FEFA62E6FEFE2
:101EA000B62E6FEFC62E6FE0D62EA222B322C4222A
:101EB000D522682F70E0660F771F685E7E4FEE2494
:101EC000FF248701FB01A591B4910BC0EA14FB0428
:101ED0000C051D0509F44EC00894E11CF11C011D00
:101EE000111D8C918821891589F30CC0EA14FB041B
:101EF0000C051D0509F43EC00894E11CF11C011DF0
:101F0000111D03C0FB01A591B4918C918821891505
:101F100069F720E030E040E050E0FB01C591D4914A
:101F20000FC0DA01C9018E0D9F1DA01FB11F8A15B8
:101F30009B05AC05BD05F1F02F5F3F4F4F4F5F4F45
:101F400088818821891569F3CA01B90125E130E04A
:101F500040E050E00E9435199B01AC01205F3F4FEB
:101F60004F4F5F4F84E056954795379527958A9553
:101F7000D1F704C020E030E040E050E0B901CA01F0
:101F8000DF91CF911F910F91FF90EF90DF90CF9055
:101F9000BF90AF909F908F90089508951F920F92D9
:101FA0000FB60F920BB60F9211242F933F934F93BE
:101FB0008F939F93EF93FF938091C00082FD1DC08C
:101FC0004091C60020916707309168072F5F3F4F0F
:101FD0002F7330708091690790916A07281739072D
:101FE00071F0E0916707F0916807E95DF84F408371
:101FF000309368072093670702C08091C600FF9165
:10200000EF919F918F914F913F912F910F900BBE28
:102010000F900FBE0F901F90189508951F920F926A
:102020000FB60F920BB60F9211242F933F934F933D
:102030008F939F93EF93FF938091C80082FD1DC003
:102040004091CE002091EF073091F0072F5F3F4F76
:102050002F7330708091F1079091F207281739079C
:1020600071F0E091EF07F091F007E155F84F4083F0
:102070003093F0072093EF0702C08091CE00FF91CC
:10208000EF919F918F914F913F912F910F900BBEA8
:102090000F900FBE0F901F90189508951F920F92EA
:1020A0000FB60F920BB60F9211242F933F934F93BD
:1020B0008F939F93EF93FF938091D00082FD1DC07B
:1020C0004091D60020917708309178082F5F3F4FDC
:1020D0002F7330708091790890917A08281739070A
:1020E00071F0E0917708F0917808E95CF74F408350
:1020F000309378082093770802C08091D600FF9132
:10210000EF919F918F914F913F912F910F900BBE27
:102110000F900FBE0F901F90189508951F920F9269
:102120000FB60F920BB60F9211242F933F934F933C
:102130008F939F93EF93FF938091300182FD1DC099
:10214000409136012091FF08309100092F5F3F4FE9
:102150002F73307080910109909102092817390777
:1021600071F0E091FF08F0910009E154F74F4083CE
:10217000309300092093FF0802C080913601FF913F
:10218000EF919F918F914F913F912F910F900BBEA7
:102190000F900FBE0F901F901895E0915309F0918A
:1021A0005409E05CFF4F8191919120813181821B24
:1021B000930B8F739070892B09F0EFDEE091750916
:1021C000F0917609E05CFF4F8191919120813181FE
:1021D000821B930B8F739070892B09F01EDFE091A7
:1021E0009709F0919809E05CFF4F819191912081CE
:1021F0003181821B930B8F739070892B09F04DDF17
:10220000E091B909F091BA09E05CFF4F8191919199
:1022100020813181821B930B8F739070892B09F081
:102220007CCF08951F920F920FB60F920BB60F92AC
:1022300011242F933F938F939F93EF93FF932091BC
:10224000AB073091AC078091AD079091AE0728178E
:10225000390731F48091C1008F7D8093C10014C093
:10226000E091AD07F091AE07E559F84F20818091DC
:10227000AD079091AE0701968F7390709093AE0763
:102280008093AD072093C600FF91EF919F918F91AE
:102290003F912F910F900BBE0F900FBE0F901F908C
:1022A00018951F920F920FB60F920BB60F92112432
:1022B0002F933F938F939F93EF93FF932091330836
:1022C00030913408809135089091360828173907E5
:1022D00031F48091C9008F7D8093C90014C0E091D2
:1022E0003508F0913608ED50F84F2081809135087F
:1022F0009091360801968F73907090933608809372
:1023000035082093CE00FF91EF919F918F913F91DF
:102310002F910F900BBE0F900FBE0F901F9018952E
:102320001F920F920FB60F920BB60F9211242F939C
:102330003F938F939F93EF93FF932091BB0830912E
:10234000BC088091BD089091BE082817390731F468
:102350008091D1008F7D8093D10014C0E091BD08A1
:10236000F091BE08E558F74F20818091BD0890910B
:10237000BE0801968F7390709093BE088093BD083D
:102380002093D600FF91EF919F918F913F912F91D4
:102390000F900BBE0F900FBE0F901F9018951F92BD
:1023A0000F920FB60F920BB60F9211242F933F93FB
:1023B0008F939F93EF93FF932091430930914409AA
:1023C00080914509909146092817390731F4809189
:1023D00031018F7D8093310114C0E0914509F09166
:1023E0004609ED5FF64F208180914509909146099D
:1023F00001968F73907090934609809345092093BE
:102400003601FF91EF919F918F913F912F910F9006
:102410000BBE0F900FBE0F901F901895AF92BF92FA
:10242000DF92EF92FF920F931F93CF93DF93EC0114
:102430007A018B01DD24403081EE580780E0680787
:1024400080E0780711F0DD24D39491E0A92EB12C1F
:10245000EC89FD89DD2069F0C50108A002C0880F64
:10246000991F0A94E2F7808360E079E08DE390E0C1
:1024700005C0108260E874E88EE190E0A801970141
:1024800032D72150304040405040569547953795BF
:10249000279580E12030380720F0DD2011F0DD2481
:1024A000D7CFE889F9893083EA89FB89208319A28B
:1024B000EE89FF89408121E030E0C9010C8C02C027
:1024C000880F991F0A94E2F7482B4083EE89FF8911
:1024D0004081C9010D8C02C0880F991F0A94E2F750
:1024E000482B4083EE89FF894081C9010E8C02C0D0
:1024F000880F991F0A94E2F7482B4083EE89FF89E1
:1025000080810F8C02C0220F331F0A94E2F72095BE
:1025100028232083DF91CF911F910F91FF90EF909F
:10252000DF90BF90AF900895DC011C96ED91FC9177
:102530001D97E05CFF4F2191319180819181281B93
:10254000390B2F733070C9010895DC011C96ED9191
:10255000FC911D97E05CFF4F20813181E054F040F9
:10256000DF01AE5BBF4F8D919C9111972817390702
:1025700019F42FEF3FEF07C08D919C91E80FF91FE1
:102580008081282F30E0C9010895DC011C96ED916F
:10259000FC911D97E05CFF4F20813181E054F040B9
:1025A000DF01AE5BBF4F8D919C91119728173907C2
:1025B00019F42FEF3FEF10C08D919C911197E80F08
:1025C000F91F20818D919C91119701968F739070C6
:1025D00011969C938E9330E0C9010895DC01919689
:1025E0008C919197882339F05496ED91FC915597F1
:1025F000808186FFF9CF91961C920895CF93DF9347
:10260000EC01EE85FF85E05CFF4F20813181E054D5
:10261000F0402F5F3F4F2F733070DF01AE5BBF4F35
:102620008D919C91119728173907D1F3E05CFF4FEA
:1026300080819181E054F040E80FF91F6083EE85BE
:10264000FF85E05CFF4F31832083EE89FF89208185
:1026500081E090E00F8C02C0880F991F0A94E2F786
:10266000282B208381E089A3EC89FD898081806407
:10267000808381E090E0DF91CF9108951F931092C5
:102680004A091092490928EE33E040E050E02093D7
:102690004B0930934C0940934D0950934E0965E521
:1026A00076E0709348096093470987E297E090933A
:1026B0005409809353098BE697E0909356098093D1
:1026C000550985EC90E0909358098093570984EC64
:1026D00090E090935A098093590980EC90E0909390
:1026E0005C0980935B0981EC90E090935E09809394
:1026F0005D0982EC90E09093600980935F0986EC1D
:1027000090E0909362098093610914E0109363094B
:10271000B3E0B0936409A7E0A0936509F5E0F093F6
:102720006609E1E0E093670910926C0910926B0969
:1027300020936D0930936E0940936F09509370098F
:1027400070936A09609369098FEA97E0909376091C
:102750008093750983EF97E09093780980937709C8
:102760008DEC90E090937A09809379098CEC90E05D
:1027700090937C0980937B0988EC90E090937E098C
:1027800080937D0989EC90E09093800980937F0984
:102790008AEC90E090938209809381098EEC90E01E
:1027A000909384098093830910938509B0938609D7
:1027B000A0938709F0938809E093890910928E0904
:1027C00010928D0920938F093093900940939109BD
:1027D0005093920970938C0960938B0987E398E07A
:1027E00090939809809397098BE798E090939A09C2
:1027F0008093990985ED90E090939C0980939B09C3
:1028000084ED90E090939E0980939D0980ED90E087
:102810009093A00980939F0981ED90E09093A20985
:102820008093A10982ED90E09093A4098093A3097D
:1028300086ED90E09093A6098093A5091093A709CF
:10284000B093A809A093A909F093AA09E093AB0952
:102850001092B0091092AF092093B1093093B209D8
:102860004093B3095093B4097093AE096093AD09D6
:102870008FEB98E09093BA098093B90983E099E0CF
:102880009093BC098093BB0985E391E09093BE09C6
:102890008093BD0984E391E09093C0098093BF09C0
:1028A00080E391E09093C2098093C10981E391E0B4
:1028B0009093C4098093C30982E391E09093C60981
:1028C0008093C50986E391E09093C8098093C70976
:1028D0001093C909B093CA09A093CB09F093CC090E
:1028E000E093CD091F910895CF93DF9361D80E94A3
:1028F0009B08CDECD0E10E9444062097E1F34DDC2B
:10290000FACFCF92DF92EF92FF920F931F93CF9364
:10291000DF937C016B018A01C0E0D0E00FC0D601DB
:102920006D916D01D701ED91FC910190F081E02D49
:10293000C7011995C80FD91F015010400115110585
:1029400071F7CE01DF91CF911F910F91FF90EF9022
:10295000DF90CF900895EF92FF920F931F938C0119
:10296000DC01ED91FC910190F081E02D6DE0199575
:102970007C01D801ED91FC910190F081E02DC8011E
:102980006AE019959C012E0D3F1DC9011F910F9101
:10299000FF90EF900895EF92FF920F931F937C01A9
:1029A000DC01ED91FC910190F081E02D19958C01F5
:1029B000C701D1DF080F191FC8011F910F91FF90A8
:1029C000EF900895CF93DF93EC016115710519F431
:1029D00020E030E00FC0DB010D900020E9F71197F7
:1029E000A61BB70BE881F9810280F381E02DAD01D0
:1029F00019959C01C901DF91CF9108954F925F9283
:102A00007F928F929F92AF92BF92CF92DF92EF927E
:102A1000FF920F931F93DF93CF93CDB7DEB7A197AC
:102A20000FB6F894DEBF0FBECDBF2C01742ECB01C4
:102A3000223008F42AE019A231E2C32ED12CCC0EA8
:102A4000DD1E822E9924AA24BB24672D752FA50193
:102A5000940149D479018A01C801B701A501940103
:102A600004D4472D461B0894C108D1084A3014F4F9
:102A7000405D01C0495CF6014083E114F1040105A9
:102A8000110521F07E2C5F2DC801DFCFC201B601F8
:102A900099DFA1960FB6F894DEBF0FBECDBFCF91E0
:102AA000DF911F910F91FF90EF90DF90CF90BF903B
:102AB000AF909F908F907F905F904F900895DC0132
:102AC0002115310541F4ED91FC910190F081E02D4B
:102AD000642F1995089592CFEF92FF920F931F9351
:102AE0009A017B0100E010E0B801A701E8DF1F9127
:102AF0000F91FF90EF900895CF92DF92EF92FF92A7
:102B00000F931F93CF93DF93EC016A017B01211593
:102B1000310541F4E881F9810190F081E02D642FC5
:102B200019951DC02A303105C9F477FF16C0E88118
:102B3000F9810190F081E02D6DE219958C01442717
:102B40005527BA014C195D096E097F09CE012AE0AB
:102B500055DF9801280F391F03C02AE04FDF9C0181
:102B6000C901DF91CF911F910F91FF90EF90DF90FE
:102B7000CF900895EF92FF920F931F937B019A01DC
:102B80000027F7FC0095102FB801A701B5DF1F91B2
:102B90000F91FF90EF900895CF92DF92EF92FF9206
:102BA0000F931F936C017B019A010027F7FC00959E
:102BB000102FB801A701A0DF8C01C601CCDE080FE1
:102BC000191FC8011F910F91FF90EF90DF90CF90D8
:102BD0000895F8CE08957F928F929F92AF92BF9200
:102BE000CF92DF92EF92FF920F931F93CF93DF93D9
:102BF0004C017A018B01722ECB01BA01A801970119
:102C000030D3882321F0C40164E176E01FC0C0E026
:102C1000D0E057016801E894D7F8C601B5012FEF5D
:102C20003FEF4FE75FE71DD3882349F4C601B501A5
:102C30002FEF3FEF4FE75FE75ED1181614F0C1E0CA
:102C4000D0E0219731F0C40168E176E0BBDEEC0111
:102C500084C0C801B7012FEF3FEF4FE75FE49AD27E
:102C600018164CF0C801B7012FEF3FEF4FE75FECAC
:102C700042D1882324F4C4016CE176E0E7CFC80197
:102C8000B70120E030E040E050E035D187FD03C0DF
:102C9000C0E0D0E00EC0D401ED91FC910190F08134
:102CA000E02DC4016DE21995EC0117FB109517F9A1
:102CB000109520E030E040E05FE3DD240AC0CA0167
:102CC000B90120E030E040E251E419D19B01AC01B0
:102CD000D394D714A0F3C801B701A9D05B016C014C
:102CE0007BD17B018C01C401B801A7012AE030E04F
:102CF000E6DEC80FD91F772031F0C40160E276E02C
:102D000061DEC80FD91FC801B70192D19B01AC0188
:102D1000C601B5018BD01FC020E030E040E251E495
:102D20003DD27B018C0153D15B016C01CC24B7FCFB
:102D3000C094DC2CC401B601A5012AE030E0DCDE41
:102D4000C80FD91FC601B50175D19B01AC01C801DF
:102D5000B7016CD07A947720F9F6CE01DF91CF914C
:102D60001F910F91FF90EF90DF90CF90BF90AF90A9
:102D70009F908F907F9008952ECF0895EF92FF92AD
:102D80000F931F937C011EDE8C01C701E4DD080F49
:102D9000191FC8011F910F91FF90EF9008952F9276
:102DA0003F924F925F926F927F928F929F92AF92DB
:102DB000BF92CF92DF92EF92FF920F931F93DF9318
:102DC000CF93CDB7DEB73B014C0119012A016E89C3
:102DD0007F89888D998D6A197B098C099D09621AF2
:102DE000730A840A950AA40193013FD2E218F308FA
:102DF00004091509A801970198D22A0D3B1D4C1D05
:102E00005D1DB901CA01CF91DF911F910F91FF9014
:102E1000EF90DF90CF90BF90AF909F908F907F907A
:102E20006F905F904F903F902F9008955058BB2720
:102E3000AA270ED075C166D130F06BD120F031F4E5
:102E40009F3F11F41EF45BC10EF4E095E7FB51C106
:102E5000E92F77D180F3BA176207730784079507C4
:102E600018F071F49EF58FC10EF4E0950B2EBA2F79
:102E7000A02D0B01B90190010C01CA01A001112480
:102E8000FF27591B99F0593F50F4503E68F11A162C
:102E9000F040A22F232F342F4427585FF3CF4695BD
:102EA00037952795A795F0405395C9F77EF41F16DF
:102EB000BA0B620B730B840BBAF09150A1F0FF0FA9
:102EC000BB1F661F771F881FC2F70EC0BA0F621F95
:102ED000731F841F48F4879577956795B795F79585
:102EE0009E3F08F0B3CF9395880F08F09927EE0F17
:102EF000979587950895D9D008F481E008950CD06E
:102F00000FC107D140F0FED030F021F45F3F19F03F
:102F1000F0C0511139C1F3C014D198F39923C9F30A
:102F20005523B1F3951B550BBB27AA2762177307CF
:102F3000840738F09F5F5F4F220F331F441FAA1F83
:102F4000A9F333D00E2E3AF0E0E830D09150504043
:102F5000E695001CCAF729D0FE2F27D0660F771FF1
:102F6000881FBB1F261737074807AB07B0E809F0D3
:102F7000BB0B802DBF01FF2793585F4F2AF09E3F68
:102F8000510568F0B6C000C15F3FECF3983EDCF33A
:102F9000869577956795B795F7959F5FC9F7880FE1
:102FA000911D9695879597F90895E1E0660F771F33
:102FB000881FBB1F621773078407BA0720F0621BC4
:102FC000730B840BBA0BEE1F88F7E095089504D0BD
:102FD0006894B111D9C00895BCD088F09F5790F083
:102FE000B92F9927B751A0F0D1F0660F771F881F2E
:102FF000991F1AF0BA95C9F712C0B13081F0C3D049
:10300000B1E00895C0C0672F782F8827B85F39F0E6
:10301000B93FCCF3869577956795B395D9F73EF48C
:1030200090958095709561957F4F8F4F9F4F089534
:10303000E89409C097FB3EF4909580957095619552
:103040007F4F8F4F9F4F9923A9F0F92F96E9BB2708
:103050009395F695879577956795B795F111F8CF84
:10306000FAF4BB0F11F460FF1BC06F5F7F4F8F4FEF
:103070009F4F16C0882311F096E911C0772321F0E5
:103080009EE8872F762F05C0662371F096E8862F7D
:1030900070E060E02AF09A95660F771F881FDAF7D4
:1030A000880F9695879597F90895990F0008550F01
:1030B000AA0BE0E8FEEF16161706E807F907C0F0BE
:1030C00012161306E407F50798F0621B730B840BC6
:1030D000950B39F40A2661F0232B242B252B21F4A0
:1030E00008950A2609F4A140A6958FEF811D811D40
:1030F000089597F99F6780E870E060E008959FEF7A
:1031000080EC089500240A9416161706180609067E
:10311000089500240A94121613061406050608954D
:10312000092E0394000C11F4882352F0BB0F40F4D5
:10313000BF2B11F460FF04C06F5F7F4F8F4F9F4F15
:10314000089557FD9058440F551F59F05F3F71F097
:103150004795880F97FB991F61F09F3F79F08795FE
:103160000895121613061406551FF2CF4695F1DF87
:1031700008C0161617061806991FF1CF8695710517
:10318000610508940895E894BB2766277727CB014B
:1031900097F908958ADF08F48FEF08950BD0C0CF18
:1031A000B1DF28F0B6DF18F0952309F0A2CFA7CF42
:1031B0001124EACFC6DFA0F3959FD1F3950F50E01D
:1031C000551F629FF001729FBB27F00DB11D639FD9
:1031D000AA27F00DB11DAA1F649F6627B00DA11D7F
:1031E000661F829F2227B00DA11D621F739FB00D25
:1031F000A11D621F839FA00D611D221F749F332795
:10320000A00D611D231F849F600D211D822F762F2D
:103210006A2F11249F5750408AF0E1F088234AF02A
:10322000EE0FFF1FBB1F661F771F881F9150504076
:10323000A9F79E3F510570F05CCFA6CF5F3FECF33E
:10324000983EDCF3869577956795B795F795E79562
:103250009F5FC1F7FE2B880F911D9695879597F973
:10326000089523DF880B990B0895629FD001739F07
:10327000F001829FE00DF11D649FE00DF11D929F12
:10328000F00D839FF00D749FF00D659FF00D992751
:10329000729FB00DE11DF91F639FB00DE11DF91F75
:1032A000BD01CF0111240895991B79E004C0991F35
:1032B000961708F0961B881F7A95C9F78095089590
:1032C00097FB092E07260AD077FD04D049D006D0F7
:1032D00000201AF4709561957F4F0895F6F7909548
:1032E00081959F4F0895A1E21A2EAA1BBB1BFD01D9
:1032F0000DC0AA1FBB1FEE1FFF1FA217B307E407D5
:10330000F50720F0A21BB30BE40BF50B661F771F2C
:10331000881F991F1A9469F760957095809590950C
:103320009B01AC01BD01CF01089597FB092E052635
:103330000ED057FD04D0D7DF0AD0001C38F45095CA
:103340004095309521953F4F4F4F5F4F0895F6F7C9
:1033500090958095709561957F4F8F4F9F4F089501
:10336000AA1BBB1B51E107C0AA1FBB1FA617B707AB
:1033700010F0A61BB70B881F991F5A95A9F78095C7
:103380009095BC01CD010895EE0FFF1F0590F491BB
:08339000E02D1994F894FFCF21
:103398004D4F57494E47004C41554E4348494E47BB
:1033A80000545241434B494E4700444F434B494E0A
:1033B80047004348415247494E4700444542554714
:1033C80000434F4E464947555245005354415254C5
:1033D80055500049444C450053544F50004C454605
:1033E80054005249474854005374617274696E67B7
:1033F800206375747465722E2E2E0020202D2053A4
:103408006C6F7720737461727400202020202D2047
:1034180000436F756E7465723A2000204C4D6F74CE
:103428003A200020524D6F743A200020202D20426F
:1034380061636B696E6720757020776974682074A2
:103448007769737420286F6E6520776865656C20CE
:10345800726564756365642073706565642920000E
:10346800207365636F6E64732E0020202D20446FD7
:103478006E65206261636B696E672075700020203D
:103488002D204261636B696E6720757020002A20C9
:1034980072657665727365446972656374696F6E87
:1034A80028290020202D206E65775F6C656674449E
:1034B8006972656374696F6E3A2000206E65775F84
:1034C8007269676874446972656374696F6E3A20DB
:1034D80000206C6566744D6F746F72537065656417
:1034E8003A20002072696768744D6F746F72537068
:1034F8006565643A200020202D206C6566744D6F48
:10350800746F7253706565643A20006661756C74F7
:10351800004572726F72206E756D6265723A200096
:1035280020202D206375747465725F7374617465EF
:103538003A2000233A20002042433A2000204C43FE
:103548003A20002052433A2000204C4D6F746F728D
:1035580053703A200020524D6F746F7253703A20A6
:1035680000204375747465723A20002042617474B7
:103578006572793A2000202800562900205374618A
:1035880074653A20002044656275673A200020433C
:1035980068617267653A20004F4B004E4F4B21001F
:1035A800205243313A2000202F2000205243323A43
:1035B80020003D3D3D3D3D3D3D3D3D3D3D3D3D3D8D
:1035C8003D3D3D3D3D3D3D3D3D3D3D3D3D3D3D3D23
:1035D8003D3D3D3D3D3D3D3D3D3D3D3D3D3D002A63
:1035E800205374617274696E672075700020202DF5
:1035F8002053746F7070696E6720656E67696E65B9
:1036080073002A204D6F746F722063757272656E35
:1036180074207468726573686F6C64207265616386
:103628006865640020202D20004361756768742058
:1036380073657269616C0020202D2052656365698D
:103648007665643A200020202D20537461727469D5
:103658006E6720726F626F740020202D205265768D
:10366800657273696E6720726F626F740020202D17
:10367800205475726E696E67206C65667400202030
:103688002D205475726E696E6720726967687400C0
:1036980020202D20546F67676C65206375747465EE
:1036A800720020202D20546F67676C696E67206454
:1036B8006562756720666C61670020202D20546F55
:1036C80067676C696E67207072696E7420737461C5
:1036D800747573206F75747075740020202D2042E6
:1036E800756D700020202D2053746F7070696E679F
:1036F80020726F626F740020202D20524331003AEF
:103708002000436F6E6669677572696E673A204676
:10371800756C6C207468726F746C65202B206465FE
:103728006C617900436F6E6669677572696E673A96
:1037380020300053657474696E672063757474650E
:10374800725F73746174653D3000436F6E666967BC
:103758007572696E673A2033207365636F6E6473A0
:10376800206C6F77002A2053657474696E67207522
:103778007020524320726563656976657200202067
:103788002D20446F6E6521002A2043616C696272A6
:103798006174696E67205243205A65726F20737492
:1037A800617465006E616E00696E66006F76660012
:1037B8002E00010007004803B405200804005A053C
:1037C800A406EE07FFFF0000E803EE0700FE000274
:1037D800E7FF1900E7FF190096000100000000004C
:1037E8000000000000FE1281149412C512A512EE0A
:0237F8001200BD
:00000001FF
