:1000000003C100002EC100002CC100002AC1000065
:1000100028C1000026C1000024C1000022C1000048
:1000200020C100001EC100001CC100001AC1000058
:1000300018C1000016C1000014C1000012C1000068
:1000400010C100000C94740B0CC100000AC1000028
:1000500008C1000006C1000004C100000C94A10BFF
:1000600000C100000C94380F0C947C10FAC0000002
:10007000F8C00000F6C00000F4C00000F2C00000AC
:100080000C94470BEEC00000ECC00000EAC000007A
:100090000C94780F0C94BB10E4C00000E2C0000088
:1000A000E0C00000DEC000000C941A0BDAC00000B3
:1000B000D8C00000D6C00000D4C000000C94ED0AE7
:1000C000D0C00000CEC00000CCC000000C94B80F1F
:1000D0000C94FA10C6C000000C94F80F0C9439115F
:1000E000C0C0000000002100240027002A002D00CD
:1000F0003000330001010000040107010A01000083
:100100002200250028002B002E00310034000201BF
:100110000000050108010B0100002000230026005B
:1001200029002C002F00320000010000030106010D
:10013000090105050505070508080808020202026D
:100140000A0A080804040404010101010101010173
:100150000303030303030303040707070C0C0C0C3E
:100160000C0C0C0C02020202060606060606060627
:100170000B0B0B0B0B0B0B0B0102102020080810B4
:100180002040102040800201020108040201010207
:1001900004081020408080402010080402018004E0
:1001A000020180402010080402010804020101023B
:1001B0000408102040800102040810204080000044
:1001C000090A02080B0C0D070603040100000000D9
:1001D000000000000000000000000000000000001F
:1001E0000000000000000000000011100F000000DF
:1001F00000000000000000000000000000000000FF
:10020000000000003201A81211241FBECFEFD1E27E
:10021000DEBFCDBF00E00CBF16E0A0E0B2E0ECE630
:10022000F2E300E00BBF02C007900D92A231B107CC
:10023000D9F71BBE19E0A2E1B6E001C01D92AF37AD
:10024000B107E1F712E0C8E0D2E004C02297FE0156
:100250000E943019C430D107C9F70E94DE130C94F4
:100260003419CECE82E196E087D78DE090E090936E
:10027000300680932F068CE090E0909332068093B6
:1002800031068BE090E0909334068093330683E050
:1002900090E090933606809335068FEF9FEF909312
:1002A0003806809337060895809127069091280696
:1002B0008530910509F446C0863091059CF4823062
:1002C000910589F18330910534F4009711F101977C
:1002D00009F05DC023C08330910551F1049709F006
:1002E00056C02BC088309105E1F1893091053CF46E
:1002F0008630910561F1079709F049C02DC08A3019
:100300009105C9F18A3091058CF10B9709F03FC036
:1003100038C087EF98E060E072E031C087EF98E086
:1003200067E072E02CC087EF98E061E172E027C0DF
:1003300087EF98E06AE172E022C087EF98E062E21E
:1003400072E01DC087EF98E06BE272E018C087EFA3
:1003500098E061E372E013C087EF98E06BE372E02E
:100360000EC087EF98E063E472E009C087EF98E081
:1003700068E472E004C087EF98E06DE472E00C94EA
:10038000531587EF98E062E572E00C9453150895D9
:1003900082E196E06AE570E045D710921E06109261
:1003A0001D060895CF93DF9387E090E09093280691
:1003B0008093270687EF98E040E052EC61E070E020
:1003C0000E94781186E061E00E94B60D80912F06B0
:1003D00061E00E94B60D8091310661E00E94B60D89
:1003E0008091330661E00E94B60D8091350661E090
:1003F0000E94B60D82E196E066E070E00E94280A55
:100400008091270690912806069741F582E196E0B3
:1004100064EB70E007D787EF98E06BE672E00E942C
:10042000281668EB7BE080E090E00E94E90B87EF04
:1004300098E06DE872E00E94281682E196E060E0A4
:1004400070E0F0D668EB7BE080E090E00E94E90B82
:1004500085E090E0909328068093270687EF98E048
:100460006CE972E00E94281610921E0610921D067A
:1004700087EF98E063EB72E00E942816C0E0D0E0BE
:1004800082E196E06AE570E0CDD661E070E080E060
:1004900090E00E94E90B21968BE0C83BD80781F7DA
:1004A0008091E6059091E7058739910534F086E95A
:1004B00090E09093E7058093E6056ADF809133062C
:1004C00068EC70E00E94D80C8091350668EC70E012
:1004D0000E94D80C80912F0660E00E94690E8091E6
:1004E000310660E00E94690EDF91CF910895682F78
:1004F000809131060C94690ECF93DF93EC019093B9
:100500002206809321068F3F910539F034F08FEF5A
:1005100090E090932206809321068091210690918D
:10052000220681509F4F34F481E09FEF9093220682
:1005300080932106609121067091220677FF03C007
:10054000709561957F4F809135060E94D80C80E0B0
:100550001C161D060CF481E0CADFDF91CF910895CF
:10056000682F80912F060C94690ECF93DF93EC01D6
:100570009093200680931F068F3F910539F034F049
:100580008FEF90E09093200680931F0680911F06C6
:100590009091200681509F4F34F481E09FEF90931B
:1005A000200680931F0660911F067091200677FF3A
:1005B00003C0709561957F4F809133060E94D80CDF
:1005C00080E01C161D060CF481E0CADFDF91CF919C
:1005D0000895CF93DF9387EF98E06EEC72E00E946E
:1005E000281687EF98E06DED72E00E945315C0E089
:1005F000D0E0CE01BADFCE017FDF6FE070E080E0B7
:1006000090E00E94E90B2596CF3FD10591F78FEF3F
:1006100090E0ABDF8FEF90E06FDFDF91CF91089537
:1006200080E090E0A2DF80E090E066DF68EC70E0C0
:1006300080E090E00C94E90B0F931F9307EF18E014
:10064000C80164EE72E00E94531560912906709112
:100650002A06C8014AE050E00E942415C8016EEE47
:1006600072E00E9453156091230670912406C80120
:100670004AE050E00E942415C80166EF72E00E9433
:1006800053156091250670912606C8014AE050E096
:100690000E942415C8010E9415141F910F910895FE
:1006A000CF92DF92EF92FF920F931F938C0187EF0F
:1006B000C82E88E0D82EC6016EEF72E00E94531556
:1006C000C601B8014AE050E00E942415C60163E368
:1006D00073E00E94531580E090E047DF80E090E0F7
:1006E0000BDF81E09FEF41DF81E09FEF05DFC80175
:1006F00062E070E00E94CA187B010027F7FC0095B9
:10070000102FC801B7010E94E90B8FEF90E0F4DED3
:10071000C801B7010E94E90B80E090E026DF80E08D
:1007200090E0EADEC6016DE373E00E94281664E6FD
:1007300070E080E090E00E94E90B1F910F91FF9024
:10074000EF90DF90CF9008954F925F926F927F92DB
:100750008F929F92AF92BF92CF92DF92EF92FF92D1
:100760000F931F93CF93DF9387EF98E061E673E0D9
:100770000E942816C0911F06D09120061C161D0647
:100780003CF051E0452E512C41E0642E712C06C006
:1007900044244A94542C66246A94762C87EF98E07B
:1007A00066E773E00E94531587EF98E0B3014AE0D3
:1007B00050E00E94241587EF98E06EE873E00E94F5
:1007C000531587EF98E0B2014AE050E00E942415EB
:1007D00087EF98E064EA73E00E94531587EF98E092
:1007E000BE014AE050E00E94241587EF98E066EBD6
:1007F00073E00E94531587EF98E0BE014AE050E095
:100800000E94241587EF98E00E9415147E01D7FFFF
:1008100004C0F094E194F108F3944301880C991C0E
:10082000880C991C860C971C5201AA0CBB1CAA0CA4
:10083000BB1CA40CB51CCC24DD2400E010E0C0E0FF
:10084000D0E0C80192DECE0157DE87EF98E069EC78
:1008500073E00E94531587EF98E0B8014AE050E03A
:100860000E94241587EF98E066EB73E00E94531511
:1008700087EF98E0BE014AE050E00E94241587EF20
:1008800098E00E9415146FE070E080E090E0A1D73E
:1008900085E090E0C80ED91E080D191DCA0DDB1D9C
:1008A0009FEFC916D10469F66E9CC0016F9C900D34
:1008B0007E9C900D112459DE4E9CC0014F9C900DE2
:1008C0005E9C900D112418DEDF91CF911F910F9146
:1008D000FF90EF90DF90CF90BF90AF909F908F9060
:1008E0007F906F905F904F900895CF92DF92EF923C
:1008F000FF920F931F9377EFE72E78E0F72E60912A
:100900001D0670911E06C7014AE050E00E94361590
:1009100000911D0610911E0681E090E0082719271E
:1009200063EFC62E63E0D62EC701B6010E945315B1
:1009300060911D0670911E06C7014AE050E00E94BA
:10094000361510931E0600931D06C701B6010E94BE
:10095000531560911D0670911E06C7014AE050E0D4
:100960000E9436151F910F91FF90EF90DF90CF906E
:10097000089587E3E9C786E3E7C788E3E5C74F92B1
:100980005F926F927F928F929F92AF92BF92CF921F
:10099000DF92EF92FF920F931F93CF93DF93EC01BF
:1009A000219700D00F92DE01AA0FBB1FFD01E95E67
:1009B000F94F60817181882777FD8095982F2E01EE
:1009C000440C551C440C551CF201EE0FFF1FE55161
:1009D000FA4F20813181442737FD4095542FFE0185
:1009E00013E0EE0FFF1F1A95E1F7E751FA4FE6808B
:1009F000F7800027F7FC0095102FEAEDF5E04E0E8A
:100A00005F1EF201A080B180CC24B7FCC094DC2C26
:100A1000AA0FBB1FA452BA4F6D907C90882477FC1C
:100A20008094982CEDB7FEB76182728283829482A3
:100A30000E943916F20140815181CB010F900F9035
:100A40000F900F90641775070CF4CA01CC0FDD1FCF
:100A5000CC0FDD1FC452DA4FA881B9819C01A817C1
:100A6000B9070CF49D01C901DF91CF911F910F913E
:100A7000FF90EF90DF90CF90BF90AF909F908F90BE
:100A80007F906F905F904F9008958091D8059091DE
:100A9000D905019709F028C187EF98E066E074E076
:100AA0000E9453156091290670912A0687EF98E0FD
:100AB0004AE050E00E94241587EF98E06AE074E075
:100AC0000E94531560912B0670912C0687EF98E0D9
:100AD0004AE050E00E94241587EF98E060E174E05E
:100AE0000E945315609123067091240687EF98E0C9
:100AF0004AE050E00E94241587EF98E066E174E038
:100B00000E945315609125067091260687EF98E0A4
:100B10004AE050E00E94241587EF98E06CE174E011
:100B20000E94531560911F067091200687EF98E090
:100B30004AE050E00E94241587EF98E068E274E0F4
:100B40000E945315609121067091220687EF98E06C
:100B50004AE050E00E94241587EF98E064E374E0D7
:100B60000E94531560911D0670911E0687EF98E054
:100B70004AE050E00E94241587EF98E06EE374E0AD
:100B80000E94531560912D0670912E0687EF98E014
:100B90004AE050E00E94241587EF98E069E474E091
:100BA0000E94531560912D0670912E06882777FDBF
:100BB0008095982F0E94841720E030E04CEA51E4A1
:100BC0000E94381820E030E040E85AE30E943818CC
:100BD000AB01BC0187EF98E022E030E00E942616CE
:100BE00087EF98E06CE474E00E94531587EF98E07B
:100BF0006FE474E00E94531557DB87EF98E068E5D7
:100C000074E00E945315609115067091160687EFE7
:100C100098E04AE050E00E94241587EF98E061E6F2
:100C200074E00E94531560912D0670912E0688275E
:100C300077FD8095982F0E94841720E030E849E0E6
:100C400054E40E94341818162CF487EF98E06BE6F1
:100C500074E004C087EF98E06EE674E00E945315DC
:100C600087EF98E063E774E00E94531581E090E01D
:100C700086DEBC0187EF98E04AE050E00E94241530
:100C800087EF98E06AE774E00E94531560911706B9
:100C90007091180687EF98E04AE050E00E94241512
:100CA00087EF98E06EE774E00E94531582E090E0D1
:100CB00066DEBC0187EF98E04AE050E00E94241510
:100CC00087EF98E06AE774E00E9453156091190677
:100CD00070911A0687EF98E04AE050E00E942415D0
:100CE00087EF98E00C9415140895EF92FF920F93FC
:100CF0001F9307EF18E0C8010E94151445E8E42E81
:100D000044E0F42EC801B7010E942816C80162EB26
:100D100074E00E942816C801B7010E942816C80175
:100D200060EC74E00E942816C8016DED72E00E942C
:100D30005315ABDE80E090E018DC80E090E0DCDB77
:100D400068EE73E080E090E044D51F910F91FF9032
:100D5000EF900895CF93DF9381E090E010DEEC01F7
:100D60008FEFCC3ED8073CF4CE0181509F4FFDDB86
:100D70008FEF90E00AC0C531D10544F08FEF90E0CD
:100D8000F4DB8FEF90E08C1B9D0BB6DB6396A7978F
:100D900030F48FEF90E0E9DB8FEF90E0ADDBDF9197
:100DA000CF910895FC0153E0EE0FFF1F5A95E1F734
:100DB000EF51FA4F808161E028EA31E640E050E0EF
:100DC000BAD7CB0108950F931F93CF93DF93D5DD4F
:100DD00090932E0680932D06CEDD9093240680936B
:100DE0002306C7DD909326068093250681E090E0D8
:100DF000D9DF909318068093170682E090E0D2DF47
:100E000090931A068093190682E090E0B8DD40972F
:100E100054F08091270690912806892B21F010929A
:100E200028061092270682E090E0A9DD815F9F4F9F
:100E300064F48091270690912806892B31F489E08B
:100E400090E0909328068093270680912706909142
:100E500028068930910509F4B1C08A3091055CF407
:100E60008530910509F476C08730910509F470C08A
:100E7000892B69F0AAC08B30910509F487C08B30AB
:100E800091050CF474C00C9709F09FC02BC062DF71
:100E90008091150690911606892BF9F4809123060E
:100EA00090912406069734F48091250690912606A9
:100EB00006979CF080912B0690912C0601969093BA
:100EC0002C0680932B0605970CF47FC010922C06FD
:100ED00010922B068CE090E074C010922C061092B9
:100EE0002B0673C055DA87EF98E065ED74E00E9439
:100EF000281687EF98E067EF74E00E94531587EF9C
:100F000098E060E174E00E94531535DDBC0187EF85
:100F100098E04AE050E00E94D61487EF98E066E13E
:100F200074E00E94531525DDBC0187EF98E04AE08C
:100F300050E00E94D61487EF98E00E9415148CEDC3
:100F400095E0AEDB46DB10922806109227063DC0E6
:100F5000CCDE35C0C0E0D0E06FDB64EF71E080E054
:100F600090E037D42196CA30D105B1F72EC0009158
:100F70001F061091200680E090E0F7DA68EE73E03B
:100F800080E090E026D4C801F0DA0EC0009121067E
:100F90001091220680E090E0AFDA68EE73E080E026
:100FA00090E017D4C801A8DA1092280610922706FC
:100FB00064E670E080E090E00CD407C031DB88E0AC
:100FC00090E0909328068093270687EF98E00E9490
:100FD000FE11892B09F4B3C087EF98E00E942F120D
:100FE000082F87EF98E06CEF74E00E94281687EFD7
:100FF00098E06AE075E00E94531587EF98E0602F53
:101000000E943514033799F48091270690912806A1
:10101000892B09F4A8C087EF98E069E175E00E9488
:1010200028161092280610922706D3DA88C00436B4
:1010300079F48091270690912806892B09F07FC0CA
:1010400087EF98E06CE275E00E9428167DDB77C0A0
:101050000C3681F48091270690912806892B09F09F
:101060006EC087EF98E060E475E00E9428168AE081
:1010700090E061C0023781F48091270690912806A4
:10108000892B09F05CC087EF98E061E575E00E946C
:1010900028168BE090E04FC0033699F48091270624
:1010A00090912806892B09F04AC087EF98E063E603
:1010B00075E00E94281619DC109228061092270667
:1010C0003EC0043499F487EF98E065E775E00E942C
:1010D0002816809115069091160621E030E08227AF
:1010E0009327909316068093150629C0003799F42C
:1010F00087EF98E06DE875E00E9428168091D8058A
:101100009091D90521E030E0822793279093D9056B
:101110008093D80514C0023691F4809127069091EF
:101120002806892B61F487EF98E06EEA75E00E944B
:1011300028168CE090E09093280680932706A5DC83
:101140008091290690912A06019690932A06809311
:10115000290664E670E080E090E03BD3DF91CF9118
:101160001F910F91089587EF98E067EB75E00E945B
:10117000281689E090E0DFCFFC01809139068033AA
:1011800090F480838F5F80933906815090E0FC015A
:10119000EE0FFF1FE80FF91FE65CF94F88EB9BE0AD
:1011A0009283818308958FEF80830895FC012081CD
:1011B0002033B8F58181992787FD909548E850E064
:1011C000481B590B440F551F440F551F64177507D3
:1011D00084F08281992787FD909548E552E0481B6D
:1011E000590B440F551F440F551F641775070CF416
:1011F000AB0142505040CA01AA2797FDA095BA2FD3
:10120000880F991FAA1FBB1F4FB7F89430E0F90150
:10121000EE0FFF1FE20FF31FE65CF94F928381830D
:101220004FBF0895AF92BF92CF92DF92EF92FF929D
:101230000F931F93CF93DF93EC019B0182E0603209
:1012400078070CF048C077FF03C020E030E005C00D
:10125000653B710514F024EB30E000D00F92B9012A
:10126000882777FD8095982F2981332727FD309592
:10127000E8E8AE2EB12CA21AB30AAA0CBB1CAA0C29
:10128000BB1CCC24B7FCC094DC2CEA81FF27E7FD13
:10129000F09528E532E02E1B3F0B220F331F220F63
:1012A000331F442737FD4095542FEDB7FEB72183F8
:1012B00032834383548320E030E040E050E004EB8D
:1012C000E02EF12C012D112D0E9439169B010F905B
:1012D0000F900F900F90CE01B90168DFDF91CF9191
:1012E0001F910F91FF90EF90DF90CF90BF90AF9044
:1012F0000895CF92DF92EF92FF921F93CF93DF93E7
:10130000EC01162F7A0169018881803308F092C0C0
:10131000862F61E02BD4888190E0FC01EE0FFF1F47
:10132000E80FF91FE65CF94F1F738081807C812BE9
:10133000808380E292E08E199F0964E070E00E9451
:10134000CA18698380E699E08C199D0964E070E011
:101350000E94CA186A83A8818A2F6CE00E94BE1876
:10136000682F70E0AB01440F551F460F571F440F05
:10137000551F440F551F20E030E0C901840F951F11
:10138000FC01EE0FFF1FE80FF91FE65CF94F8081AB
:1013900086FD44C02F5F3F4F2C30310571F753C09D
:1013A0001092800082E0809381001092850010925C
:1013B0008400B19A80916F00826080936F002EC08C
:1013C0006230710569F41092900082E08093910080
:1013D000109295001092940088BB809371001EC0FB
:1013E0006330710569F41092A00082E08093A1003F
:1013F0001092A5001092A40089BB809372000EC0C9
:10140000672B61F41092200182E0809321011092F9
:101410002501109224018ABB809373008A2F90E0EB
:10142000FC01EE0FFF1FE80FF91FE65CF94F80810A
:10143000806480838881DF91CF911F91FF90EF902E
:10144000DF90CF9008956130710509F0B9CFA8CF32
:1014500040E252E020E639E04CCFEF92FF920F934A
:101460001F93CF93DF938B017A01EC01DC01A6532C
:10147000B94F8C9187FF04C0FB011182108236C0E6
:10148000AE01440F551F4C0F5D1F440F551F440FF5
:10149000551F2C91332727FD3095240F351F809140
:1014A000390690E0281739070CF58C91992787FDAC
:1014B0009095840F951FFC01EE0FFF1FE80FF91F99
:1014C000E65CF94F808186FF11C08C91992787FDDA
:1014D0009095840F951FFC01EE0FFF1FE80FF91F79
:1014E000E65CF94F80818F7360E0F3D3DE01A65391
:1014F000B94F8C918F5F8C93AE01440F551F4C0FE9
:101500005D1F440F551F440F551F2C91332727FD96
:101510003095240F351F8091390690E02817390740
:101520000CF04CC08C918C300CF048C0F80120813C
:1015300031818C91992787FD9095840F951FFC012F
:10154000EE0FFF1FE80FF91FE65CF94F81819281D2
:10155000280F391FF701318320838C91992787FD4C
:101560009095840F951FFC01EE0FFF1FE80FF91FE8
:10157000E65CF94F808186FF29C08C91992787FD11
:101580009095840F951FFC01EE0FFF1FE80FF91FC8
:10159000E65CF94F80818F7361E09BD317C080E4D4
:1015A0009CE904C0F801808191810496F701918340
:1015B0008083C653D94F8FEF888308C0F80180819C
:1015C0009181049680549C4950F3ECCFDF91CF91E8
:1015D0001F910F91FF90EF9008951F920F920FB6F9
:1015E0000F920BB60F9211242F933F934F935F935B
:1015F0006F937F938F939F93AF93BF93EF93FF93DB
:1016000080E090E064E271E048E251E026DFFF9183
:10161000EF91BF91AF919F918F917F916F915F916A
:101620004F913F912F910F900BBE0F900FBE0F90D7
:101630001F9018951F920F920FB60F920BB60F9234
:1016400011242F933F934F935F936F937F938F93C7
:101650009F93AF93BF93EF93FF9383E090E064EA8F
:1016600070E048EA50E0F9DEFF91EF91BF91AF9151
:101670009F918F917F916F915F914F913F912F91AA
:101680000F900BBE0F900FBE0F901F9018951F92DA
:101690000F920FB60F920BB60F9211242F933F9318
:1016A0004F935F936F937F938F939F93AF93BF936A
:1016B000EF93FF9382E090E064E970E048E950E046
:1016C000CCDEFF91EF91BF91AF919F918F917F9170
:1016D0006F915F914F913F912F910F900BBE0F90A3
:1016E0000FBE0F901F9018951F920F920FB60F927A
:1016F0000BB60F9211242F933F934F935F936F93E9
:101700007F938F939F93AF93BF93EF93FF9381E06A
:1017100090E064E870E048E850E09FDEFF91EF91D0
:10172000BF91AF919F918F917F916F915F914F91F9
:101730003F912F910F900BBE0F900FBE0F901F90F7
:1017400018951F920F920FB60F9211242F933F936B
:101750008F939F93AF93BF938091D2069091D306BE
:10176000A091D406B091D5063091D6060196A11D60
:10177000B11D232F2D5F2D3720F02D570196A11D70
:10178000B11D2093D6068093D2069093D306A093E2
:10179000D406B093D5068091CE069091CF06A09145
:1017A000D006B091D1060196A11DB11D8093CE0641
:1017B0009093CF06A093D006B093D106BF91AF917E
:1017C0009F918F913F912F910F900FBE0F901F907F
:1017D00018959B01AC017FB7F8948091CE0690914B
:1017E000CF06A091D006B091D10666B5A89B05C0E2
:1017F0006F3F19F00196A11DB11D7FBFBA2FA92F10
:10180000982F8827860F911DA11DB11D62E0880FBA
:10181000991FAA1FBB1F6A95D1F7BC012DC0FFB746
:10182000F8948091CE069091CF06A091D006B09109
:10183000D106E6B5A89B05C0EF3F19F00196A11DA2
:10184000B11DFFBFBA2FA92F982F88278E0F911D8A
:10185000A11DB11DE2E0880F991FAA1FBB1FEA95C9
:10186000D1F7861B970B885E9340C8F22150304019
:101870004040504068517C4F2115310541055105CC
:1018800071F60895789484B5826084BD84B58160D2
:1018900084BD85B5826085BD85B5816085BDEEE678
:1018A000F0E0808181608083E1E8F0E01082808157
:1018B00082608083808181608083E0E8F0E08081C5
:1018C00081608083E1EBF0E0808184608083E0EBE5
:1018D000F0E0808181608083E1E9F0E080818260D6
:1018E0008083808181608083E0E9F0E08081816095
:1018F0008083E1EAF0E08081826080838081816082
:101900008083E0EAF0E0808181608083E1E2F1E0C1
:10191000808182608083808181608083E0E2F1E069
:10192000808181608083EAE7F0E080818460808349
:1019300080818260808380818160808380818068F3
:1019400080831092C1000895382F863308F03653F3
:1019500020917B00832F86958695869590E08170F7
:10196000907043E0880F991F4A95E1F7277F282B55
:1019700020937B0037708091E8058295880F880F4F
:10198000807C832B80937C0080917A00806480939C
:101990007A0080917A0086FDFCCF209178004091FA
:1019A0007900942F80E030E0282B392BC90108956D
:1019B0001F93CF93DF93182FEB0161E0D7D02097CF
:1019C00009F4CAC0CF3FD10509F4C9C0E12FF0E046
:1019D000E254FE4F8491893009F466C08A30B0F435
:1019E0008430F1F1853040F4823059F1833070F564
:1019F000813009F0AEC020C0873009F443C0883080
:101A000008F048C0863009F0A4C034C08D3009F415
:101A100078C08E3038F48B3009F45AC08C3008F01E
:101A200066C04CC0803109F480C0813109F487C0A0
:101A30008F3009F08EC06FC084B5806884BDC7BD8B
:101A400091C084B5806284BDC8BD8CC08091800087
:101A5000806880938000D0938900C093880082C002
:101A600080918000806280938000D0938B00C0932F
:101A70008A0078C08091B00080688093B000C093E5
:101A8000B30070C08091B00080628093B000C093BA
:101A9000B40068C080919000806880939000D093DB
:101AA0009900C09398005EC08091900080628093FE
:101AB0009000D0939B00C0939A0054C080919000F6
:101AC000886080939000D0939D00C0939C004AC092
:101AD0008091A00080688093A0008091A0008F7BFF
:101AE0008093A000D093A900C093A8003BC0809130
:101AF000A00080628093A000D093AB00C093AA00A6
:101B000031C08091A00088608093A000D093AD0088
:101B1000C093AC0027C08091200180688093200191
:101B2000D0932901C09328011DC0809120018062BB
:101B300080932001D0932B01C0932A0113C0809180
:101B40002001886080932001D0932D01C0932C0147
:101B500009C0C038D1051CF4812F60E002C0812F7C
:101B600061E0B7D0DF91CF911F910895CF93DF93BC
:101B7000482F50E0CA0188589E4FFC0134914E5CBA
:101B80005E4FFA018491882369F190E0880F991FD4
:101B9000FC01EC51FF4FA591B491FC01E250FF4FC5
:101BA000C591D491662351F42FB7F8948C91932F5B
:101BB000909589238C93888189230BC0623061F4CE
:101BC0002FB7F8948C91932F909589238C938881CB
:101BD000832B88832FBF06C09FB7F8948C91832BEB
:101BE0008C939FBFDF91CF910895893009F449C04C
:101BF0008A30A0F4843051F1853040F4823079F19C
:101C0000833000F5813009F063C026C0873079F158
:101C1000883098F5863009F05BC025C08D3009F416
:101C200042C08E3028F48B30B1F18C30C0F52DC01D
:101C3000803109F442C0813109F445C08F3009F088
:101C400047C037C0809180008F7703C080918000AB
:101C50008F7D80938000089584B58F7702C084B50E
:101C60008F7D84BD08958091B0008F7703C08091EF
:101C7000B0008F7D8093B0000895809190008F77A1
:101C800007C0809190008F7D03C080919000877F76
:101C90008093900008958091A0008F7707C0809175
:101CA000A0008F7D03C08091A000877F8093A0005B
:101CB0000895809120018F7703C0809120018F7D4E
:101CC00080932001089580912001877F80932001D7
:101CD0000895FF920F931F93F62E482F50E0CA01EC
:101CE00082549E4FFC012491CA0188589E4FFC01EA
:101CF00014914E5C5E4FFA0104910023C1F022233F
:101D000011F0822F72DFE02FF0E0EE0FFF1FE250A4
:101D1000FF4FA591B4919FB7F894FF2021F48C91C7
:101D20001095812302C08C91812B8C939FBF1F91B2
:101D30000F91FF9008958F929F92AF92BF92CF9292
:101D4000DF92EF92FF920F931F93CF93DF93A82F11
:101D5000B0E0CD0188589E4FFC018490AE5CBE4F30
:101D6000FD018491662311F4992401C0982C6FEF32
:101D7000A62E6FEFB62E6FEFC62E6FE0D62EA222E4
:101D8000B322C422D522682F70E0660F771F685EE9
:101D90007E4FEE24FF248701FB01A591B4910BC077
:101DA000EA14FB040C051D0509F44EC00894E11C5F
:101DB000F11C011D111D8C918821891589F30CC01E
:101DC000EA14FB040C051D0509F43EC00894E11C4F
:101DD000F11C011D111D03C0FB01A591B4918C9153
:101DE0008821891569F720E030E040E050E0FB01F0
:101DF000C591D4910FC0DA01C9018E0D9F1DA01F9E
:101E0000B11F8A159B05AC05BD05F1F02F5F3F4F53
:101E10004F4F5F4F88818821891569F3CA01B90145
:101E200025E130E040E050E00E949F189B01AC01AA
:101E3000205F3F4F4F4F5F4F84E056954795379552
:101E400027958A95D1F704C020E030E040E050E0CB
:101E5000B901CA01DF91CF911F910F91FF90EF90CF
:101E6000DF90CF90BF90AF909F908F90089508958E
:101E70001F920F920FB60F920BB60F9211242F9351
:101E80003F934F938F939F93EF93FF938091C00065
:101E900082FD1DC04091C6002091170730911807A0
:101EA0002F5F3F4F2F7330708091190790911A0761
:101EB0002817390771F0E0911707F0911807E952D8
:101EC000F94F4083309318072093170702C0809181
:101ED000C600FF91EF919F918F914F913F912F916C
:101EE0000F900BBE0F900FBE0F901F901895089586
:101EF0001F920F920FB60F920BB60F9211242F93D1
:101F00003F934F938F939F93EF93FF938091C800DC
:101F100082FD1DC04091CE0020919F073091A00707
:101F20002F5F3F4F2F7330708091A1079091A207D0
:101F30002817390771F0E0919F07F091A007E15A47
:101F4000F84F40833093A00720939F0702C08091F1
:101F5000CE00FF91EF919F918F914F913F912F91E3
:101F60000F900BBE0F900FBE0F901F901895089505
:101F70001F920F920FB60F920BB60F9211242F9350
:101F80003F934F938F939F93EF93FF938091D00054
:101F900082FD1DC04091D60020912708309128086D
:101FA0002F5F3F4F2F7330708091290890912A083E
:101FB0002817390771F0E0912708F0912808E951B6
:101FC000F84F4083309328082093270802C080915F
:101FD000D600FF91EF919F918F914F913F912F915B
:101FE0000F900BBE0F900FBE0F901F901895089585
:101FF0001F920F920FB60F920BB60F9211242F93D0
:102000003F934F938F939F93EF93FF938091300172
:1020100082FD1DC0409136012091AF083091B0087B
:102020002F5F3F4F2F7330708091B1089091B208AD
:102030002817390771F0E091AF08F091B008E15925
:10204000F74F40833093B0082093AF0802C08091CF
:102050003601FF91EF919F918F914F913F912F9179
:102060000F900BBE0F900FBE0F901F901895E09130
:102070000309F0910409E05CFF4F81919191208167
:102080003181821B930B8F739070892B09F0EFDEE7
:10209000E0912509F0912609E05CFF4F8191919133
:1020A00020813181821B930B8F739070892B09F0F3
:1020B0001EDFE0914709F0914809E05CFF4F8191F4
:1020C000919120813181821B930B8F739070892BAA
:1020D00009F04DDFE0916909F0916A09E05CFF4F7A
:1020E0008191919120813181821B930B8F7390702C
:1020F000892B09F07CCF08951F920F920FB60F9293
:102100000BB60F9211242F933F938F939F93EF93CE
:10211000FF9320915B0730915C0780915D07909160
:102120005E072817390731F48091C1008F7D8093B5
:10213000C10014C0E0915D07F0915E07E55EF84FC5
:10214000208180915D0790915E0701968F7390705A
:1021500090935E0780935D072093C600FF91EF91F7
:102160009F918F913F912F910F900BBE0F900FBEBB
:102170000F901F9018951F920F920FB60F920BB6EB
:102180000F9211242F933F938F939F93EF93FF937D
:102190002091E3073091E4078091E5079091E607ED
:1021A0002817390731F48091C9008F7D8093C900C9
:1021B00014C0E091E507F091E607ED55F84F208156
:1021C0008091E5079091E60701968F739070909348
:1021D000E6078093E5072093CE00FF91EF919F9152
:1021E0008F913F912F910F900BBE0F900FBE0F90CC
:1021F0001F9018951F920F920FB60F920BB60F9269
:1022000011242F933F938F939F93EF93FF932091EC
:102210006B0830916C0880916D0890916E082817BA
:10222000390731F48091D1008F7D8093D10014C0A3
:10223000E0916D08F0916E08E55DF74F2081809187
:102240006D0890916E0801968F73907090936E0850
:1022500080936D082093D600FF91EF919F918F910D
:102260003F912F910F900BBE0F900FBE0F901F90BC
:1022700018951F920F920FB60F920BB60F92112462
:102280002F933F938F939F93EF93FF932091F308A6
:102290003091F4088091F5089091F60828173907D5
:1022A00031F4809131018F7D8093310114C0E09130
:1022B000F508F091F608ED54F74F20818091F5086C
:1022C0009091F60801968F7390709093F608809322
:1022D000F50820933601FF91EF919F918F913F91E7
:1022E0002F910F900BBE0F900FBE0F901F9018955F
:1022F000AF92BF92DF92EF92FF920F931F93CF9313
:10230000DF93EC017A018B01DD24403081EE580728
:1023100080E0680780E0780711F0DD24D39491E035
:10232000A92EB12CEC89FD89DD2069F0C50108A03A
:1023300002C0880F991F0A94E2F7808360E079E079
:102340008DE390E005C0108260E874E88EE190E0D3
:10235000A801970132D72150304040405040569557
:1023600047953795279580E12030380720F0DD200C
:1023700011F0DD24D7CFE889F9893083EA89FB8918
:10238000208319A2EE89FF89408121E030E0C90154
:102390000C8C02C0880F991F0A94E2F7482B4083E7
:1023A000EE89FF894081C9010D8C02C0880F991FF9
:1023B0000A94E2F7482B4083EE89FF894081C901E6
:1023C0000E8C02C0880F991F0A94E2F7482B4083B5
:1023D000EE89FF8980810F8C02C0220F331F0A947F
:1023E000E2F7209528232083DF91CF911F910F9151
:1023F000FF90EF90DF90BF90AF900895DC011C96A6
:10240000ED91FC911D97E05CFF4F2191319180810E
:102410009181281B390B2F733070C9010895DC019D
:102420001C96ED91FC911D97E05CFF4F208131815E
:10243000E054F040DF01AE5BBF4F8D919C9111974E
:102440002817390719F42FEF3FEF07C08D919C91A2
:10245000E80FF91F8081282F30E0C9010895DC01C1
:102460001C96ED91FC911D97E05CFF4F208131811E
:10247000E054F040DF01AE5BBF4F8D919C9111970E
:102480002817390719F42FEF3FEF10C08D919C9159
:102490001197E80FF91F20818D919C91119701965A
:1024A0008F73907011969C938E9330E0C9010895BC
:1024B000DC0191968C919197882339F05496ED9197
:1024C000FC915597808186FFF9CF91961C920895D3
:1024D000CF93DF93EC01EE85FF85E05CFF4F208119
:1024E0003181E054F0402F5F3F4F2F733070DF0198
:1024F000AE5BBF4F8D919C91119728173907D1F38F
:10250000E05CFF4F80819181E054F040E80FF91FBB
:102510006083EE85FF85E05CFF4F31832083EE8989
:10252000FF89208181E090E00F8C02C0880F991F05
:102530000A94E2F7282B208381E089A3EC89FD89A6
:1025400080818064808381E090E0DF91CF91089565
:102550001F931092FA081092F90828EE33E040E039
:1025600050E02093FB083093FC084093FD08509303
:10257000FE0865E076E07093F8086093F70887ED51
:1025800096E090930409809303098BE197E0909380
:1025900006098093050985EC90E0909308098093E3
:1025A000070984EC90E090930A098093090980EC74
:1025B00090E090930C0980930B0981EC90E090934C
:1025C0000E0980930D0982EC90E09093100980939E
:1025D0000F0986EC90E0909312098093110914E0A2
:1025E00010931309B3E0B0931409A7E0A093150961
:1025F000F5E0F0931609E1E0E093170910921C0949
:1026000010921B0920931D0930931E0940931F0946
:102610005093200970931A09609319098FE597E088
:10262000909326098093250983EA97E090932809DF
:10263000809327098DEC90E090932A0980932909D3
:102640008CEC90E090932C0980932B0988EC90E01F
:1026500090932E0980932D0989EC90E09093300996
:1026600080932F098AEC90E090933209809331098E
:102670008EEC90E0909334098093330910933509E0
:10268000B0933609A0933709F0933809E0933909DC
:1026900010923E0910923D0920933F093093400962
:1026A000409341095093420970933C0960933B0960
:1026B00087EE97E090934809809347098BE298E072
:1026C00090934A098093490985ED90E090934C09D5
:1026D00080934B0984ED90E090934E0980934D09CF
:1026E00080ED90E09093500980934F0981ED90E048
:1026F000909352098093510982ED90E09093540990
:102700008093530986ED90E0909356098093550984
:1027100010935709B0935809A0935909F0935A0997
:10272000E0935B091092600910925F0920936109A0
:1027300030936209409363095093640970935E0972
:1027400060935D098FE698E090936A098093690928
:1027500083EB98E090936C0980936B0985E391E09B
:1027600090936E0980936D0984E391E090937009D2
:1027700080936F0980E391E09093720980937109CF
:1027800081E391E0909374098093730982E391E06F
:10279000909376098093750986E391E09093780988
:1027A0008093770910937909B0937A09A0937B09F4
:1027B000F0937C09E0937D091F910895CF93DF93F7
:1027C00061D80E94D201C7E3D0E10E94E3062097BE
:1027D000E1F34DDCFACFCF92DF92EF92FF920F93AD
:1027E0001F93CF93DF937C016B018A01C0E0D0E09F
:1027F0000FC0D6016D916D01D701ED91FC91019053
:10280000F081E02DC7011995C80FD91F0150104064
:102810000115110571F7CE01DF91CF911F910F9135
:10282000FF90EF90DF90CF900895EF92FF920F937B
:102830001F938C01DC01ED91FC910190F081E02D62
:102840006DE019957C01D801ED91FC910190F0812A
:10285000E02DC8016AE019959C012E0D3F1DC901AC
:102860001F910F91FF90EF900895EF92FF920F93B9
:102870001F937C01DC01ED91FC910190F081E02D32
:1028800019958C01C701D1DF080F191FC8011F91CD
:102890000F91FF90EF900895CF93DF93EC016115B6
:1028A000710519F420E030E00FC0DB010D9000202D
:1028B000E9F71197A61BB70BE881F9810280F38134
:1028C000E02DAD0119959C01C901DF91CF910895CB
:1028D0004F925F927F928F929F92AF92BF92CF92D0
:1028E000DF92EF92FF920F931F93DF93CF93CDB7B9
:1028F000DEB7A1970FB6F894DEBF0FBECDBF2C0197
:10290000742ECB01223008F42AE019A231E2C32E42
:10291000D12CCC0EDD1E822E9924AA24BB24672D37
:10292000752FA501940149D479018A01C801B70125
:10293000A501940104D4472D461B0894C108D10871
:102940004A3014F4405D01C0495CF6014083E11453
:10295000F1040105110521F07E2C5F2DC801DFCFA8
:10296000C201B60199DFA1960FB6F894DEBF0FBE83
:10297000CDBFCF91DF911F910F91FF90EF90DF902E
:10298000CF90BF90AF909F908F907F905F904F902F
:102990000895DC012115310541F4ED91FC91019080
:1029A000F081E02D642F1995089592CFEF92FF9258
:1029B0000F931F939A017B0100E010E0B801A7017B
:1029C000E8DF1F910F91FF90EF900895CF92DF9273
:1029D000EF92FF920F931F93CF93DF93EC016A0165
:1029E0007B012115310541F4E881F9810190F081E5
:1029F000E02D642F19951DC02A303105C9F477FFE9
:102A000016C0E881F9810190F081E02D6DE2199501
:102A10008C0144275527BA014C195D096E097F09BD
:102A2000CE012AE055DF9801280F391F03C02AE0A4
:102A30004FDF9C01C901DF91CF911F910F91FF9052
:102A4000EF90DF90CF900895EF92FF920F931F9336
:102A50007B019A010027F7FC0095102FB801A70110
:102A6000B5DF1F910F91FF90EF900895CF92DF9205
:102A7000EF92FF920F931F936C017B019A01002745
:102A8000F7FC0095102FB801A701A0DF8C01C6014B
:102A9000CCDE080F191FC8011F910F91FF90EF9016
:102AA000DF90CF900895F8CE08957F928F929F92F5
:102AB000AF92BF92CF92DF92EF92FF920F931F934C
:102AC000CF93DF934C017A018B01722ECB01BA01B7
:102AD000A801970130D3882321F0C4016AEC75E086
:102AE0001FC0C0E0D0E057016801E894D7F8C601E4
:102AF000B5012FEF3FEF4FE75FE71DD3882349F480
:102B0000C601B5012FEF3FEF4FE75FE75ED1181623
:102B100014F0C1E0D0E0219731F0C4016EEC75E013
:102B2000BBDEEC0184C0C801B7012FEF3FEF4FE7D8
:102B30005FE49AD218164CF0C801B7012FEF3FEFAF
:102B40004FE75FEC42D1882324F4C40162ED75E0C5
:102B5000E7CFC801B70120E030E040E050E035D1D8
:102B600087FD03C0C0E0D0E00EC0D401ED91FC9120
:102B70000190F081E02DC4016DE21995EC0117FB85
:102B8000109517F9109520E030E040E05FE3DD2478
:102B90000AC0CA01B90120E030E040E251E419D195
:102BA0009B01AC01D394D714A0F3C801B701A9D0FD
:102BB0005B016C017BD17B018C01C401B801A701D1
:102BC0002AE030E0E6DEC80FD91F772031F0C401DB
:102BD00066ED75E061DEC80FD91FC801B70192D15B
:102BE0009B01AC01C601B5018BD01FC020E030E0D5
:102BF00040E251E43DD27B018C0153D15B016C0179
:102C0000CC24B7FCC094DC2CC401B601A5012AE099
:102C100030E0DCDEC80FD91FC601B50175D19B01BC
:102C2000AC01C801B7016CD07A947720F9F6CE01D7
:102C3000DF91CF911F910F91FF90EF90DF90CF9098
:102C4000BF90AF909F908F907F9008952ECF089562
:102C5000EF92FF920F931F937C011EDE8C01C70140
:102C6000E4DD080F191FC8011F910F91FF90EF902D
:102C700008952F923F924F925F926F927F928F9220
:102C80009F92AF92BF92CF92DF92EF92FF920F93FB
:102C90001F93DF93CF93CDB7DEB73B014C011901F2
:102CA0002A016E897F89888D998D6A197B098C0923
:102CB0009D09621A730A840A950AA40193013FD2FE
:102CC000E218F30804091509A801970198D22A0D02
:102CD0003B1D4C1D5D1DB901CA01CF91DF911F91B4
:102CE0000F91FF90EF90DF90CF90BF90AF909F90AB
:102CF0008F907F906F905F904F903F902F900895AE
:102D00005058BB27AA270ED075C166D130F06BD1C1
:102D100020F031F49F3F11F41EF45BC10EF4E095F6
:102D2000E7FB51C1E92F77D180F3BA176207730728
:102D30008407950718F071F49EF58FC10EF4E095A5
:102D40000B2EBA2FA02D0B01B90190010C01CA0165
:102D5000A0011124FF27591B99F0593F50F4503E10
:102D600068F11A16F040A22F232F342F4427585F02
:102D7000F3CF469537952795A795F0405395C9F71A
:102D80007EF41F16BA0B620B730B840BBAF09150D2
:102D9000A1F0FF0FBB1F661F771F881FC2F70EC071
:102DA000BA0F621F731F841F48F487957795679544
:102DB000B795F7959E3F08F0B3CF9395880F08F02D
:102DC0009927EE0F979587950895D9D008F481E05B
:102DD00008950CD00FC107D140F0FED030F021F49F
:102DE0005F3F19F0F0C0511139C1F3C014D198F30D
:102DF0009923C9F35523B1F3951B550BBB27AA277C
:102E000062177307840738F09F5F5F4F220F331FED
:102E1000441FAA1FA9F333D00E2E3AF0E0E830D0B9
:102E200091505040E695001CCAF729D0FE2F27D0BC
:102E3000660F771F881FBB1F261737074807AB078A
:102E4000B0E809F0BB0B802DBF01FF2793585F4FFF
:102E50002AF09E3F510568F0B6C000C15F3FECF319
:102E6000983EDCF3869577956795B795F7959F5FC4
:102E7000C9F7880F911D9695879597F90895E1E018
:102E8000660F771F881FBB1F621773078407BA0777
:102E900020F0621B730B840BBA0BEE1F88F7E095D2
:102EA000089504D06894B111D9C00895BCD088F0B9
:102EB0009F5790F0B92F9927B751A0F0D1F0660F26
:102EC000771F881F991F1AF0BA95C9F712C0B13041
:102ED00081F0C3D0B1E00895C0C0672F782F882754
:102EE000B85F39F0B93FCCF3869577956795B39580
:102EF000D9F73EF490958095709561957F4F8F4FEF
:102F00009F4F0895E89409C097FB3EF490958095F3
:102F1000709561957F4F8F4F9F4F9923A9F0F92F9F
:102F200096E9BB279395F695879577956795B7951D
:102F3000F111F8CFFAF4BB0F11F460FF1BC06F5F03
:102F40007F4F8F4F9F4F16C0882311F096E911C015
:102F5000772321F09EE8872F762F05C0662371F036
:102F600096E8862F70E060E02AF09A95660F771F4A
:102F7000881FDAF7880F9695879597F90895990F26
:102F80000008550FAA0BE0E8FEEF16161706E80733
:102F9000F907C0F012161306E407F50798F0621B54
:102FA000730B840B950B39F40A2661F0232B242B29
:102FB000252B21F408950A2609F4A140A6958FEF48
:102FC000811D811D089597F99F6780E870E060E09A
:102FD00008959FEF80EC089500240A9416161706B2
:102FE00018060906089500240A94121613061406FA
:102FF00005060895092E0394000C11F4882352F05D
:10300000BB0F40F4BF2B11F460FF04C06F5F7F4F14
:103010008F4F9F4F089557FD9058440F551F59F0FB
:103020005F3F71F04795880F97FB991F61F09F3FB5
:1030300079F087950895121613061406551FF2CFDE
:103040004695F1DF08C0161617061806991FF1CF2E
:1030500086957105610508940895E894BB27662755
:103060007727CB0197F908958ADF08F48FEF089549
:103070000BD0C0CFB1DF28F0B6DF18F0952309F0F0
:10308000A2CFA7CF1124EACFC6DFA0F3959FD1F33B
:10309000950F50E0551F629FF001729FBB27F00D06
:1030A000B11D639FAA27F00DB11DAA1F649F66275B
:1030B000B00DA11D661F829F2227B00DA11D621FAA
:1030C000739FB00DA11D621F839FA00D611D221F64
:1030D000749F3327A00D611D231F849F600D211D48
:1030E000822F762F6A2F11249F5750408AF0E1F0EB
:1030F00088234AF0EE0FFF1FBB1F661F771F881F34
:1031000091505040A9F79E3F510570F05CCFA6CF7B
:103110005F3FECF3983EDCF3869577956795B7951E
:10312000F795E7959F5FC1F7FE2B880F911D969548
:10313000879597F9089523DF880B990B0895629F6F
:10314000D001739FF001829FE00DF11D649FE00D9F
:10315000F11D929FF00D839FF00D749FF00D659F00
:10316000F00D9927729FB00DE11DF91F639FB00DFF
:10317000E11DF91FBD01CF0111240895991B79E0CC
:1031800004C0991F961708F0961B881F7A95C9F7F7
:103190008095089597FB092E07260AD077FD04D065
:1031A00049D006D000201AF4709561957F4F08959C
:1031B000F6F7909581959F4F0895A1E21A2EAA1BCC
:1031C000BB1BFD010DC0AA1FBB1FEE1FFF1FA217D7
:1031D000B307E407F50720F0A21BB30BE40BF50BD4
:1031E000661F771F881F991F1A9469F7609570955D
:1031F000809590959B01AC01BD01CF01089597FB8F
:10320000092E05260ED057FD04D0D7DF0AD0001CAA
:1032100038F450954095309521953F4F4F4F5F4F73
:103220000895F6F790958095709561957F4F8F4F33
:103230009F4F0895AA1BBB1B51E107C0AA1FBB1FCC
:10324000A617B70710F0A61BB70B881F991F5A9532
:10325000A9F780959095BC01CD010895EE0FFF1F51
:0C3260000590F491E02D1994F894FFCF34
:10326C004D4F57494E47004C41554E4348494E47E8
:10327C0000545241434B494E4700444F434B494E37
:10328C0047004348415247494E4700444542554741
:10329C0000434F4E464947555245005354415254F2
:1032AC0055500049444C450053544F50004C454632
:1032BC0054005249474854005374617274696E67E4
:1032CC00206375747465722E2E2E00436F6E6669C2
:1032DC00677572696E673A2046756C6C20746872FB
:1032EC006F746C65202B2064656C617900436F6E84
:1032FC006669677572696E673A203000536574743D
:10330C00696E67206375747465725F73746174653C
:10331C003D3000436F6E6669677572696E673A205F
:10332C0033207365636F6E6473206C6F770020209D
:10333C002D20536C6F7720737461727400202020E1
:10334C00202D2000436F756E7465723A2000204C5E
:10335C004D6F743A200020524D6F743A200020209B
:10336C002D204261636B696E6720757020776974DC
:10337C006820747769737420286F6E652077686590
:10338C00656C207265647563656420737065656433
:10339C00292000207365636F6E64732E0020202D2E
:1033AC0020446F6E65206261636B696E6720757077
:1033BC000020202D204261636B696E6720757020A0
:1033CC00002A207265766572736544697265637450
:1033DC00696F6E28290020202D206E65775F6C6543
:1033EC006674446972656374696F6E3A2000206E6E
:1033FC0065775F7269676874446972656374696F35
:10340C006E3A2000206C6566744D6F746F72537049
:10341C006565643A20002072696768744D6F746F3B
:10342C007253706565643A200020202D206C65660F
:10343C00744D6F746F7253706565643A20006661E9
:10344C00756C74004572726F72206E756D62657268
:10345C003A200020202D206375747465725F73749C
:10346C006174653A2000233A20002042433A200040
:10347C00204C433A20002052433A2000204C4D6F00
:10348C00746F7253703A200020524D6F746F7253E8
:10349C00703A2000204375747465723A2000204203
:1034AC006174746572793A20002028005629002036
:1034BC0053746174653A20002044656275673A2044
:1034CC0000204368617267653A20004F4B004E4FF5
:1034DC004B2100205243313A2000202F2000205253
:1034EC0043323A20003D3D3D3D3D3D3D3D3D3D3D62
:1034FC003D3D3D3D3D3D3D3D3D3D3D3D3D3D3D3DF0
:10350C003D3D3D3D3D3D3D3D3D3D3D3D3D3D3D3DDF
:10351C003D002A205374617274696E6720757000C7
:10352C0020202D2053746F7070696E6720656E6754
:10353C00696E6573002A204D6F746F72206375720B
:10354C0072656E74207468726573686F6C64207237
:10355C006561636865640020202D200043617567F8
:10356C0068742073657269616C0020202D2052658F
:10357C006365697665643A200020202D20537461C0
:10358C007274696E6720726F626F740020202D2038
:10359C00526576657273696E6720726F626F740024
:1035AC0020202D205475726E696E67206C656674D0
:1035BC000020202D205475726E696E672072696729
:1035CC0068740020202D20546F67676C652063752C
:1035DC00747465720020202D20546F67676C696EBF
:1035EC006720646562756720666C61670020202D1A
:1035FC0020546F67676C696E67207072696E7420F7
:10360C00737461747573206F7574707574002020F9
:10361C002D2042756D700020202D2053746F70701A
:10362C00696E6720726F626F74006E616E00696EF6
:10363C0066006F7666002E00010000FE0002E7FFB8
:10364C001900E7FF190096000107004803B4052094
:10365C000804005A05A406EE07FFFF0000E803EE7D
:10366C0007000000006812EB13FE112F120F125806
:02367C0012003A
:00000001FF
